{
  "_format": "hh-sol-artifact-1",
  "contractName": "LokaVault",
  "sourceName": "contracts/LokaVault.sol",
  "abi": [
    {
      "inputs": [
        {
          "internalType": "address",
          "name": "_owner",
          "type": "address"
        },
        {
          "internalType": "address",
          "name": "_coldWallet",
          "type": "address"
        },
        {
          "internalType": "address",
          "name": "_router",
          "type": "address"
        },
        {
          "internalType": "address",
          "name": "_usdc",
          "type": "address"
        },
        {
          "internalType": "address",
          "name": "_idrx",
          "type": "address"
        }
      ],
      "stateMutability": "nonpayable",
      "type": "constructor"
    },
    {
      "inputs": [],
      "name": "COLD_WALLET",
      "outputs": [
        {
          "internalType": "address",
          "name": "",
          "type": "address"
        }
      ],
      "stateMutability": "view",
      "type": "function"
    },
    {
      "inputs": [],
      "name": "IDRX",
      "outputs": [
        {
          "internalType": "address",
          "name": "",
          "type": "address"
        }
      ],
      "stateMutability": "view",
      "type": "function"
    },
    {
      "inputs": [],
      "name": "OWNER",
      "outputs": [
        {
          "internalType": "address",
          "name": "",
          "type": "address"
        }
      ],
      "stateMutability": "view",
      "type": "function"
    },
    {
      "inputs": [],
      "name": "ROUTER",
      "outputs": [
        {
          "internalType": "address",
          "name": "",
          "type": "address"
        }
      ],
      "stateMutability": "view",
      "type": "function"
    },
    {
      "inputs": [],
      "name": "USDC",
      "outputs": [
        {
          "internalType": "address",
          "name": "",
          "type": "address"
        }
      ],
      "stateMutability": "view",
      "type": "function"
    },
    {
      "inputs": [],
      "name": "sweep",
      "outputs": [],
      "stateMutability": "nonpayable",
      "type": "function"
    }
  ],
  "bytecode": "0x61012060405234801561001157600080fd5b50604051610d1b380380610d1b833981810160405281019061003391906101a5565b8473ffffffffffffffffffffffffffffffffffffffff1660a08173ffffffffffffffffffffffffffffffffffffffff16815250508373ffffffffffffffffffffffffffffffffffffffff1660808173ffffffffffffffffffffffffffffffffffffffff16815250508273ffffffffffffffffffffffffffffffffffffffff1660c08173ffffffffffffffffffffffffffffffffffffffff16815250508173ffffffffffffffffffffffffffffffffffffffff1660e08173ffffffffffffffffffffffffffffffffffffffff16815250508073ffffffffffffffffffffffffffffffffffffffff166101008173ffffffffffffffffffffffffffffffffffffffff16815250505050505050610220565b600080fd5b600073ffffffffffffffffffffffffffffffffffffffff82169050919050565b600061017282610147565b9050919050565b61018281610167565b811461018d57600080fd5b50565b60008151905061019f81610179565b92915050565b600080600080600060a086880312156101c1576101c0610142565b5b60006101cf88828901610190565b95505060206101e088828901610190565b94505060406101f188828901610190565b935050606061020288828901610190565b925050608061021388828901610190565b9150509295509295909350565b60805160a05160c05160e05161010051610a8d61028e60003960008181610393015261051a0152600081816101530152818161032401526104f601526000818161012d0152818161025301526104020152600061010901526000818161044201526104d20152610a8d6000f3fe608060405234801561001057600080fd5b50600436106100625760003560e01c8063117803e31461006757806332fe7b261461008557806335faa416146100a35780636744bb26146100ad57806389a30271146100cb578063ef187921146100e9575b600080fd5b61006f610107565b60405161007c919061057d565b60405180910390f35b61008d61012b565b60405161009a919061057d565b60405180910390f35b6100ab61014f565b005b6100b56104d0565b6040516100c2919061057d565b60405180910390f35b6100d36104f4565b6040516100e0919061057d565b60405180910390f35b6100f1610518565b6040516100fe919061057d565b60405180910390f35b7f000000000000000000000000000000000000000000000000000000000000000081565b7f000000000000000000000000000000000000000000000000000000000000000081565b60007f0000000000000000000000000000000000000000000000000000000000000000905060008173ffffffffffffffffffffffffffffffffffffffff166370a08231306040518263ffffffff1660e01b81526004016101af919061057d565b602060405180830381865afa1580156101cc573d6000803e3d6000fd5b505050506040513d601f19601f820116820180604052508101906101f091906105e2565b905060008111610235576040517f08c379a000000000000000000000000000000000000000000000000000000000815260040161022c9061066c565b60405180910390fd5b8173ffffffffffffffffffffffffffffffffffffffff1663095ea7b37f0000000000000000000000000000000000000000000000000000000000000000836040518363ffffffff1660e01b815260040161029092919061069b565b6020604051808303816000875af11580156102af573d6000803e3d6000fd5b505050506040513d601f19601f820116820180604052508101906102d391906106fc565b506000600267ffffffffffffffff8111156102f1576102f0610729565b5b60405190808252806020026020018201604052801561031f5781602001602082028036833780820191505090505b5090507f00000000000000000000000000000000000000000000000000000000000000008160008151811061035757610356610758565b5b602002602001019073ffffffffffffffffffffffffffffffffffffffff16908173ffffffffffffffffffffffffffffffffffffffff16815250507f0000000000000000000000000000000000000000000000000000000000000000816001815181106103c6576103c5610758565b5b602002602001019073ffffffffffffffffffffffffffffffffffffffff16908173ffffffffffffffffffffffffffffffffffffffff16815250507f000000000000000000000000000000000000000000000000000000000000000073ffffffffffffffffffffffffffffffffffffffff166338ed1739836000847f0000000000000000000000000000000000000000000000000000000000000000426040518663ffffffff1660e01b815260040161048295949392919061088a565b6000604051808303816000875af11580156104a1573d6000803e3d6000fd5b505050506040513d6000823e3d601f19601f820116820180604052508101906104ca9190610a0e565b50505050565b7f000000000000000000000000000000000000000000000000000000000000000081565b7f000000000000000000000000000000000000000000000000000000000000000081565b7f000000000000000000000000000000000000000000000000000000000000000081565b600073ffffffffffffffffffffffffffffffffffffffff82169050919050565b60006105678261053c565b9050919050565b6105778161055c565b82525050565b6000602082019050610592600083018461056e565b92915050565b6000604051905090565b600080fd5b600080fd5b6000819050919050565b6105bf816105ac565b81146105ca57600080fd5b50565b6000815190506105dc816105b6565b92915050565b6000602082840312156105f8576105f76105a2565b5b6000610606848285016105cd565b91505092915050565b600082825260208201905092915050565b7f5a65726f2042616c616e63650000000000000000000000000000000000000000600082015250565b6000610656600c8361060f565b915061066182610620565b602082019050919050565b6000602082019050818103600083015261068581610649565b9050919050565b610695816105ac565b82525050565b60006040820190506106b0600083018561056e565b6106bd602083018461068c565b9392505050565b60008115159050919050565b6106d9816106c4565b81146106e457600080fd5b50565b6000815190506106f6816106d0565b92915050565b600060208284031215610712576107116105a2565b5b6000610720848285016106e7565b91505092915050565b7f4e487b7100000000000000000000000000000000000000000000000000000000600052604160045260246000fd5b7f4e487b7100000000000000000000000000000000000000000000000000000000600052603260045260246000fd5b6000819050919050565b6000819050919050565b60006107b66107b16107ac84610787565b610791565b6105ac565b9050919050565b6107c68161079b565b82525050565b600081519050919050565b600082825260208201905092915050565b6000819050602082019050919050565b6108018161055c565b82525050565b600061081383836107f8565b60208301905092915050565b6000602082019050919050565b6000610837826107cc565b61084181856107d7565b935061084c836107e8565b8060005b8381101561087d5781516108648882610807565b975061086f8361081f565b925050600181019050610850565b5085935050505092915050565b600060a08201905061089f600083018861068c565b6108ac60208301876107bd565b81810360408301526108be818661082c565b90506108cd606083018561056e565b6108da608083018461068c565b9695505050505050565b600080fd5b6000601f19601f8301169050919050565b610903826108e9565b810181811067ffffffffffffffff8211171561092257610921610729565b5b80604052505050565b6000610935610598565b905061094182826108fa565b919050565b600067ffffffffffffffff82111561096157610960610729565b5b602082029050602081019050919050565b600080fd5b600061098a61098584610946565b61092b565b905080838252602082019050602084028301858111156109ad576109ac610972565b5b835b818110156109d657806109c288826105cd565b8452602084019350506020810190506109af565b5050509392505050565b600082601f8301126109f5576109f46108e4565b5b8151610a05848260208601610977565b91505092915050565b600060208284031215610a2457610a236105a2565b5b600082015167ffffffffffffffff811115610a4257610a416105a7565b5b610a4e848285016109e0565b9150509291505056fea2646970667358221220f414b46018a60c7f12048a6cc3ae1f6ba04fb04203bdd23aece2ec1977681bd964736f6c634300081a0033",
  "linkReferences": {},
  "deployedLinkReferences": {}
}