{
  "_format": "hh-sol-artifact-1",
  "contractName": "LokaVault",
  "sourceName": "contracts/LokaVault.sol",
  "abi": [
    {
      "inputs": [
        {
          "internalType": "address",
          "name": "_owner",
          "type": "address"
        },
        {
          "internalType": "address",
          "name": "_coldWallet",
          "type": "address"
        },
        {
          "internalType": "address",
          "name": "_trustedForwarder",
          "type": "address"
        }
      ],
      "stateMutability": "nonpayable",
      "type": "constructor"
    },
    {
      "anonymous": false,
      "inputs": [
        {
          "indexed": true,
          "internalType": "address",
          "name": "token",
          "type": "address"
        },
        {
          "indexed": false,
          "internalType": "uint256",
          "name": "amount",
          "type": "uint256"
        }
      ],
      "name": "Swept",
      "type": "event"
    },
    {
      "inputs": [],
      "name": "COLD_WALLET",
      "outputs": [
        {
          "internalType": "address",
          "name": "",
          "type": "address"
        }
      ],
      "stateMutability": "view",
      "type": "function"
    },
    {
      "inputs": [],
      "name": "OWNER",
      "outputs": [
        {
          "internalType": "address",
          "name": "",
          "type": "address"
        }
      ],
      "stateMutability": "view",
      "type": "function"
    },
    {
      "inputs": [
        {
          "internalType": "address",
          "name": "forwarder",
          "type": "address"
        }
      ],
      "name": "isTrustedForwarder",
      "outputs": [
        {
          "internalType": "bool",
          "name": "",
          "type": "bool"
        }
      ],
      "stateMutability": "view",
      "type": "function"
    },
    {
      "inputs": [
        {
          "internalType": "address",
          "name": "_token",
          "type": "address"
        }
      ],
      "name": "sweep",
      "outputs": [],
      "stateMutability": "nonpayable",
      "type": "function"
    }
  ],
  "bytecode": "0x60e060405234801561001057600080fd5b506040516108d93803806108d98339818101604052810190610032919061013b565b808073ffffffffffffffffffffffffffffffffffffffff1660808173ffffffffffffffffffffffffffffffffffffffff1681525050508273ffffffffffffffffffffffffffffffffffffffff1660c08173ffffffffffffffffffffffffffffffffffffffff16815250508173ffffffffffffffffffffffffffffffffffffffff1660a08173ffffffffffffffffffffffffffffffffffffffff168152505050505061018e565b600080fd5b600073ffffffffffffffffffffffffffffffffffffffff82169050919050565b6000610108826100dd565b9050919050565b610118816100fd565b811461012357600080fd5b50565b6000815190506101358161010f565b92915050565b600080600060608486031215610154576101536100d8565b5b600061016286828701610126565b935050602061017386828701610126565b925050604061018486828701610126565b9150509250925092565b60805160a05160c05161070f6101ca6000396000818160db015261032801526000818161025201526103a40152600061034e015261070f6000f3fe608060405234801561001057600080fd5b506004361061004c5760003560e01c806301681a6214610051578063117803e31461006d578063572b6c051461008b5780636744bb26146100bb575b600080fd5b61006b60048036038101906100669190610454565b6100d9565b005b610075610326565b6040516100829190610490565b60405180910390f35b6100a560048036038101906100a09190610454565b61034a565b6040516100b291906104c6565b60405180910390f35b6100c36103a2565b6040516100d09190610490565b60405180910390f35b7f000000000000000000000000000000000000000000000000000000000000000073ffffffffffffffffffffffffffffffffffffffff166101186103c6565b73ffffffffffffffffffffffffffffffffffffffff161461016e576040517f08c379a00000000000000000000000000000000000000000000000000000000081526004016101659061053e565b60405180910390fd5b600081905060008173ffffffffffffffffffffffffffffffffffffffff166370a08231306040518263ffffffff1660e01b81526004016101ae9190610490565b602060405180830381865afa1580156101cb573d6000803e3d6000fd5b505050506040513d601f19601f820116820180604052508101906101ef9190610594565b905060008111610234576040517f08c379a000000000000000000000000000000000000000000000000000000000815260040161022b9061060d565b60405180910390fd5b8173ffffffffffffffffffffffffffffffffffffffff1663a9059cbb7f0000000000000000000000000000000000000000000000000000000000000000836040518363ffffffff1660e01b815260040161028f92919061063c565b6020604051808303816000875af11580156102ae573d6000803e3d6000fd5b505050506040513d601f19601f820116820180604052508101906102d29190610691565b508273ffffffffffffffffffffffffffffffffffffffff167fc36b5179cb9c303b200074996eab2b3473eac370fdd7eba3bec636fe351096968260405161031991906106be565b60405180910390a2505050565b7f000000000000000000000000000000000000000000000000000000000000000081565b60007f000000000000000000000000000000000000000000000000000000000000000073ffffffffffffffffffffffffffffffffffffffff168273ffffffffffffffffffffffffffffffffffffffff16149050919050565b7f000000000000000000000000000000000000000000000000000000000000000081565b60006103d13361034a565b156103e557601436033560601c90506103ed565b3390506103ee565b5b90565b600080fd5b600073ffffffffffffffffffffffffffffffffffffffff82169050919050565b6000610421826103f6565b9050919050565b61043181610416565b811461043c57600080fd5b50565b60008135905061044e81610428565b92915050565b60006020828403121561046a576104696103f1565b5b60006104788482850161043f565b91505092915050565b61048a81610416565b82525050565b60006020820190506104a56000830184610481565b92915050565b60008115159050919050565b6104c0816104ab565b82525050565b60006020820190506104db60008301846104b7565b92915050565b600082825260208201905092915050565b7f4e6f74204f776e65720000000000000000000000000000000000000000000000600082015250565b60006105286009836104e1565b9150610533826104f2565b602082019050919050565b600060208201905081810360008301526105578161051b565b9050919050565b6000819050919050565b6105718161055e565b811461057c57600080fd5b50565b60008151905061058e81610568565b92915050565b6000602082840312156105aa576105a96103f1565b5b60006105b88482850161057f565b91505092915050565b7f5a65726f2042616c616e63650000000000000000000000000000000000000000600082015250565b60006105f7600c836104e1565b9150610602826105c1565b602082019050919050565b60006020820190508181036000830152610626816105ea565b9050919050565b6106368161055e565b82525050565b60006040820190506106516000830185610481565b61065e602083018461062d565b9392505050565b61066e816104ab565b811461067957600080fd5b50565b60008151905061068b81610665565b92915050565b6000602082840312156106a7576106a66103f1565b5b60006106b58482850161067c565b91505092915050565b60006020820190506106d3600083018461062d565b9291505056fea26469706673582212208ad04912184d074dada4882213b5fe0a6d1e4b3454ab5049c84fb506ac6c6f0464736f6c634300081a0033",
  "linkReferences": {},
  "deployedLinkReferences": {}
}