{"contracts/LokaFactory.sol":{"LokaFactory":{"abi":[{"inputs":[{"internalType":"address","name":"_coldWallet","type":"address"}],"stateMutability":"nonpayable","type":"constructor"},{"anonymous":false,"inputs":[{"indexed":true,"internalType":"address","name":"vaultAddress","type":"address"},{"indexed":false,"internalType":"bytes32","name":"salt","type":"bytes32"}],"name":"VaultDeployed","type":"event"},{"inputs":[],"name":"coldWallet","outputs":[{"internalType":"address","name":"","type":"address"}],"stateMutability":"view","type":"function"},{"inputs":[{"internalType":"bytes32","name":"_salt","type":"bytes32"},{"internalType":"address","name":"_owner","type":"address"}],"name":"deployVault","outputs":[{"internalType":"address","name":"","type":"address"}],"stateMutability":"nonpayable","type":"function"},{"inputs":[{"internalType":"bytes32","name":"_salt","type":"bytes32"},{"internalType":"address","name":"_owner","type":"address"}],"name":"getVaultAddress","outputs":[{"internalType":"address","name":"","type":"address"}],"stateMutability":"view","type":"function"}],"evm":{"bytecode":{"linkReferences":{},"object":"608060405234801561001057600080fd5b506040516111a93803806111a9833981810160405281019061003291906100db565b806000806101000a81548173ffffffffffffffffffffffffffffffffffffffff021916908373ffffffffffffffffffffffffffffffffffffffff16021790555050610108565b600080fd5b600073ffffffffffffffffffffffffffffffffffffffff82169050919050565b60006100a88261007d565b9050919050565b6100b88161009d565b81146100c357600080fd5b50565b6000815190506100d5816100af565b92915050565b6000602082840312156100f1576100f0610078565b5b60006100ff848285016100c6565b91505092915050565b611092806101176000396000f3fe608060405234801561001057600080fd5b50600436106100415760003560e01c806301ac60e8146100465780636be13c9214610076578063e058beea14610094575b600080fd5b610060600480360381019061005b919061031b565b6100c4565b60405161006d919061036a565b60405180910390f35b61007e610199565b60405161008b919061036a565b60405180910390f35b6100ae60048036038101906100a9919061031b565b6101bd565b6040516100bb919061036a565b60405180910390f35b600080604051806020016100d790610275565b6020820181038252601f19601f820116604052508360008054906101000a900473ffffffffffffffffffffffffffffffffffffffff1660405160200161011e929190610385565b60405160208183030381529060405260405160200161013e92919061041f565b6040516020818303038152906040529050600060ff60f81b3086848051906020012060405160200161017394939291906104f9565b6040516020818303038152906040528051906020012090508060001c9250505092915050565b60008054906101000a900473ffffffffffffffffffffffffffffffffffffffff1681565b600080838360008054906101000a900473ffffffffffffffffffffffffffffffffffffffff166040516101ef90610275565b6101fa929190610385565b8190604051809103906000f590508015801561021a573d6000803e3d6000fd5b5090508073ffffffffffffffffffffffffffffffffffffffff167f3002bba91865865165d175c19d622d4b3dc25efce6f18428a08ad57c5c1c49d4856040516102639190610556565b60405180910390a28091505092915050565b610aeb8061057283390190565b600080fd5b6000819050919050565b61029a81610287565b81146102a557600080fd5b50565b6000813590506102b781610291565b92915050565b600073ffffffffffffffffffffffffffffffffffffffff82169050919050565b60006102e8826102bd565b9050919050565b6102f8816102dd565b811461030357600080fd5b50565b600081359050610315816102ef565b92915050565b6000806040838503121561033257610331610282565b5b6000610340858286016102a8565b925050602061035185828601610306565b9150509250929050565b610364816102dd565b82525050565b600060208201905061037f600083018461035b565b92915050565b600060408201905061039a600083018561035b565b6103a7602083018461035b565b9392505050565b600081519050919050565b600081905092915050565b60005b838110156103e25780820151818401526020810190506103c7565b60008484015250505050565b60006103f9826103ae565b61040381856103b9565b93506104138185602086016103c4565b80840191505092915050565b600061042b82856103ee565b915061043782846103ee565b91508190509392505050565b60007fff0000000000000000000000000000000000000000000000000000000000000082169050919050565b6000819050919050565b61048a61048582610443565b61046f565b82525050565b60008160601b9050919050565b60006104a882610490565b9050919050565b60006104ba8261049d565b9050919050565b6104d26104cd826102dd565b6104af565b82525050565b6000819050919050565b6104f36104ee82610287565b6104d8565b82525050565b60006105058287610479565b60018201915061051582866104c1565b60148201915061052582856104e2565b60208201915061053582846104e2565b60208201915081905095945050505050565b61055081610287565b82525050565b600060208201905061056b6000830184610547565b9291505056fe60a060405234801561001057600080fd5b50604051610aeb380380610aeb83398181016040528101906100329190610286565b81600073ffffffffffffffffffffffffffffffffffffffff168173ffffffffffffffffffffffffffffffffffffffff16036100a55760006040517f1e4fbdf700000000000000000000000000000000000000000000000000000000815260040161009c91906102d5565b60405180910390fd5b6100b48161015f60201b60201c565b50600073ffffffffffffffffffffffffffffffffffffffff168173ffffffffffffffffffffffffffffffffffffffff1603610124576040517f08c379a000000000000000000000000000000000000000000000000000000000815260040161011b9061034d565b60405180910390fd5b8073ffffffffffffffffffffffffffffffffffffffff1660808173ffffffffffffffffffffffffffffffffffffffff1681525050505061036d565b60008060009054906101000a900473ffffffffffffffffffffffffffffffffffffffff169050816000806101000a81548173ffffffffffffffffffffffffffffffffffffffff021916908373ffffffffffffffffffffffffffffffffffffffff1602179055508173ffffffffffffffffffffffffffffffffffffffff168173ffffffffffffffffffffffffffffffffffffffff167f8be0079c531659141344cd1fd0a4f28419497f9722a3daafe3b4186f6b6457e060405160405180910390a35050565b600080fd5b600073ffffffffffffffffffffffffffffffffffffffff82169050919050565b600061025382610228565b9050919050565b61026381610248565b811461026e57600080fd5b50565b6000815190506102808161025a565b92915050565b6000806040838503121561029d5761029c610223565b5b60006102ab85828601610271565b92505060206102bc85828601610271565b9150509250929050565b6102cf81610248565b82525050565b60006020820190506102ea60008301846102c6565b92915050565b600082825260208201905092915050565b7f496e76616c69642057616c6c6574000000000000000000000000000000000000600082015250565b6000610337600e836102f0565b915061034282610301565b602082019050919050565b600060208201905081810360008301526103668161032a565b9050919050565b60805161075c61038f600039600081816101c6015261029c015261075c6000f3fe608060405234801561001057600080fd5b50600436106100575760003560e01c806301681a621461005c5780636744bb2614610078578063715018a6146100965780638da5cb5b146100a0578063f2fde38b146100be575b600080fd5b61007660048036038101906100719190610537565b6100da565b005b61008061029a565b60405161008d9190610573565b60405180910390f35b61009e6102be565b005b6100a86102d2565b6040516100b59190610573565b60405180910390f35b6100d860048036038101906100d39190610537565b6102fb565b005b6100e2610381565b600081905060008173ffffffffffffffffffffffffffffffffffffffff166370a08231306040518263ffffffff1660e01b81526004016101229190610573565b602060405180830381865afa15801561013f573d6000803e3d6000fd5b505050506040513d601f19601f8201168201806040525081019061016391906105c4565b9050600081116101a8576040517f08c379a000000000000000000000000000000000000000000000000000000000815260040161019f9061064e565b60405180910390fd5b8173ffffffffffffffffffffffffffffffffffffffff1663a9059cbb7f0000000000000000000000000000000000000000000000000000000000000000836040518363ffffffff1660e01b815260040161020392919061067d565b6020604051808303816000875af1158015610222573d6000803e3d6000fd5b505050506040513d601f19601f8201168201806040525081019061024691906106de565b508273ffffffffffffffffffffffffffffffffffffffff167fc36b5179cb9c303b200074996eab2b3473eac370fdd7eba3bec636fe351096968260405161028d919061070b565b60405180910390a2505050565b7f000000000000000000000000000000000000000000000000000000000000000081565b6102c6610381565b6102d06000610408565b565b60008060009054906101000a900473ffffffffffffffffffffffffffffffffffffffff16905090565b610303610381565b600073ffffffffffffffffffffffffffffffffffffffff168173ffffffffffffffffffffffffffffffffffffffff16036103755760006040517f1e4fbdf700000000000000000000000000000000000000000000000000000000815260040161036c9190610573565b60405180910390fd5b61037e81610408565b50565b6103896104cc565b73ffffffffffffffffffffffffffffffffffffffff166103a76102d2565b73ffffffffffffffffffffffffffffffffffffffff1614610406576103ca6104cc565b6040517f118cdaa70000000000000000000000000000000000000000000000000000000081526004016103fd9190610573565b60405180910390fd5b565b60008060009054906101000a900473ffffffffffffffffffffffffffffffffffffffff169050816000806101000a81548173ffffffffffffffffffffffffffffffffffffffff021916908373ffffffffffffffffffffffffffffffffffffffff1602179055508173ffffffffffffffffffffffffffffffffffffffff168173ffffffffffffffffffffffffffffffffffffffff167f8be0079c531659141344cd1fd0a4f28419497f9722a3daafe3b4186f6b6457e060405160405180910390a35050565b600033905090565b600080fd5b600073ffffffffffffffffffffffffffffffffffffffff82169050919050565b6000610504826104d9565b9050919050565b610514816104f9565b811461051f57600080fd5b50565b6000813590506105318161050b565b92915050565b60006020828403121561054d5761054c6104d4565b5b600061055b84828501610522565b91505092915050565b61056d816104f9565b82525050565b60006020820190506105886000830184610564565b92915050565b6000819050919050565b6105a18161058e565b81146105ac57600080fd5b50565b6000815190506105be81610598565b92915050565b6000602082840312156105da576105d96104d4565b5b60006105e8848285016105af565b91505092915050565b600082825260208201905092915050565b7f53616c646f204b6f736f6e670000000000000000000000000000000000000000600082015250565b6000610638600c836105f1565b915061064382610602565b602082019050919050565b600060208201905081810360008301526106678161062b565b9050919050565b6106778161058e565b82525050565b60006040820190506106926000830185610564565b61069f602083018461066e565b9392505050565b60008115159050919050565b6106bb816106a6565b81146106c657600080fd5b50565b6000815190506106d8816106b2565b92915050565b6000602082840312156106f4576106f36104d4565b5b6000610702848285016106c9565b91505092915050565b6000602082019050610720600083018461066e565b9291505056fea2646970667358221220d10aac53fe740639ea979231e9f700d47069d9dfd3e013e07c4fc37f2b2e105a64736f6c634300081a0033a2646970667358221220b272221396de5a8498339f2c3686b871e5107894462476d10eb1034f8921ee7564736f6c634300081a0033","opcodes":"PUSH1 0x80 PUSH1 0x40 MSTORE CALLVALUE DUP1 ISZERO PUSH2 0x10 JUMPI PUSH1 0x0 DUP1 REVERT JUMPDEST POP PUSH1 0x40 MLOAD PUSH2 0x11A9 CODESIZE SUB DUP1 PUSH2 0x11A9 DUP4 CODECOPY DUP2 DUP2 ADD PUSH1 0x40 MSTORE DUP2 ADD SWAP1 PUSH2 0x32 SWAP2 SWAP1 PUSH2 0xDB JUMP JUMPDEST DUP1 PUSH1 0x0 DUP1 PUSH2 0x100 EXP DUP2 SLOAD DUP2 PUSH20 0xFFFFFFFFFFFFFFFFFFFFFFFFFFFFFFFFFFFFFFFF MUL NOT AND SWAP1 DUP4 PUSH20 0xFFFFFFFFFFFFFFFFFFFFFFFFFFFFFFFFFFFFFFFF AND MUL OR SWAP1 SSTORE POP POP PUSH2 0x108 JUMP JUMPDEST PUSH1 0x0 DUP1 REVERT JUMPDEST PUSH1 0x0 PUSH20 0xFFFFFFFFFFFFFFFFFFFFFFFFFFFFFFFFFFFFFFFF DUP3 AND SWAP1 POP SWAP2 SWAP1 POP JUMP JUMPDEST PUSH1 0x0 PUSH2 0xA8 DUP3 PUSH2 0x7D JUMP JUMPDEST SWAP1 POP SWAP2 SWAP1 POP JUMP JUMPDEST PUSH2 0xB8 DUP2 PUSH2 0x9D JUMP JUMPDEST DUP2 EQ PUSH2 0xC3 JUMPI PUSH1 0x0 DUP1 REVERT JUMPDEST POP JUMP JUMPDEST PUSH1 0x0 DUP2 MLOAD SWAP1 POP PUSH2 0xD5 DUP2 PUSH2 0xAF JUMP JUMPDEST SWAP3 SWAP2 POP POP JUMP JUMPDEST PUSH1 0x0 PUSH1 0x20 DUP3 DUP5 SUB SLT ISZERO PUSH2 0xF1 JUMPI PUSH2 0xF0 PUSH2 0x78 JUMP JUMPDEST JUMPDEST PUSH1 0x0 PUSH2 0xFF DUP5 DUP3 DUP6 ADD PUSH2 0xC6 JUMP JUMPDEST SWAP2 POP POP SWAP3 SWAP2 POP POP JUMP JUMPDEST PUSH2 0x1092 DUP1 PUSH2 0x117 PUSH1 0x0 CODECOPY PUSH1 0x0 RETURN INVALID PUSH1 0x80 PUSH1 0x40 MSTORE CALLVALUE DUP1 ISZERO PUSH2 0x10 JUMPI PUSH1 0x0 DUP1 REVERT JUMPDEST POP PUSH1 0x4 CALLDATASIZE LT PUSH2 0x41 JUMPI PUSH1 0x0 CALLDATALOAD PUSH1 0xE0 SHR DUP1 PUSH4 0x1AC60E8 EQ PUSH2 0x46 JUMPI DUP1 PUSH4 0x6BE13C92 EQ PUSH2 0x76 JUMPI DUP1 PUSH4 0xE058BEEA EQ PUSH2 0x94 JUMPI JUMPDEST PUSH1 0x0 DUP1 REVERT JUMPDEST PUSH2 0x60 PUSH1 0x4 DUP1 CALLDATASIZE SUB DUP2 ADD SWAP1 PUSH2 0x5B SWAP2 SWAP1 PUSH2 0x31B JUMP JUMPDEST PUSH2 0xC4 JUMP JUMPDEST PUSH1 0x40 MLOAD PUSH2 0x6D SWAP2 SWAP1 PUSH2 0x36A JUMP JUMPDEST PUSH1 0x40 MLOAD DUP1 SWAP2 SUB SWAP1 RETURN JUMPDEST PUSH2 0x7E PUSH2 0x199 JUMP JUMPDEST PUSH1 0x40 MLOAD PUSH2 0x8B SWAP2 SWAP1 PUSH2 0x36A JUMP JUMPDEST PUSH1 0x40 MLOAD DUP1 SWAP2 SUB SWAP1 RETURN JUMPDEST PUSH2 0xAE PUSH1 0x4 DUP1 CALLDATASIZE SUB DUP2 ADD SWAP1 PUSH2 0xA9 SWAP2 SWAP1 PUSH2 0x31B JUMP JUMPDEST PUSH2 0x1BD JUMP JUMPDEST PUSH1 0x40 MLOAD PUSH2 0xBB SWAP2 SWAP1 PUSH2 0x36A JUMP JUMPDEST PUSH1 0x40 MLOAD DUP1 SWAP2 SUB SWAP1 RETURN JUMPDEST PUSH1 0x0 DUP1 PUSH1 0x40 MLOAD DUP1 PUSH1 0x20 ADD PUSH2 0xD7 SWAP1 PUSH2 0x275 JUMP JUMPDEST PUSH1 0x20 DUP3 ADD DUP2 SUB DUP3 MSTORE PUSH1 0x1F NOT PUSH1 0x1F DUP3 ADD AND PUSH1 0x40 MSTORE POP DUP4 PUSH1 0x0 DUP1 SLOAD SWAP1 PUSH2 0x100 EXP SWAP1 DIV PUSH20 0xFFFFFFFFFFFFFFFFFFFFFFFFFFFFFFFFFFFFFFFF AND PUSH1 0x40 MLOAD PUSH1 0x20 ADD PUSH2 0x11E SWAP3 SWAP2 SWAP1 PUSH2 0x385 JUMP JUMPDEST PUSH1 0x40 MLOAD PUSH1 0x20 DUP2 DUP4 SUB SUB DUP2 MSTORE SWAP1 PUSH1 0x40 MSTORE PUSH1 0x40 MLOAD PUSH1 0x20 ADD PUSH2 0x13E SWAP3 SWAP2 SWAP1 PUSH2 0x41F JUMP JUMPDEST PUSH1 0x40 MLOAD PUSH1 0x20 DUP2 DUP4 SUB SUB DUP2 MSTORE SWAP1 PUSH1 0x40 MSTORE SWAP1 POP PUSH1 0x0 PUSH1 0xFF PUSH1 0xF8 SHL ADDRESS DUP7 DUP5 DUP1 MLOAD SWAP1 PUSH1 0x20 ADD KECCAK256 PUSH1 0x40 MLOAD PUSH1 0x20 ADD PUSH2 0x173 SWAP5 SWAP4 SWAP3 SWAP2 SWAP1 PUSH2 0x4F9 JUMP JUMPDEST PUSH1 0x40 MLOAD PUSH1 0x20 DUP2 DUP4 SUB SUB DUP2 MSTORE SWAP1 PUSH1 0x40 MSTORE DUP1 MLOAD SWAP1 PUSH1 0x20 ADD KECCAK256 SWAP1 POP DUP1 PUSH1 0x0 SHR SWAP3 POP POP POP SWAP3 SWAP2 POP POP JUMP JUMPDEST PUSH1 0x0 DUP1 SLOAD SWAP1 PUSH2 0x100 EXP SWAP1 DIV PUSH20 0xFFFFFFFFFFFFFFFFFFFFFFFFFFFFFFFFFFFFFFFF AND DUP2 JUMP JUMPDEST PUSH1 0x0 DUP1 DUP4 DUP4 PUSH1 0x0 DUP1 SLOAD SWAP1 PUSH2 0x100 EXP SWAP1 DIV PUSH20 0xFFFFFFFFFFFFFFFFFFFFFFFFFFFFFFFFFFFFFFFF AND PUSH1 0x40 MLOAD PUSH2 0x1EF SWAP1 PUSH2 0x275 JUMP JUMPDEST PUSH2 0x1FA SWAP3 SWAP2 SWAP1 PUSH2 0x385 JUMP JUMPDEST DUP2 SWAP1 PUSH1 0x40 MLOAD DUP1 SWAP2 SUB SWAP1 PUSH1 0x0 CREATE2 SWAP1 POP DUP1 ISZERO DUP1 ISZERO PUSH2 0x21A JUMPI RETURNDATASIZE PUSH1 0x0 DUP1 RETURNDATACOPY RETURNDATASIZE PUSH1 0x0 REVERT JUMPDEST POP SWAP1 POP DUP1 PUSH20 0xFFFFFFFFFFFFFFFFFFFFFFFFFFFFFFFFFFFFFFFF AND PUSH32 0x3002BBA91865865165D175C19D622D4B3DC25EFCE6F18428A08AD57C5C1C49D4 DUP6 PUSH1 0x40 MLOAD PUSH2 0x263 SWAP2 SWAP1 PUSH2 0x556 JUMP JUMPDEST PUSH1 0x40 MLOAD DUP1 SWAP2 SUB SWAP1 LOG2 DUP1 SWAP2 POP POP SWAP3 SWAP2 POP POP JUMP JUMPDEST PUSH2 0xAEB DUP1 PUSH2 0x572 DUP4 CODECOPY ADD SWAP1 JUMP JUMPDEST PUSH1 0x0 DUP1 REVERT JUMPDEST PUSH1 0x0 DUP2 SWAP1 POP SWAP2 SWAP1 POP JUMP JUMPDEST PUSH2 0x29A DUP2 PUSH2 0x287 JUMP JUMPDEST DUP2 EQ PUSH2 0x2A5 JUMPI PUSH1 0x0 DUP1 REVERT JUMPDEST POP JUMP JUMPDEST PUSH1 0x0 DUP2 CALLDATALOAD SWAP1 POP PUSH2 0x2B7 DUP2 PUSH2 0x291 JUMP JUMPDEST SWAP3 SWAP2 POP POP JUMP JUMPDEST PUSH1 0x0 PUSH20 0xFFFFFFFFFFFFFFFFFFFFFFFFFFFFFFFFFFFFFFFF DUP3 AND SWAP1 POP SWAP2 SWAP1 POP JUMP JUMPDEST PUSH1 0x0 PUSH2 0x2E8 DUP3 PUSH2 0x2BD JUMP JUMPDEST SWAP1 POP SWAP2 SWAP1 POP JUMP JUMPDEST PUSH2 0x2F8 DUP2 PUSH2 0x2DD JUMP JUMPDEST DUP2 EQ PUSH2 0x303 JUMPI PUSH1 0x0 DUP1 REVERT JUMPDEST POP JUMP JUMPDEST PUSH1 0x0 DUP2 CALLDATALOAD SWAP1 POP PUSH2 0x315 DUP2 PUSH2 0x2EF JUMP JUMPDEST SWAP3 SWAP2 POP POP JUMP JUMPDEST PUSH1 0x0 DUP1 PUSH1 0x40 DUP4 DUP6 SUB SLT ISZERO PUSH2 0x332 JUMPI PUSH2 0x331 PUSH2 0x282 JUMP JUMPDEST JUMPDEST PUSH1 0x0 PUSH2 0x340 DUP6 DUP3 DUP7 ADD PUSH2 0x2A8 JUMP JUMPDEST SWAP3 POP POP PUSH1 0x20 PUSH2 0x351 DUP6 DUP3 DUP7 ADD PUSH2 0x306 JUMP JUMPDEST SWAP2 POP POP SWAP3 POP SWAP3 SWAP1 POP JUMP JUMPDEST PUSH2 0x364 DUP2 PUSH2 0x2DD JUMP JUMPDEST DUP3 MSTORE POP POP JUMP JUMPDEST PUSH1 0x0 PUSH1 0x20 DUP3 ADD SWAP1 POP PUSH2 0x37F PUSH1 0x0 DUP4 ADD DUP5 PUSH2 0x35B JUMP JUMPDEST SWAP3 SWAP2 POP POP JUMP JUMPDEST PUSH1 0x0 PUSH1 0x40 DUP3 ADD SWAP1 POP PUSH2 0x39A PUSH1 0x0 DUP4 ADD DUP6 PUSH2 0x35B JUMP JUMPDEST PUSH2 0x3A7 PUSH1 0x20 DUP4 ADD DUP5 PUSH2 0x35B JUMP JUMPDEST SWAP4 SWAP3 POP POP POP JUMP JUMPDEST PUSH1 0x0 DUP2 MLOAD SWAP1 POP SWAP2 SWAP1 POP JUMP JUMPDEST PUSH1 0x0 DUP2 SWAP1 POP SWAP3 SWAP2 POP POP JUMP JUMPDEST PUSH1 0x0 JUMPDEST DUP4 DUP2 LT ISZERO PUSH2 0x3E2 JUMPI DUP1 DUP3 ADD MLOAD DUP2 DUP5 ADD MSTORE PUSH1 0x20 DUP2 ADD SWAP1 POP PUSH2 0x3C7 JUMP JUMPDEST PUSH1 0x0 DUP5 DUP5 ADD MSTORE POP POP POP POP JUMP JUMPDEST PUSH1 0x0 PUSH2 0x3F9 DUP3 PUSH2 0x3AE JUMP JUMPDEST PUSH2 0x403 DUP2 DUP6 PUSH2 0x3B9 JUMP JUMPDEST SWAP4 POP PUSH2 0x413 DUP2 DUP6 PUSH1 0x20 DUP7 ADD PUSH2 0x3C4 JUMP JUMPDEST DUP1 DUP5 ADD SWAP2 POP POP SWAP3 SWAP2 POP POP JUMP JUMPDEST PUSH1 0x0 PUSH2 0x42B DUP3 DUP6 PUSH2 0x3EE JUMP JUMPDEST SWAP2 POP PUSH2 0x437 DUP3 DUP5 PUSH2 0x3EE JUMP JUMPDEST SWAP2 POP DUP2 SWAP1 POP SWAP4 SWAP3 POP POP POP JUMP JUMPDEST PUSH1 0x0 PUSH32 0xFF00000000000000000000000000000000000000000000000000000000000000 DUP3 AND SWAP1 POP SWAP2 SWAP1 POP JUMP JUMPDEST PUSH1 0x0 DUP2 SWAP1 POP SWAP2 SWAP1 POP JUMP JUMPDEST PUSH2 0x48A PUSH2 0x485 DUP3 PUSH2 0x443 JUMP JUMPDEST PUSH2 0x46F JUMP JUMPDEST DUP3 MSTORE POP POP JUMP JUMPDEST PUSH1 0x0 DUP2 PUSH1 0x60 SHL SWAP1 POP SWAP2 SWAP1 POP JUMP JUMPDEST PUSH1 0x0 PUSH2 0x4A8 DUP3 PUSH2 0x490 JUMP JUMPDEST SWAP1 POP SWAP2 SWAP1 POP JUMP JUMPDEST PUSH1 0x0 PUSH2 0x4BA DUP3 PUSH2 0x49D JUMP JUMPDEST SWAP1 POP SWAP2 SWAP1 POP JUMP JUMPDEST PUSH2 0x4D2 PUSH2 0x4CD DUP3 PUSH2 0x2DD JUMP JUMPDEST PUSH2 0x4AF JUMP JUMPDEST DUP3 MSTORE POP POP JUMP JUMPDEST PUSH1 0x0 DUP2 SWAP1 POP SWAP2 SWAP1 POP JUMP JUMPDEST PUSH2 0x4F3 PUSH2 0x4EE DUP3 PUSH2 0x287 JUMP JUMPDEST PUSH2 0x4D8 JUMP JUMPDEST DUP3 MSTORE POP POP JUMP JUMPDEST PUSH1 0x0 PUSH2 0x505 DUP3 DUP8 PUSH2 0x479 JUMP JUMPDEST PUSH1 0x1 DUP3 ADD SWAP2 POP PUSH2 0x515 DUP3 DUP7 PUSH2 0x4C1 JUMP JUMPDEST PUSH1 0x14 DUP3 ADD SWAP2 POP PUSH2 0x525 DUP3 DUP6 PUSH2 0x4E2 JUMP JUMPDEST PUSH1 0x20 DUP3 ADD SWAP2 POP PUSH2 0x535 DUP3 DUP5 PUSH2 0x4E2 JUMP JUMPDEST PUSH1 0x20 DUP3 ADD SWAP2 POP DUP2 SWAP1 POP SWAP6 SWAP5 POP POP POP POP POP JUMP JUMPDEST PUSH2 0x550 DUP2 PUSH2 0x287 JUMP JUMPDEST DUP3 MSTORE POP POP JUMP JUMPDEST PUSH1 0x0 PUSH1 0x20 DUP3 ADD SWAP1 POP PUSH2 0x56B PUSH1 0x0 DUP4 ADD DUP5 PUSH2 0x547 JUMP JUMPDEST SWAP3 SWAP2 POP POP JUMP INVALID PUSH1 0xA0 PUSH1 0x40 MSTORE CALLVALUE DUP1 ISZERO PUSH2 0x10 JUMPI PUSH1 0x0 DUP1 REVERT JUMPDEST POP PUSH1 0x40 MLOAD PUSH2 0xAEB CODESIZE SUB DUP1 PUSH2 0xAEB DUP4 CODECOPY DUP2 DUP2 ADD PUSH1 0x40 MSTORE DUP2 ADD SWAP1 PUSH2 0x32 SWAP2 SWAP1 PUSH2 0x286 JUMP JUMPDEST DUP2 PUSH1 0x0 PUSH20 0xFFFFFFFFFFFFFFFFFFFFFFFFFFFFFFFFFFFFFFFF AND DUP2 PUSH20 0xFFFFFFFFFFFFFFFFFFFFFFFFFFFFFFFFFFFFFFFF AND SUB PUSH2 0xA5 JUMPI PUSH1 0x0 PUSH1 0x40 MLOAD PUSH32 0x1E4FBDF700000000000000000000000000000000000000000000000000000000 DUP2 MSTORE PUSH1 0x4 ADD PUSH2 0x9C SWAP2 SWAP1 PUSH2 0x2D5 JUMP JUMPDEST PUSH1 0x40 MLOAD DUP1 SWAP2 SUB SWAP1 REVERT JUMPDEST PUSH2 0xB4 DUP2 PUSH2 0x15F PUSH1 0x20 SHL PUSH1 0x20 SHR JUMP JUMPDEST POP PUSH1 0x0 PUSH20 0xFFFFFFFFFFFFFFFFFFFFFFFFFFFFFFFFFFFFFFFF AND DUP2 PUSH20 0xFFFFFFFFFFFFFFFFFFFFFFFFFFFFFFFFFFFFFFFF AND SUB PUSH2 0x124 JUMPI PUSH1 0x40 MLOAD PUSH32 0x8C379A000000000000000000000000000000000000000000000000000000000 DUP2 MSTORE PUSH1 0x4 ADD PUSH2 0x11B SWAP1 PUSH2 0x34D JUMP JUMPDEST PUSH1 0x40 MLOAD DUP1 SWAP2 SUB SWAP1 REVERT JUMPDEST DUP1 PUSH20 0xFFFFFFFFFFFFFFFFFFFFFFFFFFFFFFFFFFFFFFFF AND PUSH1 0x80 DUP2 PUSH20 0xFFFFFFFFFFFFFFFFFFFFFFFFFFFFFFFFFFFFFFFF AND DUP2 MSTORE POP POP POP POP PUSH2 0x36D JUMP JUMPDEST PUSH1 0x0 DUP1 PUSH1 0x0 SWAP1 SLOAD SWAP1 PUSH2 0x100 EXP SWAP1 DIV PUSH20 0xFFFFFFFFFFFFFFFFFFFFFFFFFFFFFFFFFFFFFFFF AND SWAP1 POP DUP2 PUSH1 0x0 DUP1 PUSH2 0x100 EXP DUP2 SLOAD DUP2 PUSH20 0xFFFFFFFFFFFFFFFFFFFFFFFFFFFFFFFFFFFFFFFF MUL NOT AND SWAP1 DUP4 PUSH20 0xFFFFFFFFFFFFFFFFFFFFFFFFFFFFFFFFFFFFFFFF AND MUL OR SWAP1 SSTORE POP DUP2 PUSH20 0xFFFFFFFFFFFFFFFFFFFFFFFFFFFFFFFFFFFFFFFF AND DUP2 PUSH20 0xFFFFFFFFFFFFFFFFFFFFFFFFFFFFFFFFFFFFFFFF AND PUSH32 0x8BE0079C531659141344CD1FD0A4F28419497F9722A3DAAFE3B4186F6B6457E0 PUSH1 0x40 MLOAD PUSH1 0x40 MLOAD DUP1 SWAP2 SUB SWAP1 LOG3 POP POP JUMP JUMPDEST PUSH1 0x0 DUP1 REVERT JUMPDEST PUSH1 0x0 PUSH20 0xFFFFFFFFFFFFFFFFFFFFFFFFFFFFFFFFFFFFFFFF DUP3 AND SWAP1 POP SWAP2 SWAP1 POP JUMP JUMPDEST PUSH1 0x0 PUSH2 0x253 DUP3 PUSH2 0x228 JUMP JUMPDEST SWAP1 POP SWAP2 SWAP1 POP JUMP JUMPDEST PUSH2 0x263 DUP2 PUSH2 0x248 JUMP JUMPDEST DUP2 EQ PUSH2 0x26E JUMPI PUSH1 0x0 DUP1 REVERT JUMPDEST POP JUMP JUMPDEST PUSH1 0x0 DUP2 MLOAD SWAP1 POP PUSH2 0x280 DUP2 PUSH2 0x25A JUMP JUMPDEST SWAP3 SWAP2 POP POP JUMP JUMPDEST PUSH1 0x0 DUP1 PUSH1 0x40 DUP4 DUP6 SUB SLT ISZERO PUSH2 0x29D JUMPI PUSH2 0x29C PUSH2 0x223 JUMP JUMPDEST JUMPDEST PUSH1 0x0 PUSH2 0x2AB DUP6 DUP3 DUP7 ADD PUSH2 0x271 JUMP JUMPDEST SWAP3 POP POP PUSH1 0x20 PUSH2 0x2BC DUP6 DUP3 DUP7 ADD PUSH2 0x271 JUMP JUMPDEST SWAP2 POP POP SWAP3 POP SWAP3 SWAP1 POP JUMP JUMPDEST PUSH2 0x2CF DUP2 PUSH2 0x248 JUMP JUMPDEST DUP3 MSTORE POP POP JUMP JUMPDEST PUSH1 0x0 PUSH1 0x20 DUP3 ADD SWAP1 POP PUSH2 0x2EA PUSH1 0x0 DUP4 ADD DUP5 PUSH2 0x2C6 JUMP JUMPDEST SWAP3 SWAP2 POP POP JUMP JUMPDEST PUSH1 0x0 DUP3 DUP3 MSTORE PUSH1 0x20 DUP3 ADD SWAP1 POP SWAP3 SWAP2 POP POP JUMP JUMPDEST PUSH32 0x496E76616C69642057616C6C6574000000000000000000000000000000000000 PUSH1 0x0 DUP3 ADD MSTORE POP JUMP JUMPDEST PUSH1 0x0 PUSH2 0x337 PUSH1 0xE DUP4 PUSH2 0x2F0 JUMP JUMPDEST SWAP2 POP PUSH2 0x342 DUP3 PUSH2 0x301 JUMP JUMPDEST PUSH1 0x20 DUP3 ADD SWAP1 POP SWAP2 SWAP1 POP JUMP JUMPDEST PUSH1 0x0 PUSH1 0x20 DUP3 ADD SWAP1 POP DUP2 DUP2 SUB PUSH1 0x0 DUP4 ADD MSTORE PUSH2 0x366 DUP2 PUSH2 0x32A JUMP JUMPDEST SWAP1 POP SWAP2 SWAP1 POP JUMP JUMPDEST PUSH1 0x80 MLOAD PUSH2 0x75C PUSH2 0x38F PUSH1 0x0 CODECOPY PUSH1 0x0 DUP2 DUP2 PUSH2 0x1C6 ADD MSTORE PUSH2 0x29C ADD MSTORE PUSH2 0x75C PUSH1 0x0 RETURN INVALID PUSH1 0x80 PUSH1 0x40 MSTORE CALLVALUE DUP1 ISZERO PUSH2 0x10 JUMPI PUSH1 0x0 DUP1 REVERT JUMPDEST POP PUSH1 0x4 CALLDATASIZE LT PUSH2 0x57 JUMPI PUSH1 0x0 CALLDATALOAD PUSH1 0xE0 SHR DUP1 PUSH4 0x1681A62 EQ PUSH2 0x5C JUMPI DUP1 PUSH4 0x6744BB26 EQ PUSH2 0x78 JUMPI DUP1 PUSH4 0x715018A6 EQ PUSH2 0x96 JUMPI DUP1 PUSH4 0x8DA5CB5B EQ PUSH2 0xA0 JUMPI DUP1 PUSH4 0xF2FDE38B EQ PUSH2 0xBE JUMPI JUMPDEST PUSH1 0x0 DUP1 REVERT JUMPDEST PUSH2 0x76 PUSH1 0x4 DUP1 CALLDATASIZE SUB DUP2 ADD SWAP1 PUSH2 0x71 SWAP2 SWAP1 PUSH2 0x537 JUMP JUMPDEST PUSH2 0xDA JUMP JUMPDEST STOP JUMPDEST PUSH2 0x80 PUSH2 0x29A JUMP JUMPDEST PUSH1 0x40 MLOAD PUSH2 0x8D SWAP2 SWAP1 PUSH2 0x573 JUMP JUMPDEST PUSH1 0x40 MLOAD DUP1 SWAP2 SUB SWAP1 RETURN JUMPDEST PUSH2 0x9E PUSH2 0x2BE JUMP JUMPDEST STOP JUMPDEST PUSH2 0xA8 PUSH2 0x2D2 JUMP JUMPDEST PUSH1 0x40 MLOAD PUSH2 0xB5 SWAP2 SWAP1 PUSH2 0x573 JUMP JUMPDEST PUSH1 0x40 MLOAD DUP1 SWAP2 SUB SWAP1 RETURN JUMPDEST PUSH2 0xD8 PUSH1 0x4 DUP1 CALLDATASIZE SUB DUP2 ADD SWAP1 PUSH2 0xD3 SWAP2 SWAP1 PUSH2 0x537 JUMP JUMPDEST PUSH2 0x2FB JUMP JUMPDEST STOP JUMPDEST PUSH2 0xE2 PUSH2 0x381 JUMP JUMPDEST PUSH1 0x0 DUP2 SWAP1 POP PUSH1 0x0 DUP2 PUSH20 0xFFFFFFFFFFFFFFFFFFFFFFFFFFFFFFFFFFFFFFFF AND PUSH4 0x70A08231 ADDRESS PUSH1 0x40 MLOAD DUP3 PUSH4 0xFFFFFFFF AND PUSH1 0xE0 SHL DUP2 MSTORE PUSH1 0x4 ADD PUSH2 0x122 SWAP2 SWAP1 PUSH2 0x573 JUMP JUMPDEST PUSH1 0x20 PUSH1 0x40 MLOAD DUP1 DUP4 SUB DUP2 DUP7 GAS STATICCALL ISZERO DUP1 ISZERO PUSH2 0x13F JUMPI RETURNDATASIZE PUSH1 0x0 DUP1 RETURNDATACOPY RETURNDATASIZE PUSH1 0x0 REVERT JUMPDEST POP POP POP POP PUSH1 0x40 MLOAD RETURNDATASIZE PUSH1 0x1F NOT PUSH1 0x1F DUP3 ADD AND DUP3 ADD DUP1 PUSH1 0x40 MSTORE POP DUP2 ADD SWAP1 PUSH2 0x163 SWAP2 SWAP1 PUSH2 0x5C4 JUMP JUMPDEST SWAP1 POP PUSH1 0x0 DUP2 GT PUSH2 0x1A8 JUMPI PUSH1 0x40 MLOAD PUSH32 0x8C379A000000000000000000000000000000000000000000000000000000000 DUP2 MSTORE PUSH1 0x4 ADD PUSH2 0x19F SWAP1 PUSH2 0x64E JUMP JUMPDEST PUSH1 0x40 MLOAD DUP1 SWAP2 SUB SWAP1 REVERT JUMPDEST DUP2 PUSH20 0xFFFFFFFFFFFFFFFFFFFFFFFFFFFFFFFFFFFFFFFF AND PUSH4 0xA9059CBB PUSH32 0x0 DUP4 PUSH1 0x40 MLOAD DUP4 PUSH4 0xFFFFFFFF AND PUSH1 0xE0 SHL DUP2 MSTORE PUSH1 0x4 ADD PUSH2 0x203 SWAP3 SWAP2 SWAP1 PUSH2 0x67D JUMP JUMPDEST PUSH1 0x20 PUSH1 0x40 MLOAD DUP1 DUP4 SUB DUP2 PUSH1 0x0 DUP8 GAS CALL ISZERO DUP1 ISZERO PUSH2 0x222 JUMPI RETURNDATASIZE PUSH1 0x0 DUP1 RETURNDATACOPY RETURNDATASIZE PUSH1 0x0 REVERT JUMPDEST POP POP POP POP PUSH1 0x40 MLOAD RETURNDATASIZE PUSH1 0x1F NOT PUSH1 0x1F DUP3 ADD AND DUP3 ADD DUP1 PUSH1 0x40 MSTORE POP DUP2 ADD SWAP1 PUSH2 0x246 SWAP2 SWAP1 PUSH2 0x6DE JUMP JUMPDEST POP DUP3 PUSH20 0xFFFFFFFFFFFFFFFFFFFFFFFFFFFFFFFFFFFFFFFF AND PUSH32 0xC36B5179CB9C303B200074996EAB2B3473EAC370FDD7EBA3BEC636FE35109696 DUP3 PUSH1 0x40 MLOAD PUSH2 0x28D SWAP2 SWAP1 PUSH2 0x70B JUMP JUMPDEST PUSH1 0x40 MLOAD DUP1 SWAP2 SUB SWAP1 LOG2 POP POP POP JUMP JUMPDEST PUSH32 0x0 DUP2 JUMP JUMPDEST PUSH2 0x2C6 PUSH2 0x381 JUMP JUMPDEST PUSH2 0x2D0 PUSH1 0x0 PUSH2 0x408 JUMP JUMPDEST JUMP JUMPDEST PUSH1 0x0 DUP1 PUSH1 0x0 SWAP1 SLOAD SWAP1 PUSH2 0x100 EXP SWAP1 DIV PUSH20 0xFFFFFFFFFFFFFFFFFFFFFFFFFFFFFFFFFFFFFFFF AND SWAP1 POP SWAP1 JUMP JUMPDEST PUSH2 0x303 PUSH2 0x381 JUMP JUMPDEST PUSH1 0x0 PUSH20 0xFFFFFFFFFFFFFFFFFFFFFFFFFFFFFFFFFFFFFFFF AND DUP2 PUSH20 0xFFFFFFFFFFFFFFFFFFFFFFFFFFFFFFFFFFFFFFFF AND SUB PUSH2 0x375 JUMPI PUSH1 0x0 PUSH1 0x40 MLOAD PUSH32 0x1E4FBDF700000000000000000000000000000000000000000000000000000000 DUP2 MSTORE PUSH1 0x4 ADD PUSH2 0x36C SWAP2 SWAP1 PUSH2 0x573 JUMP JUMPDEST PUSH1 0x40 MLOAD DUP1 SWAP2 SUB SWAP1 REVERT JUMPDEST PUSH2 0x37E DUP2 PUSH2 0x408 JUMP JUMPDEST POP JUMP JUMPDEST PUSH2 0x389 PUSH2 0x4CC JUMP JUMPDEST PUSH20 0xFFFFFFFFFFFFFFFFFFFFFFFFFFFFFFFFFFFFFFFF AND PUSH2 0x3A7 PUSH2 0x2D2 JUMP JUMPDEST PUSH20 0xFFFFFFFFFFFFFFFFFFFFFFFFFFFFFFFFFFFFFFFF AND EQ PUSH2 0x406 JUMPI PUSH2 0x3CA PUSH2 0x4CC JUMP JUMPDEST PUSH1 0x40 MLOAD PUSH32 0x118CDAA700000000000000000000000000000000000000000000000000000000 DUP2 MSTORE PUSH1 0x4 ADD PUSH2 0x3FD SWAP2 SWAP1 PUSH2 0x573 JUMP JUMPDEST PUSH1 0x40 MLOAD DUP1 SWAP2 SUB SWAP1 REVERT JUMPDEST JUMP JUMPDEST PUSH1 0x0 DUP1 PUSH1 0x0 SWAP1 SLOAD SWAP1 PUSH2 0x100 EXP SWAP1 DIV PUSH20 0xFFFFFFFFFFFFFFFFFFFFFFFFFFFFFFFFFFFFFFFF AND SWAP1 POP DUP2 PUSH1 0x0 DUP1 PUSH2 0x100 EXP DUP2 SLOAD DUP2 PUSH20 0xFFFFFFFFFFFFFFFFFFFFFFFFFFFFFFFFFFFFFFFF MUL NOT AND SWAP1 DUP4 PUSH20 0xFFFFFFFFFFFFFFFFFFFFFFFFFFFFFFFFFFFFFFFF AND MUL OR SWAP1 SSTORE POP DUP2 PUSH20 0xFFFFFFFFFFFFFFFFFFFFFFFFFFFFFFFFFFFFFFFF AND DUP2 PUSH20 0xFFFFFFFFFFFFFFFFFFFFFFFFFFFFFFFFFFFFFFFF AND PUSH32 0x8BE0079C531659141344CD1FD0A4F28419497F9722A3DAAFE3B4186F6B6457E0 PUSH1 0x40 MLOAD PUSH1 0x40 MLOAD DUP1 SWAP2 SUB SWAP1 LOG3 POP POP JUMP JUMPDEST PUSH1 0x0 CALLER SWAP1 POP SWAP1 JUMP JUMPDEST PUSH1 0x0 DUP1 REVERT JUMPDEST PUSH1 0x0 PUSH20 0xFFFFFFFFFFFFFFFFFFFFFFFFFFFFFFFFFFFFFFFF DUP3 AND SWAP1 POP SWAP2 SWAP1 POP JUMP JUMPDEST PUSH1 0x0 PUSH2 0x504 DUP3 PUSH2 0x4D9 JUMP JUMPDEST SWAP1 POP SWAP2 SWAP1 POP JUMP JUMPDEST PUSH2 0x514 DUP2 PUSH2 0x4F9 JUMP JUMPDEST DUP2 EQ PUSH2 0x51F JUMPI PUSH1 0x0 DUP1 REVERT JUMPDEST POP JUMP JUMPDEST PUSH1 0x0 DUP2 CALLDATALOAD SWAP1 POP PUSH2 0x531 DUP2 PUSH2 0x50B JUMP JUMPDEST SWAP3 SWAP2 POP POP JUMP JUMPDEST PUSH1 0x0 PUSH1 0x20 DUP3 DUP5 SUB SLT ISZERO PUSH2 0x54D JUMPI PUSH2 0x54C PUSH2 0x4D4 JUMP JUMPDEST JUMPDEST PUSH1 0x0 PUSH2 0x55B DUP5 DUP3 DUP6 ADD PUSH2 0x522 JUMP JUMPDEST SWAP2 POP POP SWAP3 SWAP2 POP POP JUMP JUMPDEST PUSH2 0x56D DUP2 PUSH2 0x4F9 JUMP JUMPDEST DUP3 MSTORE POP POP JUMP JUMPDEST PUSH1 0x0 PUSH1 0x20 DUP3 ADD SWAP1 POP PUSH2 0x588 PUSH1 0x0 DUP4 ADD DUP5 PUSH2 0x564 JUMP JUMPDEST SWAP3 SWAP2 POP POP JUMP JUMPDEST PUSH1 0x0 DUP2 SWAP1 POP SWAP2 SWAP1 POP JUMP JUMPDEST PUSH2 0x5A1 DUP2 PUSH2 0x58E JUMP JUMPDEST DUP2 EQ PUSH2 0x5AC JUMPI PUSH1 0x0 DUP1 REVERT JUMPDEST POP JUMP JUMPDEST PUSH1 0x0 DUP2 MLOAD SWAP1 POP PUSH2 0x5BE DUP2 PUSH2 0x598 JUMP JUMPDEST SWAP3 SWAP2 POP POP JUMP JUMPDEST PUSH1 0x0 PUSH1 0x20 DUP3 DUP5 SUB SLT ISZERO PUSH2 0x5DA JUMPI PUSH2 0x5D9 PUSH2 0x4D4 JUMP JUMPDEST JUMPDEST PUSH1 0x0 PUSH2 0x5E8 DUP5 DUP3 DUP6 ADD PUSH2 0x5AF JUMP JUMPDEST SWAP2 POP POP SWAP3 SWAP2 POP POP JUMP JUMPDEST PUSH1 0x0 DUP3 DUP3 MSTORE PUSH1 0x20 DUP3 ADD SWAP1 POP SWAP3 SWAP2 POP POP JUMP JUMPDEST PUSH32 0x53616C646F204B6F736F6E670000000000000000000000000000000000000000 PUSH1 0x0 DUP3 ADD MSTORE POP JUMP JUMPDEST PUSH1 0x0 PUSH2 0x638 PUSH1 0xC DUP4 PUSH2 0x5F1 JUMP JUMPDEST SWAP2 POP PUSH2 0x643 DUP3 PUSH2 0x602 JUMP JUMPDEST PUSH1 0x20 DUP3 ADD SWAP1 POP SWAP2 SWAP1 POP JUMP JUMPDEST PUSH1 0x0 PUSH1 0x20 DUP3 ADD SWAP1 POP DUP2 DUP2 SUB PUSH1 0x0 DUP4 ADD MSTORE PUSH2 0x667 DUP2 PUSH2 0x62B JUMP JUMPDEST SWAP1 POP SWAP2 SWAP1 POP JUMP JUMPDEST PUSH2 0x677 DUP2 PUSH2 0x58E JUMP JUMPDEST DUP3 MSTORE POP POP JUMP JUMPDEST PUSH1 0x0 PUSH1 0x40 DUP3 ADD SWAP1 POP PUSH2 0x692 PUSH1 0x0 DUP4 ADD DUP6 PUSH2 0x564 JUMP JUMPDEST PUSH2 0x69F PUSH1 0x20 DUP4 ADD DUP5 PUSH2 0x66E JUMP JUMPDEST SWAP4 SWAP3 POP POP POP JUMP JUMPDEST PUSH1 0x0 DUP2 ISZERO ISZERO SWAP1 POP SWAP2 SWAP1 POP JUMP JUMPDEST PUSH2 0x6BB DUP2 PUSH2 0x6A6 JUMP JUMPDEST DUP2 EQ PUSH2 0x6C6 JUMPI PUSH1 0x0 DUP1 REVERT JUMPDEST POP JUMP JUMPDEST PUSH1 0x0 DUP2 MLOAD SWAP1 POP PUSH2 0x6D8 DUP2 PUSH2 0x6B2 JUMP JUMPDEST SWAP3 SWAP2 POP POP JUMP JUMPDEST PUSH1 0x0 PUSH1 0x20 DUP3 DUP5 SUB SLT ISZERO PUSH2 0x6F4 JUMPI PUSH2 0x6F3 PUSH2 0x4D4 JUMP JUMPDEST JUMPDEST PUSH1 0x0 PUSH2 0x702 DUP5 DUP3 DUP6 ADD PUSH2 0x6C9 JUMP JUMPDEST SWAP2 POP POP SWAP3 SWAP2 POP POP JUMP JUMPDEST PUSH1 0x0 PUSH1 0x20 DUP3 ADD SWAP1 POP PUSH2 0x720 PUSH1 0x0 DUP4 ADD DUP5 PUSH2 0x66E JUMP JUMPDEST SWAP3 SWAP2 POP POP JUMP INVALID LOG2 PUSH5 0x6970667358 0x22 SLT KECCAK256 0xD1 EXP 0xAC MSTORE8 INVALID PUSH21 0x639EA979231E9F700D47069D9DFD3E013E07C4FC3 PUSH32 0x2B2E105A64736F6C634300081A0033A2646970667358221220B272221396DE5A DUP5 SWAP9 CALLER SWAP16 0x2C CALLDATASIZE DUP7 0xB8 PUSH18 0xE5107894462476D10EB1034F8921EE756473 PUSH16 0x6C634300081A00330000000000000000 "},"methodIdentifiers":{"coldWallet()":"6be13c92","deployVault(bytes32,address)":"e058beea","getVaultAddress(bytes32,address)":"01ac60e8"}}}}}