{"contracts/LokaMockEcosystem.sol":{"SimpleSwapRouter":{"abi":[{"inputs":[{"internalType":"address","name":"_usdc","type":"address"},{"internalType":"address","name":"_idrx","type":"address"},{"internalType":"address","name":"_oracle","type":"address"}],"stateMutability":"nonpayable","type":"constructor"},{"inputs":[],"name":"idrx","outputs":[{"internalType":"contract IERC20","name":"","type":"address"}],"stateMutability":"view","type":"function"},{"inputs":[],"name":"oracle","outputs":[{"internalType":"contract MockOracle","name":"","type":"address"}],"stateMutability":"view","type":"function"},{"inputs":[{"internalType":"uint256","name":"amountIn","type":"uint256"},{"internalType":"uint256","name":"amountOutMin","type":"uint256"},{"internalType":"address","name":"to","type":"address"}],"name":"swapExactTokensForTokens","outputs":[{"internalType":"uint256[]","name":"amounts","type":"uint256[]"}],"stateMutability":"nonpayable","type":"function"},{"inputs":[],"name":"usdc","outputs":[{"internalType":"contract IERC20","name":"","type":"address"}],"stateMutability":"view","type":"function"}],"evm":{"bytecode":{"linkReferences":{},"object":"608060405234801561001057600080fd5b50604051610eb5380380610eb58339818101604052810190610032919061015f565b826000806101000a81548173ffffffffffffffffffffffffffffffffffffffff021916908373ffffffffffffffffffffffffffffffffffffffff16021790555081600160006101000a81548173ffffffffffffffffffffffffffffffffffffffff021916908373ffffffffffffffffffffffffffffffffffffffff16021790555080600260006101000a81548173ffffffffffffffffffffffffffffffffffffffff021916908373ffffffffffffffffffffffffffffffffffffffff1602179055505050506101b2565b600080fd5b600073ffffffffffffffffffffffffffffffffffffffff82169050919050565b600061012c82610101565b9050919050565b61013c81610121565b811461014757600080fd5b50565b60008151905061015981610133565b92915050565b600080600060608486031215610178576101776100fc565b5b60006101868682870161014a565b93505060206101978682870161014a565b92505060406101a88682870161014a565b9150509250925092565b610cf4806101c16000396000f3fe608060405234801561001057600080fd5b506004361061004c5760003560e01c80633e413bee146100515780636e17e9f61461006f5780637dc0d1d01461009f578063e172c609146100bd575b600080fd5b6100596100db565b60405161006691906105f8565b60405180910390f35b6100896004803603810190610084919061068c565b6100ff565b604051610096919061079d565b60405180910390f35b6100a761052d565b6040516100b491906107e0565b60405180910390f35b6100c5610553565b6040516100d291906105f8565b60405180910390f35b60008054906101000a900473ffffffffffffffffffffffffffffffffffffffff1681565b60606000600260009054906101000a900473ffffffffffffffffffffffffffffffffffffffff1673ffffffffffffffffffffffffffffffffffffffff1663feaf968c6040518163ffffffff1660e01b815260040160a060405180830381865afa158015610170573d6000803e3d6000fd5b505050506040513d601f19601f820116820180604052508101906101949190610888565b505050915050600061271082876101ab9190610932565b6101b59190610932565b9050848110156101fa576040517f08c379a00000000000000000000000000000000000000000000000000000000081526004016101f1906109d1565b60405180910390fd5b60008054906101000a900473ffffffffffffffffffffffffffffffffffffffff1673ffffffffffffffffffffffffffffffffffffffff166323b872dd3330896040518463ffffffff1660e01b815260040161025793929190610a0f565b6020604051808303816000875af1158015610276573d6000803e3d6000fd5b505050506040513d601f19601f8201168201806040525081019061029a9190610a7e565b6102d9576040517f08c379a00000000000000000000000000000000000000000000000000000000081526004016102d090610af7565b60405180910390fd5b80600160009054906101000a900473ffffffffffffffffffffffffffffffffffffffff1673ffffffffffffffffffffffffffffffffffffffff166370a08231306040518263ffffffff1660e01b81526004016103359190610b17565b602060405180830381865afa158015610352573d6000803e3d6000fd5b505050506040513d601f19601f820116820180604052508101906103769190610b32565b10156103b7576040517f08c379a00000000000000000000000000000000000000000000000000000000081526004016103ae90610bab565b60405180910390fd5b600160009054906101000a900473ffffffffffffffffffffffffffffffffffffffff1673ffffffffffffffffffffffffffffffffffffffff1663a9059cbb85836040518363ffffffff1660e01b8152600401610414929190610bcb565b6020604051808303816000875af1158015610433573d6000803e3d6000fd5b505050506040513d601f19601f820116820180604052508101906104579190610a7e565b610496576040517f08c379a000000000000000000000000000000000000000000000000000000000815260040161048d90610c40565b60405180910390fd5b600267ffffffffffffffff8111156104b1576104b0610c60565b5b6040519080825280602002602001820160405280156104df5781602001602082028036833780820191505090505b50925085836000815181106104f7576104f6610c8f565b5b602002602001018181525050808360018151811061051857610517610c8f565b5b60200260200101818152505050509392505050565b600260009054906101000a900473ffffffffffffffffffffffffffffffffffffffff1681565b600160009054906101000a900473ffffffffffffffffffffffffffffffffffffffff1681565b600073ffffffffffffffffffffffffffffffffffffffff82169050919050565b6000819050919050565b60006105be6105b96105b484610579565b610599565b610579565b9050919050565b60006105d0826105a3565b9050919050565b60006105e2826105c5565b9050919050565b6105f2816105d7565b82525050565b600060208201905061060d60008301846105e9565b92915050565b600080fd5b6000819050919050565b61062b81610618565b811461063657600080fd5b50565b60008135905061064881610622565b92915050565b600061065982610579565b9050919050565b6106698161064e565b811461067457600080fd5b50565b60008135905061068681610660565b92915050565b6000806000606084860312156106a5576106a4610613565b5b60006106b386828701610639565b93505060206106c486828701610639565b92505060406106d586828701610677565b9150509250925092565b600081519050919050565b600082825260208201905092915050565b6000819050602082019050919050565b61071481610618565b82525050565b6000610726838361070b565b60208301905092915050565b6000602082019050919050565b600061074a826106df565b61075481856106ea565b935061075f836106fb565b8060005b83811015610790578151610777888261071a565b975061078283610732565b925050600181019050610763565b5085935050505092915050565b600060208201905081810360008301526107b7818461073f565b905092915050565b60006107ca826105c5565b9050919050565b6107da816107bf565b82525050565b60006020820190506107f560008301846107d1565b92915050565b600069ffffffffffffffffffff82169050919050565b61081a816107fb565b811461082557600080fd5b50565b60008151905061083781610811565b92915050565b6000819050919050565b6108508161083d565b811461085b57600080fd5b50565b60008151905061086d81610847565b92915050565b60008151905061088281610622565b92915050565b600080600080600060a086880312156108a4576108a3610613565b5b60006108b288828901610828565b95505060206108c38882890161085e565b94505060406108d488828901610873565b93505060606108e588828901610873565b92505060806108f688828901610828565b9150509295509295909350565b7f4e487b7100000000000000000000000000000000000000000000000000000000600052601160045260246000fd5b600061093d82610618565b915061094883610618565b925082820261095681610618565b9150828204841483151761096d5761096c610903565b5b5092915050565b600082825260208201905092915050565b7f536c69707061676520746f6f2068696768000000000000000000000000000000600082015250565b60006109bb601183610974565b91506109c682610985565b602082019050919050565b600060208201905081810360008301526109ea816109ae565b9050919050565b6109fa8161064e565b82525050565b610a0981610618565b82525050565b6000606082019050610a2460008301866109f1565b610a3160208301856109f1565b610a3e6040830184610a00565b949350505050565b60008115159050919050565b610a5b81610a46565b8114610a6657600080fd5b50565b600081519050610a7881610a52565b92915050565b600060208284031215610a9457610a93610613565b5b6000610aa284828501610a69565b91505092915050565b7f5472616e736665722055534443204661696c6564000000000000000000000000600082015250565b6000610ae1601483610974565b9150610aec82610aab565b602082019050919050565b60006020820190508181036000830152610b1081610ad4565b9050919050565b6000602082019050610b2c60008301846109f1565b92915050565b600060208284031215610b4857610b47610613565b5b6000610b5684828501610873565b91505092915050565b7f526f75746572204c6f77204c6971756964697479000000000000000000000000600082015250565b6000610b95601483610974565b9150610ba082610b5f565b602082019050919050565b60006020820190508181036000830152610bc481610b88565b9050919050565b6000604082019050610be060008301856109f1565b610bed6020830184610a00565b9392505050565b7f5472616e736665722049445258204661696c6564000000000000000000000000600082015250565b6000610c2a601483610974565b9150610c3582610bf4565b602082019050919050565b60006020820190508181036000830152610c5981610c1d565b9050919050565b7f4e487b7100000000000000000000000000000000000000000000000000000000600052604160045260246000fd5b7f4e487b7100000000000000000000000000000000000000000000000000000000600052603260045260246000fdfea2646970667358221220e04304626242cf9b29b053f97f724967f6afbd11d324f8c174ed6345aa18027b64736f6c634300081a0033","opcodes":"PUSH1 0x80 PUSH1 0x40 MSTORE CALLVALUE DUP1 ISZERO PUSH2 0x10 JUMPI PUSH1 0x0 DUP1 REVERT JUMPDEST POP PUSH1 0x40 MLOAD PUSH2 0xEB5 CODESIZE SUB DUP1 PUSH2 0xEB5 DUP4 CODECOPY DUP2 DUP2 ADD PUSH1 0x40 MSTORE DUP2 ADD SWAP1 PUSH2 0x32 SWAP2 SWAP1 PUSH2 0x15F JUMP JUMPDEST DUP3 PUSH1 0x0 DUP1 PUSH2 0x100 EXP DUP2 SLOAD DUP2 PUSH20 0xFFFFFFFFFFFFFFFFFFFFFFFFFFFFFFFFFFFFFFFF MUL NOT AND SWAP1 DUP4 PUSH20 0xFFFFFFFFFFFFFFFFFFFFFFFFFFFFFFFFFFFFFFFF AND MUL OR SWAP1 SSTORE POP DUP2 PUSH1 0x1 PUSH1 0x0 PUSH2 0x100 EXP DUP2 SLOAD DUP2 PUSH20 0xFFFFFFFFFFFFFFFFFFFFFFFFFFFFFFFFFFFFFFFF MUL NOT AND SWAP1 DUP4 PUSH20 0xFFFFFFFFFFFFFFFFFFFFFFFFFFFFFFFFFFFFFFFF AND MUL OR SWAP1 SSTORE POP DUP1 PUSH1 0x2 PUSH1 0x0 PUSH2 0x100 EXP DUP2 SLOAD DUP2 PUSH20 0xFFFFFFFFFFFFFFFFFFFFFFFFFFFFFFFFFFFFFFFF MUL NOT AND SWAP1 DUP4 PUSH20 0xFFFFFFFFFFFFFFFFFFFFFFFFFFFFFFFFFFFFFFFF AND MUL OR SWAP1 SSTORE POP POP POP POP PUSH2 0x1B2 JUMP JUMPDEST PUSH1 0x0 DUP1 REVERT JUMPDEST PUSH1 0x0 PUSH20 0xFFFFFFFFFFFFFFFFFFFFFFFFFFFFFFFFFFFFFFFF DUP3 AND SWAP1 POP SWAP2 SWAP1 POP JUMP JUMPDEST PUSH1 0x0 PUSH2 0x12C DUP3 PUSH2 0x101 JUMP JUMPDEST SWAP1 POP SWAP2 SWAP1 POP JUMP JUMPDEST PUSH2 0x13C DUP2 PUSH2 0x121 JUMP JUMPDEST DUP2 EQ PUSH2 0x147 JUMPI PUSH1 0x0 DUP1 REVERT JUMPDEST POP JUMP JUMPDEST PUSH1 0x0 DUP2 MLOAD SWAP1 POP PUSH2 0x159 DUP2 PUSH2 0x133 JUMP JUMPDEST SWAP3 SWAP2 POP POP JUMP JUMPDEST PUSH1 0x0 DUP1 PUSH1 0x0 PUSH1 0x60 DUP5 DUP7 SUB SLT ISZERO PUSH2 0x178 JUMPI PUSH2 0x177 PUSH2 0xFC JUMP JUMPDEST JUMPDEST PUSH1 0x0 PUSH2 0x186 DUP7 DUP3 DUP8 ADD PUSH2 0x14A JUMP JUMPDEST SWAP4 POP POP PUSH1 0x20 PUSH2 0x197 DUP7 DUP3 DUP8 ADD PUSH2 0x14A JUMP JUMPDEST SWAP3 POP POP PUSH1 0x40 PUSH2 0x1A8 DUP7 DUP3 DUP8 ADD PUSH2 0x14A JUMP JUMPDEST SWAP2 POP POP SWAP3 POP SWAP3 POP SWAP3 JUMP JUMPDEST PUSH2 0xCF4 DUP1 PUSH2 0x1C1 PUSH1 0x0 CODECOPY PUSH1 0x0 RETURN INVALID PUSH1 0x80 PUSH1 0x40 MSTORE CALLVALUE DUP1 ISZERO PUSH2 0x10 JUMPI PUSH1 0x0 DUP1 REVERT JUMPDEST POP PUSH1 0x4 CALLDATASIZE LT PUSH2 0x4C JUMPI PUSH1 0x0 CALLDATALOAD PUSH1 0xE0 SHR DUP1 PUSH4 0x3E413BEE EQ PUSH2 0x51 JUMPI DUP1 PUSH4 0x6E17E9F6 EQ PUSH2 0x6F JUMPI DUP1 PUSH4 0x7DC0D1D0 EQ PUSH2 0x9F JUMPI DUP1 PUSH4 0xE172C609 EQ PUSH2 0xBD JUMPI JUMPDEST PUSH1 0x0 DUP1 REVERT JUMPDEST PUSH2 0x59 PUSH2 0xDB JUMP JUMPDEST PUSH1 0x40 MLOAD PUSH2 0x66 SWAP2 SWAP1 PUSH2 0x5F8 JUMP JUMPDEST PUSH1 0x40 MLOAD DUP1 SWAP2 SUB SWAP1 RETURN JUMPDEST PUSH2 0x89 PUSH1 0x4 DUP1 CALLDATASIZE SUB DUP2 ADD SWAP1 PUSH2 0x84 SWAP2 SWAP1 PUSH2 0x68C JUMP JUMPDEST PUSH2 0xFF JUMP JUMPDEST PUSH1 0x40 MLOAD PUSH2 0x96 SWAP2 SWAP1 PUSH2 0x79D JUMP JUMPDEST PUSH1 0x40 MLOAD DUP1 SWAP2 SUB SWAP1 RETURN JUMPDEST PUSH2 0xA7 PUSH2 0x52D JUMP JUMPDEST PUSH1 0x40 MLOAD PUSH2 0xB4 SWAP2 SWAP1 PUSH2 0x7E0 JUMP JUMPDEST PUSH1 0x40 MLOAD DUP1 SWAP2 SUB SWAP1 RETURN JUMPDEST PUSH2 0xC5 PUSH2 0x553 JUMP JUMPDEST PUSH1 0x40 MLOAD PUSH2 0xD2 SWAP2 SWAP1 PUSH2 0x5F8 JUMP JUMPDEST PUSH1 0x40 MLOAD DUP1 SWAP2 SUB SWAP1 RETURN JUMPDEST PUSH1 0x0 DUP1 SLOAD SWAP1 PUSH2 0x100 EXP SWAP1 DIV PUSH20 0xFFFFFFFFFFFFFFFFFFFFFFFFFFFFFFFFFFFFFFFF AND DUP2 JUMP JUMPDEST PUSH1 0x60 PUSH1 0x0 PUSH1 0x2 PUSH1 0x0 SWAP1 SLOAD SWAP1 PUSH2 0x100 EXP SWAP1 DIV PUSH20 0xFFFFFFFFFFFFFFFFFFFFFFFFFFFFFFFFFFFFFFFF AND PUSH20 0xFFFFFFFFFFFFFFFFFFFFFFFFFFFFFFFFFFFFFFFF AND PUSH4 0xFEAF968C PUSH1 0x40 MLOAD DUP2 PUSH4 0xFFFFFFFF AND PUSH1 0xE0 SHL DUP2 MSTORE PUSH1 0x4 ADD PUSH1 0xA0 PUSH1 0x40 MLOAD DUP1 DUP4 SUB DUP2 DUP7 GAS STATICCALL ISZERO DUP1 ISZERO PUSH2 0x170 JUMPI RETURNDATASIZE PUSH1 0x0 DUP1 RETURNDATACOPY RETURNDATASIZE PUSH1 0x0 REVERT JUMPDEST POP POP POP POP PUSH1 0x40 MLOAD RETURNDATASIZE PUSH1 0x1F NOT PUSH1 0x1F DUP3 ADD AND DUP3 ADD DUP1 PUSH1 0x40 MSTORE POP DUP2 ADD SWAP1 PUSH2 0x194 SWAP2 SWAP1 PUSH2 0x888 JUMP JUMPDEST POP POP POP SWAP2 POP POP PUSH1 0x0 PUSH2 0x2710 DUP3 DUP8 PUSH2 0x1AB SWAP2 SWAP1 PUSH2 0x932 JUMP JUMPDEST PUSH2 0x1B5 SWAP2 SWAP1 PUSH2 0x932 JUMP JUMPDEST SWAP1 POP DUP5 DUP2 LT ISZERO PUSH2 0x1FA JUMPI PUSH1 0x40 MLOAD PUSH32 0x8C379A000000000000000000000000000000000000000000000000000000000 DUP2 MSTORE PUSH1 0x4 ADD PUSH2 0x1F1 SWAP1 PUSH2 0x9D1 JUMP JUMPDEST PUSH1 0x40 MLOAD DUP1 SWAP2 SUB SWAP1 REVERT JUMPDEST PUSH1 0x0 DUP1 SLOAD SWAP1 PUSH2 0x100 EXP SWAP1 DIV PUSH20 0xFFFFFFFFFFFFFFFFFFFFFFFFFFFFFFFFFFFFFFFF AND PUSH20 0xFFFFFFFFFFFFFFFFFFFFFFFFFFFFFFFFFFFFFFFF AND PUSH4 0x23B872DD CALLER ADDRESS DUP10 PUSH1 0x40 MLOAD DUP5 PUSH4 0xFFFFFFFF AND PUSH1 0xE0 SHL DUP2 MSTORE PUSH1 0x4 ADD PUSH2 0x257 SWAP4 SWAP3 SWAP2 SWAP1 PUSH2 0xA0F JUMP JUMPDEST PUSH1 0x20 PUSH1 0x40 MLOAD DUP1 DUP4 SUB DUP2 PUSH1 0x0 DUP8 GAS CALL ISZERO DUP1 ISZERO PUSH2 0x276 JUMPI RETURNDATASIZE PUSH1 0x0 DUP1 RETURNDATACOPY RETURNDATASIZE PUSH1 0x0 REVERT JUMPDEST POP POP POP POP PUSH1 0x40 MLOAD RETURNDATASIZE PUSH1 0x1F NOT PUSH1 0x1F DUP3 ADD AND DUP3 ADD DUP1 PUSH1 0x40 MSTORE POP DUP2 ADD SWAP1 PUSH2 0x29A SWAP2 SWAP1 PUSH2 0xA7E JUMP JUMPDEST PUSH2 0x2D9 JUMPI PUSH1 0x40 MLOAD PUSH32 0x8C379A000000000000000000000000000000000000000000000000000000000 DUP2 MSTORE PUSH1 0x4 ADD PUSH2 0x2D0 SWAP1 PUSH2 0xAF7 JUMP JUMPDEST PUSH1 0x40 MLOAD DUP1 SWAP2 SUB SWAP1 REVERT JUMPDEST DUP1 PUSH1 0x1 PUSH1 0x0 SWAP1 SLOAD SWAP1 PUSH2 0x100 EXP SWAP1 DIV PUSH20 0xFFFFFFFFFFFFFFFFFFFFFFFFFFFFFFFFFFFFFFFF AND PUSH20 0xFFFFFFFFFFFFFFFFFFFFFFFFFFFFFFFFFFFFFFFF AND PUSH4 0x70A08231 ADDRESS PUSH1 0x40 MLOAD DUP3 PUSH4 0xFFFFFFFF AND PUSH1 0xE0 SHL DUP2 MSTORE PUSH1 0x4 ADD PUSH2 0x335 SWAP2 SWAP1 PUSH2 0xB17 JUMP JUMPDEST PUSH1 0x20 PUSH1 0x40 MLOAD DUP1 DUP4 SUB DUP2 DUP7 GAS STATICCALL ISZERO DUP1 ISZERO PUSH2 0x352 JUMPI RETURNDATASIZE PUSH1 0x0 DUP1 RETURNDATACOPY RETURNDATASIZE PUSH1 0x0 REVERT JUMPDEST POP POP POP POP PUSH1 0x40 MLOAD RETURNDATASIZE PUSH1 0x1F NOT PUSH1 0x1F DUP3 ADD AND DUP3 ADD DUP1 PUSH1 0x40 MSTORE POP DUP2 ADD SWAP1 PUSH2 0x376 SWAP2 SWAP1 PUSH2 0xB32 JUMP JUMPDEST LT ISZERO PUSH2 0x3B7 JUMPI PUSH1 0x40 MLOAD PUSH32 0x8C379A000000000000000000000000000000000000000000000000000000000 DUP2 MSTORE PUSH1 0x4 ADD PUSH2 0x3AE SWAP1 PUSH2 0xBAB JUMP JUMPDEST PUSH1 0x40 MLOAD DUP1 SWAP2 SUB SWAP1 REVERT JUMPDEST PUSH1 0x1 PUSH1 0x0 SWAP1 SLOAD SWAP1 PUSH2 0x100 EXP SWAP1 DIV PUSH20 0xFFFFFFFFFFFFFFFFFFFFFFFFFFFFFFFFFFFFFFFF AND PUSH20 0xFFFFFFFFFFFFFFFFFFFFFFFFFFFFFFFFFFFFFFFF AND PUSH4 0xA9059CBB DUP6 DUP4 PUSH1 0x40 MLOAD DUP4 PUSH4 0xFFFFFFFF AND PUSH1 0xE0 SHL DUP2 MSTORE PUSH1 0x4 ADD PUSH2 0x414 SWAP3 SWAP2 SWAP1 PUSH2 0xBCB JUMP JUMPDEST PUSH1 0x20 PUSH1 0x40 MLOAD DUP1 DUP4 SUB DUP2 PUSH1 0x0 DUP8 GAS CALL ISZERO DUP1 ISZERO PUSH2 0x433 JUMPI RETURNDATASIZE PUSH1 0x0 DUP1 RETURNDATACOPY RETURNDATASIZE PUSH1 0x0 REVERT JUMPDEST POP POP POP POP PUSH1 0x40 MLOAD RETURNDATASIZE PUSH1 0x1F NOT PUSH1 0x1F DUP3 ADD AND DUP3 ADD DUP1 PUSH1 0x40 MSTORE POP DUP2 ADD SWAP1 PUSH2 0x457 SWAP2 SWAP1 PUSH2 0xA7E JUMP JUMPDEST PUSH2 0x496 JUMPI PUSH1 0x40 MLOAD PUSH32 0x8C379A000000000000000000000000000000000000000000000000000000000 DUP2 MSTORE PUSH1 0x4 ADD PUSH2 0x48D SWAP1 PUSH2 0xC40 JUMP JUMPDEST PUSH1 0x40 MLOAD DUP1 SWAP2 SUB SWAP1 REVERT JUMPDEST PUSH1 0x2 PUSH8 0xFFFFFFFFFFFFFFFF DUP2 GT ISZERO PUSH2 0x4B1 JUMPI PUSH2 0x4B0 PUSH2 0xC60 JUMP JUMPDEST JUMPDEST PUSH1 0x40 MLOAD SWAP1 DUP1 DUP3 MSTORE DUP1 PUSH1 0x20 MUL PUSH1 0x20 ADD DUP3 ADD PUSH1 0x40 MSTORE DUP1 ISZERO PUSH2 0x4DF JUMPI DUP2 PUSH1 0x20 ADD PUSH1 0x20 DUP3 MUL DUP1 CALLDATASIZE DUP4 CALLDATACOPY DUP1 DUP3 ADD SWAP2 POP POP SWAP1 POP JUMPDEST POP SWAP3 POP DUP6 DUP4 PUSH1 0x0 DUP2 MLOAD DUP2 LT PUSH2 0x4F7 JUMPI PUSH2 0x4F6 PUSH2 0xC8F JUMP JUMPDEST JUMPDEST PUSH1 0x20 MUL PUSH1 0x20 ADD ADD DUP2 DUP2 MSTORE POP POP DUP1 DUP4 PUSH1 0x1 DUP2 MLOAD DUP2 LT PUSH2 0x518 JUMPI PUSH2 0x517 PUSH2 0xC8F JUMP JUMPDEST JUMPDEST PUSH1 0x20 MUL PUSH1 0x20 ADD ADD DUP2 DUP2 MSTORE POP POP POP POP SWAP4 SWAP3 POP POP POP JUMP JUMPDEST PUSH1 0x2 PUSH1 0x0 SWAP1 SLOAD SWAP1 PUSH2 0x100 EXP SWAP1 DIV PUSH20 0xFFFFFFFFFFFFFFFFFFFFFFFFFFFFFFFFFFFFFFFF AND DUP2 JUMP JUMPDEST PUSH1 0x1 PUSH1 0x0 SWAP1 SLOAD SWAP1 PUSH2 0x100 EXP SWAP1 DIV PUSH20 0xFFFFFFFFFFFFFFFFFFFFFFFFFFFFFFFFFFFFFFFF AND DUP2 JUMP JUMPDEST PUSH1 0x0 PUSH20 0xFFFFFFFFFFFFFFFFFFFFFFFFFFFFFFFFFFFFFFFF DUP3 AND SWAP1 POP SWAP2 SWAP1 POP JUMP JUMPDEST PUSH1 0x0 DUP2 SWAP1 POP SWAP2 SWAP1 POP JUMP JUMPDEST PUSH1 0x0 PUSH2 0x5BE PUSH2 0x5B9 PUSH2 0x5B4 DUP5 PUSH2 0x579 JUMP JUMPDEST PUSH2 0x599 JUMP JUMPDEST PUSH2 0x579 JUMP JUMPDEST SWAP1 POP SWAP2 SWAP1 POP JUMP JUMPDEST PUSH1 0x0 PUSH2 0x5D0 DUP3 PUSH2 0x5A3 JUMP JUMPDEST SWAP1 POP SWAP2 SWAP1 POP JUMP JUMPDEST PUSH1 0x0 PUSH2 0x5E2 DUP3 PUSH2 0x5C5 JUMP JUMPDEST SWAP1 POP SWAP2 SWAP1 POP JUMP JUMPDEST PUSH2 0x5F2 DUP2 PUSH2 0x5D7 JUMP JUMPDEST DUP3 MSTORE POP POP JUMP JUMPDEST PUSH1 0x0 PUSH1 0x20 DUP3 ADD SWAP1 POP PUSH2 0x60D PUSH1 0x0 DUP4 ADD DUP5 PUSH2 0x5E9 JUMP JUMPDEST SWAP3 SWAP2 POP POP JUMP JUMPDEST PUSH1 0x0 DUP1 REVERT JUMPDEST PUSH1 0x0 DUP2 SWAP1 POP SWAP2 SWAP1 POP JUMP JUMPDEST PUSH2 0x62B DUP2 PUSH2 0x618 JUMP JUMPDEST DUP2 EQ PUSH2 0x636 JUMPI PUSH1 0x0 DUP1 REVERT JUMPDEST POP JUMP JUMPDEST PUSH1 0x0 DUP2 CALLDATALOAD SWAP1 POP PUSH2 0x648 DUP2 PUSH2 0x622 JUMP JUMPDEST SWAP3 SWAP2 POP POP JUMP JUMPDEST PUSH1 0x0 PUSH2 0x659 DUP3 PUSH2 0x579 JUMP JUMPDEST SWAP1 POP SWAP2 SWAP1 POP JUMP JUMPDEST PUSH2 0x669 DUP2 PUSH2 0x64E JUMP JUMPDEST DUP2 EQ PUSH2 0x674 JUMPI PUSH1 0x0 DUP1 REVERT JUMPDEST POP JUMP JUMPDEST PUSH1 0x0 DUP2 CALLDATALOAD SWAP1 POP PUSH2 0x686 DUP2 PUSH2 0x660 JUMP JUMPDEST SWAP3 SWAP2 POP POP JUMP JUMPDEST PUSH1 0x0 DUP1 PUSH1 0x0 PUSH1 0x60 DUP5 DUP7 SUB SLT ISZERO PUSH2 0x6A5 JUMPI PUSH2 0x6A4 PUSH2 0x613 JUMP JUMPDEST JUMPDEST PUSH1 0x0 PUSH2 0x6B3 DUP7 DUP3 DUP8 ADD PUSH2 0x639 JUMP JUMPDEST SWAP4 POP POP PUSH1 0x20 PUSH2 0x6C4 DUP7 DUP3 DUP8 ADD PUSH2 0x639 JUMP JUMPDEST SWAP3 POP POP PUSH1 0x40 PUSH2 0x6D5 DUP7 DUP3 DUP8 ADD PUSH2 0x677 JUMP JUMPDEST SWAP2 POP POP SWAP3 POP SWAP3 POP SWAP3 JUMP JUMPDEST PUSH1 0x0 DUP2 MLOAD SWAP1 POP SWAP2 SWAP1 POP JUMP JUMPDEST PUSH1 0x0 DUP3 DUP3 MSTORE PUSH1 0x20 DUP3 ADD SWAP1 POP SWAP3 SWAP2 POP POP JUMP JUMPDEST PUSH1 0x0 DUP2 SWAP1 POP PUSH1 0x20 DUP3 ADD SWAP1 POP SWAP2 SWAP1 POP JUMP JUMPDEST PUSH2 0x714 DUP2 PUSH2 0x618 JUMP JUMPDEST DUP3 MSTORE POP POP JUMP JUMPDEST PUSH1 0x0 PUSH2 0x726 DUP4 DUP4 PUSH2 0x70B JUMP JUMPDEST PUSH1 0x20 DUP4 ADD SWAP1 POP SWAP3 SWAP2 POP POP JUMP JUMPDEST PUSH1 0x0 PUSH1 0x20 DUP3 ADD SWAP1 POP SWAP2 SWAP1 POP JUMP JUMPDEST PUSH1 0x0 PUSH2 0x74A DUP3 PUSH2 0x6DF JUMP JUMPDEST PUSH2 0x754 DUP2 DUP6 PUSH2 0x6EA JUMP JUMPDEST SWAP4 POP PUSH2 0x75F DUP4 PUSH2 0x6FB JUMP JUMPDEST DUP1 PUSH1 0x0 JUMPDEST DUP4 DUP2 LT ISZERO PUSH2 0x790 JUMPI DUP2 MLOAD PUSH2 0x777 DUP9 DUP3 PUSH2 0x71A JUMP JUMPDEST SWAP8 POP PUSH2 0x782 DUP4 PUSH2 0x732 JUMP JUMPDEST SWAP3 POP POP PUSH1 0x1 DUP2 ADD SWAP1 POP PUSH2 0x763 JUMP JUMPDEST POP DUP6 SWAP4 POP POP POP POP SWAP3 SWAP2 POP POP JUMP JUMPDEST PUSH1 0x0 PUSH1 0x20 DUP3 ADD SWAP1 POP DUP2 DUP2 SUB PUSH1 0x0 DUP4 ADD MSTORE PUSH2 0x7B7 DUP2 DUP5 PUSH2 0x73F JUMP JUMPDEST SWAP1 POP SWAP3 SWAP2 POP POP JUMP JUMPDEST PUSH1 0x0 PUSH2 0x7CA DUP3 PUSH2 0x5C5 JUMP JUMPDEST SWAP1 POP SWAP2 SWAP1 POP JUMP JUMPDEST PUSH2 0x7DA DUP2 PUSH2 0x7BF JUMP JUMPDEST DUP3 MSTORE POP POP JUMP JUMPDEST PUSH1 0x0 PUSH1 0x20 DUP3 ADD SWAP1 POP PUSH2 0x7F5 PUSH1 0x0 DUP4 ADD DUP5 PUSH2 0x7D1 JUMP JUMPDEST SWAP3 SWAP2 POP POP JUMP JUMPDEST PUSH1 0x0 PUSH10 0xFFFFFFFFFFFFFFFFFFFF DUP3 AND SWAP1 POP SWAP2 SWAP1 POP JUMP JUMPDEST PUSH2 0x81A DUP2 PUSH2 0x7FB JUMP JUMPDEST DUP2 EQ PUSH2 0x825 JUMPI PUSH1 0x0 DUP1 REVERT JUMPDEST POP JUMP JUMPDEST PUSH1 0x0 DUP2 MLOAD SWAP1 POP PUSH2 0x837 DUP2 PUSH2 0x811 JUMP JUMPDEST SWAP3 SWAP2 POP POP JUMP JUMPDEST PUSH1 0x0 DUP2 SWAP1 POP SWAP2 SWAP1 POP JUMP JUMPDEST PUSH2 0x850 DUP2 PUSH2 0x83D JUMP JUMPDEST DUP2 EQ PUSH2 0x85B JUMPI PUSH1 0x0 DUP1 REVERT JUMPDEST POP JUMP JUMPDEST PUSH1 0x0 DUP2 MLOAD SWAP1 POP PUSH2 0x86D DUP2 PUSH2 0x847 JUMP JUMPDEST SWAP3 SWAP2 POP POP JUMP JUMPDEST PUSH1 0x0 DUP2 MLOAD SWAP1 POP PUSH2 0x882 DUP2 PUSH2 0x622 JUMP JUMPDEST SWAP3 SWAP2 POP POP JUMP JUMPDEST PUSH1 0x0 DUP1 PUSH1 0x0 DUP1 PUSH1 0x0 PUSH1 0xA0 DUP7 DUP9 SUB SLT ISZERO PUSH2 0x8A4 JUMPI PUSH2 0x8A3 PUSH2 0x613 JUMP JUMPDEST JUMPDEST PUSH1 0x0 PUSH2 0x8B2 DUP9 DUP3 DUP10 ADD PUSH2 0x828 JUMP JUMPDEST SWAP6 POP POP PUSH1 0x20 PUSH2 0x8C3 DUP9 DUP3 DUP10 ADD PUSH2 0x85E JUMP JUMPDEST SWAP5 POP POP PUSH1 0x40 PUSH2 0x8D4 DUP9 DUP3 DUP10 ADD PUSH2 0x873 JUMP JUMPDEST SWAP4 POP POP PUSH1 0x60 PUSH2 0x8E5 DUP9 DUP3 DUP10 ADD PUSH2 0x873 JUMP JUMPDEST SWAP3 POP POP PUSH1 0x80 PUSH2 0x8F6 DUP9 DUP3 DUP10 ADD PUSH2 0x828 JUMP JUMPDEST SWAP2 POP POP SWAP3 SWAP6 POP SWAP3 SWAP6 SWAP1 SWAP4 POP JUMP JUMPDEST PUSH32 0x4E487B7100000000000000000000000000000000000000000000000000000000 PUSH1 0x0 MSTORE PUSH1 0x11 PUSH1 0x4 MSTORE PUSH1 0x24 PUSH1 0x0 REVERT JUMPDEST PUSH1 0x0 PUSH2 0x93D DUP3 PUSH2 0x618 JUMP JUMPDEST SWAP2 POP PUSH2 0x948 DUP4 PUSH2 0x618 JUMP JUMPDEST SWAP3 POP DUP3 DUP3 MUL PUSH2 0x956 DUP2 PUSH2 0x618 JUMP JUMPDEST SWAP2 POP DUP3 DUP3 DIV DUP5 EQ DUP4 ISZERO OR PUSH2 0x96D JUMPI PUSH2 0x96C PUSH2 0x903 JUMP JUMPDEST JUMPDEST POP SWAP3 SWAP2 POP POP JUMP JUMPDEST PUSH1 0x0 DUP3 DUP3 MSTORE PUSH1 0x20 DUP3 ADD SWAP1 POP SWAP3 SWAP2 POP POP JUMP JUMPDEST PUSH32 0x536C69707061676520746F6F2068696768000000000000000000000000000000 PUSH1 0x0 DUP3 ADD MSTORE POP JUMP JUMPDEST PUSH1 0x0 PUSH2 0x9BB PUSH1 0x11 DUP4 PUSH2 0x974 JUMP JUMPDEST SWAP2 POP PUSH2 0x9C6 DUP3 PUSH2 0x985 JUMP JUMPDEST PUSH1 0x20 DUP3 ADD SWAP1 POP SWAP2 SWAP1 POP JUMP JUMPDEST PUSH1 0x0 PUSH1 0x20 DUP3 ADD SWAP1 POP DUP2 DUP2 SUB PUSH1 0x0 DUP4 ADD MSTORE PUSH2 0x9EA DUP2 PUSH2 0x9AE JUMP JUMPDEST SWAP1 POP SWAP2 SWAP1 POP JUMP JUMPDEST PUSH2 0x9FA DUP2 PUSH2 0x64E JUMP JUMPDEST DUP3 MSTORE POP POP JUMP JUMPDEST PUSH2 0xA09 DUP2 PUSH2 0x618 JUMP JUMPDEST DUP3 MSTORE POP POP JUMP JUMPDEST PUSH1 0x0 PUSH1 0x60 DUP3 ADD SWAP1 POP PUSH2 0xA24 PUSH1 0x0 DUP4 ADD DUP7 PUSH2 0x9F1 JUMP JUMPDEST PUSH2 0xA31 PUSH1 0x20 DUP4 ADD DUP6 PUSH2 0x9F1 JUMP JUMPDEST PUSH2 0xA3E PUSH1 0x40 DUP4 ADD DUP5 PUSH2 0xA00 JUMP JUMPDEST SWAP5 SWAP4 POP POP POP POP JUMP JUMPDEST PUSH1 0x0 DUP2 ISZERO ISZERO SWAP1 POP SWAP2 SWAP1 POP JUMP JUMPDEST PUSH2 0xA5B DUP2 PUSH2 0xA46 JUMP JUMPDEST DUP2 EQ PUSH2 0xA66 JUMPI PUSH1 0x0 DUP1 REVERT JUMPDEST POP JUMP JUMPDEST PUSH1 0x0 DUP2 MLOAD SWAP1 POP PUSH2 0xA78 DUP2 PUSH2 0xA52 JUMP JUMPDEST SWAP3 SWAP2 POP POP JUMP JUMPDEST PUSH1 0x0 PUSH1 0x20 DUP3 DUP5 SUB SLT ISZERO PUSH2 0xA94 JUMPI PUSH2 0xA93 PUSH2 0x613 JUMP JUMPDEST JUMPDEST PUSH1 0x0 PUSH2 0xAA2 DUP5 DUP3 DUP6 ADD PUSH2 0xA69 JUMP JUMPDEST SWAP2 POP POP SWAP3 SWAP2 POP POP JUMP JUMPDEST PUSH32 0x5472616E736665722055534443204661696C6564000000000000000000000000 PUSH1 0x0 DUP3 ADD MSTORE POP JUMP JUMPDEST PUSH1 0x0 PUSH2 0xAE1 PUSH1 0x14 DUP4 PUSH2 0x974 JUMP JUMPDEST SWAP2 POP PUSH2 0xAEC DUP3 PUSH2 0xAAB JUMP JUMPDEST PUSH1 0x20 DUP3 ADD SWAP1 POP SWAP2 SWAP1 POP JUMP JUMPDEST PUSH1 0x0 PUSH1 0x20 DUP3 ADD SWAP1 POP DUP2 DUP2 SUB PUSH1 0x0 DUP4 ADD MSTORE PUSH2 0xB10 DUP2 PUSH2 0xAD4 JUMP JUMPDEST SWAP1 POP SWAP2 SWAP1 POP JUMP JUMPDEST PUSH1 0x0 PUSH1 0x20 DUP3 ADD SWAP1 POP PUSH2 0xB2C PUSH1 0x0 DUP4 ADD DUP5 PUSH2 0x9F1 JUMP JUMPDEST SWAP3 SWAP2 POP POP JUMP JUMPDEST PUSH1 0x0 PUSH1 0x20 DUP3 DUP5 SUB SLT ISZERO PUSH2 0xB48 JUMPI PUSH2 0xB47 PUSH2 0x613 JUMP JUMPDEST JUMPDEST PUSH1 0x0 PUSH2 0xB56 DUP5 DUP3 DUP6 ADD PUSH2 0x873 JUMP JUMPDEST SWAP2 POP POP SWAP3 SWAP2 POP POP JUMP JUMPDEST PUSH32 0x526F75746572204C6F77204C6971756964697479000000000000000000000000 PUSH1 0x0 DUP3 ADD MSTORE POP JUMP JUMPDEST PUSH1 0x0 PUSH2 0xB95 PUSH1 0x14 DUP4 PUSH2 0x974 JUMP JUMPDEST SWAP2 POP PUSH2 0xBA0 DUP3 PUSH2 0xB5F JUMP JUMPDEST PUSH1 0x20 DUP3 ADD SWAP1 POP SWAP2 SWAP1 POP JUMP JUMPDEST PUSH1 0x0 PUSH1 0x20 DUP3 ADD SWAP1 POP DUP2 DUP2 SUB PUSH1 0x0 DUP4 ADD MSTORE PUSH2 0xBC4 DUP2 PUSH2 0xB88 JUMP JUMPDEST SWAP1 POP SWAP2 SWAP1 POP JUMP JUMPDEST PUSH1 0x0 PUSH1 0x40 DUP3 ADD SWAP1 POP PUSH2 0xBE0 PUSH1 0x0 DUP4 ADD DUP6 PUSH2 0x9F1 JUMP JUMPDEST PUSH2 0xBED PUSH1 0x20 DUP4 ADD DUP5 PUSH2 0xA00 JUMP JUMPDEST SWAP4 SWAP3 POP POP POP JUMP JUMPDEST PUSH32 0x5472616E736665722049445258204661696C6564000000000000000000000000 PUSH1 0x0 DUP3 ADD MSTORE POP JUMP JUMPDEST PUSH1 0x0 PUSH2 0xC2A PUSH1 0x14 DUP4 PUSH2 0x974 JUMP JUMPDEST SWAP2 POP PUSH2 0xC35 DUP3 PUSH2 0xBF4 JUMP JUMPDEST PUSH1 0x20 DUP3 ADD SWAP1 POP SWAP2 SWAP1 POP JUMP JUMPDEST PUSH1 0x0 PUSH1 0x20 DUP3 ADD SWAP1 POP DUP2 DUP2 SUB PUSH1 0x0 DUP4 ADD MSTORE PUSH2 0xC59 DUP2 PUSH2 0xC1D JUMP JUMPDEST SWAP1 POP SWAP2 SWAP1 POP JUMP JUMPDEST PUSH32 0x4E487B7100000000000000000000000000000000000000000000000000000000 PUSH1 0x0 MSTORE PUSH1 0x41 PUSH1 0x4 MSTORE PUSH1 0x24 PUSH1 0x0 REVERT JUMPDEST PUSH32 0x4E487B7100000000000000000000000000000000000000000000000000000000 PUSH1 0x0 MSTORE PUSH1 0x32 PUSH1 0x4 MSTORE PUSH1 0x24 PUSH1 0x0 REVERT INVALID LOG2 PUSH5 0x6970667358 0x22 SLT KECCAK256 0xE0 NUMBER DIV PUSH3 0x6242CF SWAP12 0x29 0xB0 MSTORE8 0xF9 PUSH32 0x724967F6AFBD11D324F8C174ED6345AA18027B64736F6C634300081A00330000 "},"methodIdentifiers":{"idrx()":"e172c609","oracle()":"7dc0d1d0","swapExactTokensForTokens(uint256,uint256,address)":"6e17e9f6","usdc()":"3e413bee"}}}}}