{"contracts/LokaFactory.sol":{"LokaFactory":{"abi":[{"inputs":[{"internalType":"address","name":"_coldWallet","type":"address"},{"internalType":"address","name":"_router","type":"address"},{"internalType":"address","name":"_usdc","type":"address"},{"internalType":"address","name":"_idrx","type":"address"}],"stateMutability":"nonpayable","type":"constructor"},{"anonymous":false,"inputs":[{"indexed":true,"internalType":"address","name":"vaultAddress","type":"address"},{"indexed":true,"internalType":"address","name":"owner","type":"address"},{"indexed":false,"internalType":"bytes32","name":"salt","type":"bytes32"}],"name":"VaultDeployed","type":"event"},{"inputs":[],"name":"coldWallet","outputs":[{"internalType":"address","name":"","type":"address"}],"stateMutability":"view","type":"function"},{"inputs":[{"internalType":"bytes32","name":"_salt","type":"bytes32"},{"internalType":"address","name":"_owner","type":"address"}],"name":"deployVault","outputs":[{"internalType":"address","name":"","type":"address"}],"stateMutability":"nonpayable","type":"function"},{"inputs":[{"internalType":"bytes32","name":"_salt","type":"bytes32"},{"internalType":"address","name":"_owner","type":"address"}],"name":"getVaultAddress","outputs":[{"internalType":"address","name":"","type":"address"}],"stateMutability":"view","type":"function"},{"inputs":[],"name":"idrx","outputs":[{"internalType":"address","name":"","type":"address"}],"stateMutability":"view","type":"function"},{"inputs":[],"name":"router","outputs":[{"internalType":"address","name":"","type":"address"}],"stateMutability":"view","type":"function"},{"inputs":[],"name":"usdc","outputs":[{"internalType":"address","name":"","type":"address"}],"stateMutability":"view","type":"function"}],"evm":{"bytecode":{"linkReferences":{},"object":"61010060405234801561001157600080fd5b50604051611b12380380611b128339818101604052810190610033919061032b565b600073ffffffffffffffffffffffffffffffffffffffff168473ffffffffffffffffffffffffffffffffffffffff16036100a2576040517f08c379a000000000000000000000000000000000000000000000000000000000815260040161009990610415565b60405180910390fd5b600073ffffffffffffffffffffffffffffffffffffffff168373ffffffffffffffffffffffffffffffffffffffff1603610111576040517f08c379a0000000000000000000000000000000000000000000000000000000008152600401610108906104a7565b60405180910390fd5b600073ffffffffffffffffffffffffffffffffffffffff168273ffffffffffffffffffffffffffffffffffffffff1603610180576040517f08c379a000000000000000000000000000000000000000000000000000000000815260040161017790610539565b60405180910390fd5b600073ffffffffffffffffffffffffffffffffffffffff168173ffffffffffffffffffffffffffffffffffffffff16036101ef576040517f08c379a00000000000000000000000000000000000000000000000000000000081526004016101e6906105cb565b60405180910390fd5b8373ffffffffffffffffffffffffffffffffffffffff1660808173ffffffffffffffffffffffffffffffffffffffff16815250508273ffffffffffffffffffffffffffffffffffffffff1660a08173ffffffffffffffffffffffffffffffffffffffff16815250508173ffffffffffffffffffffffffffffffffffffffff1660c08173ffffffffffffffffffffffffffffffffffffffff16815250508073ffffffffffffffffffffffffffffffffffffffff1660e08173ffffffffffffffffffffffffffffffffffffffff1681525050505050506105eb565b600080fd5b600073ffffffffffffffffffffffffffffffffffffffff82169050919050565b60006102f8826102cd565b9050919050565b610308816102ed565b811461031357600080fd5b50565b600081519050610325816102ff565b92915050565b60008060008060808587031215610345576103446102c8565b5b600061035387828801610316565b945050602061036487828801610316565b935050604061037587828801610316565b925050606061038687828801610316565b91505092959194509250565b600082825260208201905092915050565b7f4c6f6b61466163746f72793a20636f6c6457616c6c65742063616e6e6f74206260008201527f65207a65726f2061646472657373000000000000000000000000000000000000602082015250565b60006103ff602e83610392565b915061040a826103a3565b604082019050919050565b6000602082019050818103600083015261042e816103f2565b9050919050565b7f4c6f6b61466163746f72793a20726f757465722063616e6e6f74206265207a6560008201527f726f206164647265737300000000000000000000000000000000000000000000602082015250565b6000610491602a83610392565b915061049c82610435565b604082019050919050565b600060208201905081810360008301526104c081610484565b9050919050565b7f4c6f6b61466163746f72793a20757364632063616e6e6f74206265207a65726f60008201527f2061646472657373000000000000000000000000000000000000000000000000602082015250565b6000610523602883610392565b915061052e826104c7565b604082019050919050565b6000602082019050818103600083015261055281610516565b9050919050565b7f4c6f6b61466163746f72793a20696472782063616e6e6f74206265207a65726f60008201527f2061646472657373000000000000000000000000000000000000000000000000602082015250565b60006105b5602883610392565b91506105c082610559565b604082019050919050565b600060208201905081810360008301526105e4816105a8565b9050919050565b60805160a05160c05160e0516114b661065c600039600081816101cc0152818161032c01526103f90152600081816101ab0152818161027c015261030b01526000818161018a015281816102ea015261041d015260008181610169015281816102a001526102c901526114b66000f3fe608060405234801561001057600080fd5b50600436106100625760003560e01c806301ac60e8146100675780633e413bee146100975780636be13c92146100b5578063e058beea146100d3578063e172c60914610103578063f887ea4014610121575b600080fd5b610081600480360381019061007c91906104e5565b61013f565b60405161008e9190610534565b60405180910390f35b61009f61027a565b6040516100ac9190610534565b60405180910390f35b6100bd61029e565b6040516100ca9190610534565b60405180910390f35b6100ed60048036038101906100e891906104e5565b6102c2565b6040516100fa9190610534565b60405180910390f35b61010b6103f7565b6040516101189190610534565b60405180910390f35b61012961041b565b6040516101369190610534565b60405180910390f35b600080604051806020016101529061043f565b6020820181038252601f19601f82011660405250837f00000000000000000000000000000000000000000000000000000000000000007f00000000000000000000000000000000000000000000000000000000000000007f00000000000000000000000000000000000000000000000000000000000000007f00000000000000000000000000000000000000000000000000000000000000006040516020016101ff95949392919061054f565b60405160208183030381529060405260405160200161021f929190610613565b6040516020818303038152906040529050600060ff60f81b3086848051906020012060405160200161025494939291906106ed565b6040516020818303038152906040528051906020012090508060001c9250505092915050565b7f000000000000000000000000000000000000000000000000000000000000000081565b7f000000000000000000000000000000000000000000000000000000000000000081565b60008083837f00000000000000000000000000000000000000000000000000000000000000007f00000000000000000000000000000000000000000000000000000000000000007f00000000000000000000000000000000000000000000000000000000000000007f00000000000000000000000000000000000000000000000000000000000000006040516103579061043f565b61036595949392919061054f565b8190604051809103906000f5905080158015610385573d6000803e3d6000fd5b5090508273ffffffffffffffffffffffffffffffffffffffff168173ffffffffffffffffffffffffffffffffffffffff167f974c8040a9cc92c8ee6c077423071c05007f5382617d4b92868938f33d3d197e866040516103e5919061074a565b60405180910390a38091505092915050565b7f000000000000000000000000000000000000000000000000000000000000000081565b7f000000000000000000000000000000000000000000000000000000000000000081565b610d1b8061076683390190565b600080fd5b6000819050919050565b61046481610451565b811461046f57600080fd5b50565b6000813590506104818161045b565b92915050565b600073ffffffffffffffffffffffffffffffffffffffff82169050919050565b60006104b282610487565b9050919050565b6104c2816104a7565b81146104cd57600080fd5b50565b6000813590506104df816104b9565b92915050565b600080604083850312156104fc576104fb61044c565b5b600061050a85828601610472565b925050602061051b858286016104d0565b9150509250929050565b61052e816104a7565b82525050565b60006020820190506105496000830184610525565b92915050565b600060a0820190506105646000830188610525565b6105716020830187610525565b61057e6040830186610525565b61058b6060830185610525565b6105986080830184610525565b9695505050505050565b600081519050919050565b600081905092915050565b60005b838110156105d65780820151818401526020810190506105bb565b60008484015250505050565b60006105ed826105a2565b6105f781856105ad565b93506106078185602086016105b8565b80840191505092915050565b600061061f82856105e2565b915061062b82846105e2565b91508190509392505050565b60007fff0000000000000000000000000000000000000000000000000000000000000082169050919050565b6000819050919050565b61067e61067982610637565b610663565b82525050565b60008160601b9050919050565b600061069c82610684565b9050919050565b60006106ae82610691565b9050919050565b6106c66106c1826104a7565b6106a3565b82525050565b6000819050919050565b6106e76106e282610451565b6106cc565b82525050565b60006106f9828761066d565b60018201915061070982866106b5565b60148201915061071982856106d6565b60208201915061072982846106d6565b60208201915081905095945050505050565b61074481610451565b82525050565b600060208201905061075f600083018461073b565b9291505056fe61012060405234801561001157600080fd5b50604051610d1b380380610d1b833981810160405281019061003391906101a5565b8473ffffffffffffffffffffffffffffffffffffffff1660a08173ffffffffffffffffffffffffffffffffffffffff16815250508373ffffffffffffffffffffffffffffffffffffffff1660808173ffffffffffffffffffffffffffffffffffffffff16815250508273ffffffffffffffffffffffffffffffffffffffff1660c08173ffffffffffffffffffffffffffffffffffffffff16815250508173ffffffffffffffffffffffffffffffffffffffff1660e08173ffffffffffffffffffffffffffffffffffffffff16815250508073ffffffffffffffffffffffffffffffffffffffff166101008173ffffffffffffffffffffffffffffffffffffffff16815250505050505050610220565b600080fd5b600073ffffffffffffffffffffffffffffffffffffffff82169050919050565b600061017282610147565b9050919050565b61018281610167565b811461018d57600080fd5b50565b60008151905061019f81610179565b92915050565b600080600080600060a086880312156101c1576101c0610142565b5b60006101cf88828901610190565b95505060206101e088828901610190565b94505060406101f188828901610190565b935050606061020288828901610190565b925050608061021388828901610190565b9150509295509295909350565b60805160a05160c05160e05161010051610a8d61028e60003960008181610393015261051a0152600081816101530152818161032401526104f601526000818161012d0152818161025301526104020152600061010901526000818161044201526104d20152610a8d6000f3fe608060405234801561001057600080fd5b50600436106100625760003560e01c8063117803e31461006757806332fe7b261461008557806335faa416146100a35780636744bb26146100ad57806389a30271146100cb578063ef187921146100e9575b600080fd5b61006f610107565b60405161007c919061057d565b60405180910390f35b61008d61012b565b60405161009a919061057d565b60405180910390f35b6100ab61014f565b005b6100b56104d0565b6040516100c2919061057d565b60405180910390f35b6100d36104f4565b6040516100e0919061057d565b60405180910390f35b6100f1610518565b6040516100fe919061057d565b60405180910390f35b7f000000000000000000000000000000000000000000000000000000000000000081565b7f000000000000000000000000000000000000000000000000000000000000000081565b60007f0000000000000000000000000000000000000000000000000000000000000000905060008173ffffffffffffffffffffffffffffffffffffffff166370a08231306040518263ffffffff1660e01b81526004016101af919061057d565b602060405180830381865afa1580156101cc573d6000803e3d6000fd5b505050506040513d601f19601f820116820180604052508101906101f091906105e2565b905060008111610235576040517f08c379a000000000000000000000000000000000000000000000000000000000815260040161022c9061066c565b60405180910390fd5b8173ffffffffffffffffffffffffffffffffffffffff1663095ea7b37f0000000000000000000000000000000000000000000000000000000000000000836040518363ffffffff1660e01b815260040161029092919061069b565b6020604051808303816000875af11580156102af573d6000803e3d6000fd5b505050506040513d601f19601f820116820180604052508101906102d391906106fc565b506000600267ffffffffffffffff8111156102f1576102f0610729565b5b60405190808252806020026020018201604052801561031f5781602001602082028036833780820191505090505b5090507f00000000000000000000000000000000000000000000000000000000000000008160008151811061035757610356610758565b5b602002602001019073ffffffffffffffffffffffffffffffffffffffff16908173ffffffffffffffffffffffffffffffffffffffff16815250507f0000000000000000000000000000000000000000000000000000000000000000816001815181106103c6576103c5610758565b5b602002602001019073ffffffffffffffffffffffffffffffffffffffff16908173ffffffffffffffffffffffffffffffffffffffff16815250507f000000000000000000000000000000000000000000000000000000000000000073ffffffffffffffffffffffffffffffffffffffff166338ed1739836000847f0000000000000000000000000000000000000000000000000000000000000000426040518663ffffffff1660e01b815260040161048295949392919061088a565b6000604051808303816000875af11580156104a1573d6000803e3d6000fd5b505050506040513d6000823e3d601f19601f820116820180604052508101906104ca9190610a0e565b50505050565b7f000000000000000000000000000000000000000000000000000000000000000081565b7f000000000000000000000000000000000000000000000000000000000000000081565b7f000000000000000000000000000000000000000000000000000000000000000081565b600073ffffffffffffffffffffffffffffffffffffffff82169050919050565b60006105678261053c565b9050919050565b6105778161055c565b82525050565b6000602082019050610592600083018461056e565b92915050565b6000604051905090565b600080fd5b600080fd5b6000819050919050565b6105bf816105ac565b81146105ca57600080fd5b50565b6000815190506105dc816105b6565b92915050565b6000602082840312156105f8576105f76105a2565b5b6000610606848285016105cd565b91505092915050565b600082825260208201905092915050565b7f5a65726f2042616c616e63650000000000000000000000000000000000000000600082015250565b6000610656600c8361060f565b915061066182610620565b602082019050919050565b6000602082019050818103600083015261068581610649565b9050919050565b610695816105ac565b82525050565b60006040820190506106b0600083018561056e565b6106bd602083018461068c565b9392505050565b60008115159050919050565b6106d9816106c4565b81146106e457600080fd5b50565b6000815190506106f6816106d0565b92915050565b600060208284031215610712576107116105a2565b5b6000610720848285016106e7565b91505092915050565b7f4e487b7100000000000000000000000000000000000000000000000000000000600052604160045260246000fd5b7f4e487b7100000000000000000000000000000000000000000000000000000000600052603260045260246000fd5b6000819050919050565b6000819050919050565b60006107b66107b16107ac84610787565b610791565b6105ac565b9050919050565b6107c68161079b565b82525050565b600081519050919050565b600082825260208201905092915050565b6000819050602082019050919050565b6108018161055c565b82525050565b600061081383836107f8565b60208301905092915050565b6000602082019050919050565b6000610837826107cc565b61084181856107d7565b935061084c836107e8565b8060005b8381101561087d5781516108648882610807565b975061086f8361081f565b925050600181019050610850565b5085935050505092915050565b600060a08201905061089f600083018861068c565b6108ac60208301876107bd565b81810360408301526108be818661082c565b90506108cd606083018561056e565b6108da608083018461068c565b9695505050505050565b600080fd5b6000601f19601f8301169050919050565b610903826108e9565b810181811067ffffffffffffffff8211171561092257610921610729565b5b80604052505050565b6000610935610598565b905061094182826108fa565b919050565b600067ffffffffffffffff82111561096157610960610729565b5b602082029050602081019050919050565b600080fd5b600061098a61098584610946565b61092b565b905080838252602082019050602084028301858111156109ad576109ac610972565b5b835b818110156109d657806109c288826105cd565b8452602084019350506020810190506109af565b5050509392505050565b600082601f8301126109f5576109f46108e4565b5b8151610a05848260208601610977565b91505092915050565b600060208284031215610a2457610a236105a2565b5b600082015167ffffffffffffffff811115610a4257610a416105a7565b5b610a4e848285016109e0565b9150509291505056fea2646970667358221220f414b46018a60c7f12048a6cc3ae1f6ba04fb04203bdd23aece2ec1977681bd964736f6c634300081a0033a264697066735822122080dd7f9d4a54b10905cbf22c4d19e498039ef335634e769bbd36e7ca6ae1f67264736f6c634300081a0033","opcodes":"PUSH2 0x100 PUSH1 0x40 MSTORE CALLVALUE DUP1 ISZERO PUSH2 0x11 JUMPI PUSH1 0x0 DUP1 REVERT JUMPDEST POP PUSH1 0x40 MLOAD PUSH2 0x1B12 CODESIZE SUB DUP1 PUSH2 0x1B12 DUP4 CODECOPY DUP2 DUP2 ADD PUSH1 0x40 MSTORE DUP2 ADD SWAP1 PUSH2 0x33 SWAP2 SWAP1 PUSH2 0x32B JUMP JUMPDEST PUSH1 0x0 PUSH20 0xFFFFFFFFFFFFFFFFFFFFFFFFFFFFFFFFFFFFFFFF AND DUP5 PUSH20 0xFFFFFFFFFFFFFFFFFFFFFFFFFFFFFFFFFFFFFFFF AND SUB PUSH2 0xA2 JUMPI PUSH1 0x40 MLOAD PUSH32 0x8C379A000000000000000000000000000000000000000000000000000000000 DUP2 MSTORE PUSH1 0x4 ADD PUSH2 0x99 SWAP1 PUSH2 0x415 JUMP JUMPDEST PUSH1 0x40 MLOAD DUP1 SWAP2 SUB SWAP1 REVERT JUMPDEST PUSH1 0x0 PUSH20 0xFFFFFFFFFFFFFFFFFFFFFFFFFFFFFFFFFFFFFFFF AND DUP4 PUSH20 0xFFFFFFFFFFFFFFFFFFFFFFFFFFFFFFFFFFFFFFFF AND SUB PUSH2 0x111 JUMPI PUSH1 0x40 MLOAD PUSH32 0x8C379A000000000000000000000000000000000000000000000000000000000 DUP2 MSTORE PUSH1 0x4 ADD PUSH2 0x108 SWAP1 PUSH2 0x4A7 JUMP JUMPDEST PUSH1 0x40 MLOAD DUP1 SWAP2 SUB SWAP1 REVERT JUMPDEST PUSH1 0x0 PUSH20 0xFFFFFFFFFFFFFFFFFFFFFFFFFFFFFFFFFFFFFFFF AND DUP3 PUSH20 0xFFFFFFFFFFFFFFFFFFFFFFFFFFFFFFFFFFFFFFFF AND SUB PUSH2 0x180 JUMPI PUSH1 0x40 MLOAD PUSH32 0x8C379A000000000000000000000000000000000000000000000000000000000 DUP2 MSTORE PUSH1 0x4 ADD PUSH2 0x177 SWAP1 PUSH2 0x539 JUMP JUMPDEST PUSH1 0x40 MLOAD DUP1 SWAP2 SUB SWAP1 REVERT JUMPDEST PUSH1 0x0 PUSH20 0xFFFFFFFFFFFFFFFFFFFFFFFFFFFFFFFFFFFFFFFF AND DUP2 PUSH20 0xFFFFFFFFFFFFFFFFFFFFFFFFFFFFFFFFFFFFFFFF AND SUB PUSH2 0x1EF JUMPI PUSH1 0x40 MLOAD PUSH32 0x8C379A000000000000000000000000000000000000000000000000000000000 DUP2 MSTORE PUSH1 0x4 ADD PUSH2 0x1E6 SWAP1 PUSH2 0x5CB JUMP JUMPDEST PUSH1 0x40 MLOAD DUP1 SWAP2 SUB SWAP1 REVERT JUMPDEST DUP4 PUSH20 0xFFFFFFFFFFFFFFFFFFFFFFFFFFFFFFFFFFFFFFFF AND PUSH1 0x80 DUP2 PUSH20 0xFFFFFFFFFFFFFFFFFFFFFFFFFFFFFFFFFFFFFFFF AND DUP2 MSTORE POP POP DUP3 PUSH20 0xFFFFFFFFFFFFFFFFFFFFFFFFFFFFFFFFFFFFFFFF AND PUSH1 0xA0 DUP2 PUSH20 0xFFFFFFFFFFFFFFFFFFFFFFFFFFFFFFFFFFFFFFFF AND DUP2 MSTORE POP POP DUP2 PUSH20 0xFFFFFFFFFFFFFFFFFFFFFFFFFFFFFFFFFFFFFFFF AND PUSH1 0xC0 DUP2 PUSH20 0xFFFFFFFFFFFFFFFFFFFFFFFFFFFFFFFFFFFFFFFF AND DUP2 MSTORE POP POP DUP1 PUSH20 0xFFFFFFFFFFFFFFFFFFFFFFFFFFFFFFFFFFFFFFFF AND PUSH1 0xE0 DUP2 PUSH20 0xFFFFFFFFFFFFFFFFFFFFFFFFFFFFFFFFFFFFFFFF AND DUP2 MSTORE POP POP POP POP POP POP PUSH2 0x5EB JUMP JUMPDEST PUSH1 0x0 DUP1 REVERT JUMPDEST PUSH1 0x0 PUSH20 0xFFFFFFFFFFFFFFFFFFFFFFFFFFFFFFFFFFFFFFFF DUP3 AND SWAP1 POP SWAP2 SWAP1 POP JUMP JUMPDEST PUSH1 0x0 PUSH2 0x2F8 DUP3 PUSH2 0x2CD JUMP JUMPDEST SWAP1 POP SWAP2 SWAP1 POP JUMP JUMPDEST PUSH2 0x308 DUP2 PUSH2 0x2ED JUMP JUMPDEST DUP2 EQ PUSH2 0x313 JUMPI PUSH1 0x0 DUP1 REVERT JUMPDEST POP JUMP JUMPDEST PUSH1 0x0 DUP2 MLOAD SWAP1 POP PUSH2 0x325 DUP2 PUSH2 0x2FF JUMP JUMPDEST SWAP3 SWAP2 POP POP JUMP JUMPDEST PUSH1 0x0 DUP1 PUSH1 0x0 DUP1 PUSH1 0x80 DUP6 DUP8 SUB SLT ISZERO PUSH2 0x345 JUMPI PUSH2 0x344 PUSH2 0x2C8 JUMP JUMPDEST JUMPDEST PUSH1 0x0 PUSH2 0x353 DUP8 DUP3 DUP9 ADD PUSH2 0x316 JUMP JUMPDEST SWAP5 POP POP PUSH1 0x20 PUSH2 0x364 DUP8 DUP3 DUP9 ADD PUSH2 0x316 JUMP JUMPDEST SWAP4 POP POP PUSH1 0x40 PUSH2 0x375 DUP8 DUP3 DUP9 ADD PUSH2 0x316 JUMP JUMPDEST SWAP3 POP POP PUSH1 0x60 PUSH2 0x386 DUP8 DUP3 DUP9 ADD PUSH2 0x316 JUMP JUMPDEST SWAP2 POP POP SWAP3 SWAP6 SWAP2 SWAP5 POP SWAP3 POP JUMP JUMPDEST PUSH1 0x0 DUP3 DUP3 MSTORE PUSH1 0x20 DUP3 ADD SWAP1 POP SWAP3 SWAP2 POP POP JUMP JUMPDEST PUSH32 0x4C6F6B61466163746F72793A20636F6C6457616C6C65742063616E6E6F742062 PUSH1 0x0 DUP3 ADD MSTORE PUSH32 0x65207A65726F2061646472657373000000000000000000000000000000000000 PUSH1 0x20 DUP3 ADD MSTORE POP JUMP JUMPDEST PUSH1 0x0 PUSH2 0x3FF PUSH1 0x2E DUP4 PUSH2 0x392 JUMP JUMPDEST SWAP2 POP PUSH2 0x40A DUP3 PUSH2 0x3A3 JUMP JUMPDEST PUSH1 0x40 DUP3 ADD SWAP1 POP SWAP2 SWAP1 POP JUMP JUMPDEST PUSH1 0x0 PUSH1 0x20 DUP3 ADD SWAP1 POP DUP2 DUP2 SUB PUSH1 0x0 DUP4 ADD MSTORE PUSH2 0x42E DUP2 PUSH2 0x3F2 JUMP JUMPDEST SWAP1 POP SWAP2 SWAP1 POP JUMP JUMPDEST PUSH32 0x4C6F6B61466163746F72793A20726F757465722063616E6E6F74206265207A65 PUSH1 0x0 DUP3 ADD MSTORE PUSH32 0x726F206164647265737300000000000000000000000000000000000000000000 PUSH1 0x20 DUP3 ADD MSTORE POP JUMP JUMPDEST PUSH1 0x0 PUSH2 0x491 PUSH1 0x2A DUP4 PUSH2 0x392 JUMP JUMPDEST SWAP2 POP PUSH2 0x49C DUP3 PUSH2 0x435 JUMP JUMPDEST PUSH1 0x40 DUP3 ADD SWAP1 POP SWAP2 SWAP1 POP JUMP JUMPDEST PUSH1 0x0 PUSH1 0x20 DUP3 ADD SWAP1 POP DUP2 DUP2 SUB PUSH1 0x0 DUP4 ADD MSTORE PUSH2 0x4C0 DUP2 PUSH2 0x484 JUMP JUMPDEST SWAP1 POP SWAP2 SWAP1 POP JUMP JUMPDEST PUSH32 0x4C6F6B61466163746F72793A20757364632063616E6E6F74206265207A65726F PUSH1 0x0 DUP3 ADD MSTORE PUSH32 0x2061646472657373000000000000000000000000000000000000000000000000 PUSH1 0x20 DUP3 ADD MSTORE POP JUMP JUMPDEST PUSH1 0x0 PUSH2 0x523 PUSH1 0x28 DUP4 PUSH2 0x392 JUMP JUMPDEST SWAP2 POP PUSH2 0x52E DUP3 PUSH2 0x4C7 JUMP JUMPDEST PUSH1 0x40 DUP3 ADD SWAP1 POP SWAP2 SWAP1 POP JUMP JUMPDEST PUSH1 0x0 PUSH1 0x20 DUP3 ADD SWAP1 POP DUP2 DUP2 SUB PUSH1 0x0 DUP4 ADD MSTORE PUSH2 0x552 DUP2 PUSH2 0x516 JUMP JUMPDEST SWAP1 POP SWAP2 SWAP1 POP JUMP JUMPDEST PUSH32 0x4C6F6B61466163746F72793A20696472782063616E6E6F74206265207A65726F PUSH1 0x0 DUP3 ADD MSTORE PUSH32 0x2061646472657373000000000000000000000000000000000000000000000000 PUSH1 0x20 DUP3 ADD MSTORE POP JUMP JUMPDEST PUSH1 0x0 PUSH2 0x5B5 PUSH1 0x28 DUP4 PUSH2 0x392 JUMP JUMPDEST SWAP2 POP PUSH2 0x5C0 DUP3 PUSH2 0x559 JUMP JUMPDEST PUSH1 0x40 DUP3 ADD SWAP1 POP SWAP2 SWAP1 POP JUMP JUMPDEST PUSH1 0x0 PUSH1 0x20 DUP3 ADD SWAP1 POP DUP2 DUP2 SUB PUSH1 0x0 DUP4 ADD MSTORE PUSH2 0x5E4 DUP2 PUSH2 0x5A8 JUMP JUMPDEST SWAP1 POP SWAP2 SWAP1 POP JUMP JUMPDEST PUSH1 0x80 MLOAD PUSH1 0xA0 MLOAD PUSH1 0xC0 MLOAD PUSH1 0xE0 MLOAD PUSH2 0x14B6 PUSH2 0x65C PUSH1 0x0 CODECOPY PUSH1 0x0 DUP2 DUP2 PUSH2 0x1CC ADD MSTORE DUP2 DUP2 PUSH2 0x32C ADD MSTORE PUSH2 0x3F9 ADD MSTORE PUSH1 0x0 DUP2 DUP2 PUSH2 0x1AB ADD MSTORE DUP2 DUP2 PUSH2 0x27C ADD MSTORE PUSH2 0x30B ADD MSTORE PUSH1 0x0 DUP2 DUP2 PUSH2 0x18A ADD MSTORE DUP2 DUP2 PUSH2 0x2EA ADD MSTORE PUSH2 0x41D ADD MSTORE PUSH1 0x0 DUP2 DUP2 PUSH2 0x169 ADD MSTORE DUP2 DUP2 PUSH2 0x2A0 ADD MSTORE PUSH2 0x2C9 ADD MSTORE PUSH2 0x14B6 PUSH1 0x0 RETURN INVALID PUSH1 0x80 PUSH1 0x40 MSTORE CALLVALUE DUP1 ISZERO PUSH2 0x10 JUMPI PUSH1 0x0 DUP1 REVERT JUMPDEST POP PUSH1 0x4 CALLDATASIZE LT PUSH2 0x62 JUMPI PUSH1 0x0 CALLDATALOAD PUSH1 0xE0 SHR DUP1 PUSH4 0x1AC60E8 EQ PUSH2 0x67 JUMPI DUP1 PUSH4 0x3E413BEE EQ PUSH2 0x97 JUMPI DUP1 PUSH4 0x6BE13C92 EQ PUSH2 0xB5 JUMPI DUP1 PUSH4 0xE058BEEA EQ PUSH2 0xD3 JUMPI DUP1 PUSH4 0xE172C609 EQ PUSH2 0x103 JUMPI DUP1 PUSH4 0xF887EA40 EQ PUSH2 0x121 JUMPI JUMPDEST PUSH1 0x0 DUP1 REVERT JUMPDEST PUSH2 0x81 PUSH1 0x4 DUP1 CALLDATASIZE SUB DUP2 ADD SWAP1 PUSH2 0x7C SWAP2 SWAP1 PUSH2 0x4E5 JUMP JUMPDEST PUSH2 0x13F JUMP JUMPDEST PUSH1 0x40 MLOAD PUSH2 0x8E SWAP2 SWAP1 PUSH2 0x534 JUMP JUMPDEST PUSH1 0x40 MLOAD DUP1 SWAP2 SUB SWAP1 RETURN JUMPDEST PUSH2 0x9F PUSH2 0x27A JUMP JUMPDEST PUSH1 0x40 MLOAD PUSH2 0xAC SWAP2 SWAP1 PUSH2 0x534 JUMP JUMPDEST PUSH1 0x40 MLOAD DUP1 SWAP2 SUB SWAP1 RETURN JUMPDEST PUSH2 0xBD PUSH2 0x29E JUMP JUMPDEST PUSH1 0x40 MLOAD PUSH2 0xCA SWAP2 SWAP1 PUSH2 0x534 JUMP JUMPDEST PUSH1 0x40 MLOAD DUP1 SWAP2 SUB SWAP1 RETURN JUMPDEST PUSH2 0xED PUSH1 0x4 DUP1 CALLDATASIZE SUB DUP2 ADD SWAP1 PUSH2 0xE8 SWAP2 SWAP1 PUSH2 0x4E5 JUMP JUMPDEST PUSH2 0x2C2 JUMP JUMPDEST PUSH1 0x40 MLOAD PUSH2 0xFA SWAP2 SWAP1 PUSH2 0x534 JUMP JUMPDEST PUSH1 0x40 MLOAD DUP1 SWAP2 SUB SWAP1 RETURN JUMPDEST PUSH2 0x10B PUSH2 0x3F7 JUMP JUMPDEST PUSH1 0x40 MLOAD PUSH2 0x118 SWAP2 SWAP1 PUSH2 0x534 JUMP JUMPDEST PUSH1 0x40 MLOAD DUP1 SWAP2 SUB SWAP1 RETURN JUMPDEST PUSH2 0x129 PUSH2 0x41B JUMP JUMPDEST PUSH1 0x40 MLOAD PUSH2 0x136 SWAP2 SWAP1 PUSH2 0x534 JUMP JUMPDEST PUSH1 0x40 MLOAD DUP1 SWAP2 SUB SWAP1 RETURN JUMPDEST PUSH1 0x0 DUP1 PUSH1 0x40 MLOAD DUP1 PUSH1 0x20 ADD PUSH2 0x152 SWAP1 PUSH2 0x43F JUMP JUMPDEST PUSH1 0x20 DUP3 ADD DUP2 SUB DUP3 MSTORE PUSH1 0x1F NOT PUSH1 0x1F DUP3 ADD AND PUSH1 0x40 MSTORE POP DUP4 PUSH32 0x0 PUSH32 0x0 PUSH32 0x0 PUSH32 0x0 PUSH1 0x40 MLOAD PUSH1 0x20 ADD PUSH2 0x1FF SWAP6 SWAP5 SWAP4 SWAP3 SWAP2 SWAP1 PUSH2 0x54F JUMP JUMPDEST PUSH1 0x40 MLOAD PUSH1 0x20 DUP2 DUP4 SUB SUB DUP2 MSTORE SWAP1 PUSH1 0x40 MSTORE PUSH1 0x40 MLOAD PUSH1 0x20 ADD PUSH2 0x21F SWAP3 SWAP2 SWAP1 PUSH2 0x613 JUMP JUMPDEST PUSH1 0x40 MLOAD PUSH1 0x20 DUP2 DUP4 SUB SUB DUP2 MSTORE SWAP1 PUSH1 0x40 MSTORE SWAP1 POP PUSH1 0x0 PUSH1 0xFF PUSH1 0xF8 SHL ADDRESS DUP7 DUP5 DUP1 MLOAD SWAP1 PUSH1 0x20 ADD KECCAK256 PUSH1 0x40 MLOAD PUSH1 0x20 ADD PUSH2 0x254 SWAP5 SWAP4 SWAP3 SWAP2 SWAP1 PUSH2 0x6ED JUMP JUMPDEST PUSH1 0x40 MLOAD PUSH1 0x20 DUP2 DUP4 SUB SUB DUP2 MSTORE SWAP1 PUSH1 0x40 MSTORE DUP1 MLOAD SWAP1 PUSH1 0x20 ADD KECCAK256 SWAP1 POP DUP1 PUSH1 0x0 SHR SWAP3 POP POP POP SWAP3 SWAP2 POP POP JUMP JUMPDEST PUSH32 0x0 DUP2 JUMP JUMPDEST PUSH32 0x0 DUP2 JUMP JUMPDEST PUSH1 0x0 DUP1 DUP4 DUP4 PUSH32 0x0 PUSH32 0x0 PUSH32 0x0 PUSH32 0x0 PUSH1 0x40 MLOAD PUSH2 0x357 SWAP1 PUSH2 0x43F JUMP JUMPDEST PUSH2 0x365 SWAP6 SWAP5 SWAP4 SWAP3 SWAP2 SWAP1 PUSH2 0x54F JUMP JUMPDEST DUP2 SWAP1 PUSH1 0x40 MLOAD DUP1 SWAP2 SUB SWAP1 PUSH1 0x0 CREATE2 SWAP1 POP DUP1 ISZERO DUP1 ISZERO PUSH2 0x385 JUMPI RETURNDATASIZE PUSH1 0x0 DUP1 RETURNDATACOPY RETURNDATASIZE PUSH1 0x0 REVERT JUMPDEST POP SWAP1 POP DUP3 PUSH20 0xFFFFFFFFFFFFFFFFFFFFFFFFFFFFFFFFFFFFFFFF AND DUP2 PUSH20 0xFFFFFFFFFFFFFFFFFFFFFFFFFFFFFFFFFFFFFFFF AND PUSH32 0x974C8040A9CC92C8EE6C077423071C05007F5382617D4B92868938F33D3D197E DUP7 PUSH1 0x40 MLOAD PUSH2 0x3E5 SWAP2 SWAP1 PUSH2 0x74A JUMP JUMPDEST PUSH1 0x40 MLOAD DUP1 SWAP2 SUB SWAP1 LOG3 DUP1 SWAP2 POP POP SWAP3 SWAP2 POP POP JUMP JUMPDEST PUSH32 0x0 DUP2 JUMP JUMPDEST PUSH32 0x0 DUP2 JUMP JUMPDEST PUSH2 0xD1B DUP1 PUSH2 0x766 DUP4 CODECOPY ADD SWAP1 JUMP JUMPDEST PUSH1 0x0 DUP1 REVERT JUMPDEST PUSH1 0x0 DUP2 SWAP1 POP SWAP2 SWAP1 POP JUMP JUMPDEST PUSH2 0x464 DUP2 PUSH2 0x451 JUMP JUMPDEST DUP2 EQ PUSH2 0x46F JUMPI PUSH1 0x0 DUP1 REVERT JUMPDEST POP JUMP JUMPDEST PUSH1 0x0 DUP2 CALLDATALOAD SWAP1 POP PUSH2 0x481 DUP2 PUSH2 0x45B JUMP JUMPDEST SWAP3 SWAP2 POP POP JUMP JUMPDEST PUSH1 0x0 PUSH20 0xFFFFFFFFFFFFFFFFFFFFFFFFFFFFFFFFFFFFFFFF DUP3 AND SWAP1 POP SWAP2 SWAP1 POP JUMP JUMPDEST PUSH1 0x0 PUSH2 0x4B2 DUP3 PUSH2 0x487 JUMP JUMPDEST SWAP1 POP SWAP2 SWAP1 POP JUMP JUMPDEST PUSH2 0x4C2 DUP2 PUSH2 0x4A7 JUMP JUMPDEST DUP2 EQ PUSH2 0x4CD JUMPI PUSH1 0x0 DUP1 REVERT JUMPDEST POP JUMP JUMPDEST PUSH1 0x0 DUP2 CALLDATALOAD SWAP1 POP PUSH2 0x4DF DUP2 PUSH2 0x4B9 JUMP JUMPDEST SWAP3 SWAP2 POP POP JUMP JUMPDEST PUSH1 0x0 DUP1 PUSH1 0x40 DUP4 DUP6 SUB SLT ISZERO PUSH2 0x4FC JUMPI PUSH2 0x4FB PUSH2 0x44C JUMP JUMPDEST JUMPDEST PUSH1 0x0 PUSH2 0x50A DUP6 DUP3 DUP7 ADD PUSH2 0x472 JUMP JUMPDEST SWAP3 POP POP PUSH1 0x20 PUSH2 0x51B DUP6 DUP3 DUP7 ADD PUSH2 0x4D0 JUMP JUMPDEST SWAP2 POP POP SWAP3 POP SWAP3 SWAP1 POP JUMP JUMPDEST PUSH2 0x52E DUP2 PUSH2 0x4A7 JUMP JUMPDEST DUP3 MSTORE POP POP JUMP JUMPDEST PUSH1 0x0 PUSH1 0x20 DUP3 ADD SWAP1 POP PUSH2 0x549 PUSH1 0x0 DUP4 ADD DUP5 PUSH2 0x525 JUMP JUMPDEST SWAP3 SWAP2 POP POP JUMP JUMPDEST PUSH1 0x0 PUSH1 0xA0 DUP3 ADD SWAP1 POP PUSH2 0x564 PUSH1 0x0 DUP4 ADD DUP9 PUSH2 0x525 JUMP JUMPDEST PUSH2 0x571 PUSH1 0x20 DUP4 ADD DUP8 PUSH2 0x525 JUMP JUMPDEST PUSH2 0x57E PUSH1 0x40 DUP4 ADD DUP7 PUSH2 0x525 JUMP JUMPDEST PUSH2 0x58B PUSH1 0x60 DUP4 ADD DUP6 PUSH2 0x525 JUMP JUMPDEST PUSH2 0x598 PUSH1 0x80 DUP4 ADD DUP5 PUSH2 0x525 JUMP JUMPDEST SWAP7 SWAP6 POP POP POP POP POP POP JUMP JUMPDEST PUSH1 0x0 DUP2 MLOAD SWAP1 POP SWAP2 SWAP1 POP JUMP JUMPDEST PUSH1 0x0 DUP2 SWAP1 POP SWAP3 SWAP2 POP POP JUMP JUMPDEST PUSH1 0x0 JUMPDEST DUP4 DUP2 LT ISZERO PUSH2 0x5D6 JUMPI DUP1 DUP3 ADD MLOAD DUP2 DUP5 ADD MSTORE PUSH1 0x20 DUP2 ADD SWAP1 POP PUSH2 0x5BB JUMP JUMPDEST PUSH1 0x0 DUP5 DUP5 ADD MSTORE POP POP POP POP JUMP JUMPDEST PUSH1 0x0 PUSH2 0x5ED DUP3 PUSH2 0x5A2 JUMP JUMPDEST PUSH2 0x5F7 DUP2 DUP6 PUSH2 0x5AD JUMP JUMPDEST SWAP4 POP PUSH2 0x607 DUP2 DUP6 PUSH1 0x20 DUP7 ADD PUSH2 0x5B8 JUMP JUMPDEST DUP1 DUP5 ADD SWAP2 POP POP SWAP3 SWAP2 POP POP JUMP JUMPDEST PUSH1 0x0 PUSH2 0x61F DUP3 DUP6 PUSH2 0x5E2 JUMP JUMPDEST SWAP2 POP PUSH2 0x62B DUP3 DUP5 PUSH2 0x5E2 JUMP JUMPDEST SWAP2 POP DUP2 SWAP1 POP SWAP4 SWAP3 POP POP POP JUMP JUMPDEST PUSH1 0x0 PUSH32 0xFF00000000000000000000000000000000000000000000000000000000000000 DUP3 AND SWAP1 POP SWAP2 SWAP1 POP JUMP JUMPDEST PUSH1 0x0 DUP2 SWAP1 POP SWAP2 SWAP1 POP JUMP JUMPDEST PUSH2 0x67E PUSH2 0x679 DUP3 PUSH2 0x637 JUMP JUMPDEST PUSH2 0x663 JUMP JUMPDEST DUP3 MSTORE POP POP JUMP JUMPDEST PUSH1 0x0 DUP2 PUSH1 0x60 SHL SWAP1 POP SWAP2 SWAP1 POP JUMP JUMPDEST PUSH1 0x0 PUSH2 0x69C DUP3 PUSH2 0x684 JUMP JUMPDEST SWAP1 POP SWAP2 SWAP1 POP JUMP JUMPDEST PUSH1 0x0 PUSH2 0x6AE DUP3 PUSH2 0x691 JUMP JUMPDEST SWAP1 POP SWAP2 SWAP1 POP JUMP JUMPDEST PUSH2 0x6C6 PUSH2 0x6C1 DUP3 PUSH2 0x4A7 JUMP JUMPDEST PUSH2 0x6A3 JUMP JUMPDEST DUP3 MSTORE POP POP JUMP JUMPDEST PUSH1 0x0 DUP2 SWAP1 POP SWAP2 SWAP1 POP JUMP JUMPDEST PUSH2 0x6E7 PUSH2 0x6E2 DUP3 PUSH2 0x451 JUMP JUMPDEST PUSH2 0x6CC JUMP JUMPDEST DUP3 MSTORE POP POP JUMP JUMPDEST PUSH1 0x0 PUSH2 0x6F9 DUP3 DUP8 PUSH2 0x66D JUMP JUMPDEST PUSH1 0x1 DUP3 ADD SWAP2 POP PUSH2 0x709 DUP3 DUP7 PUSH2 0x6B5 JUMP JUMPDEST PUSH1 0x14 DUP3 ADD SWAP2 POP PUSH2 0x719 DUP3 DUP6 PUSH2 0x6D6 JUMP JUMPDEST PUSH1 0x20 DUP3 ADD SWAP2 POP PUSH2 0x729 DUP3 DUP5 PUSH2 0x6D6 JUMP JUMPDEST PUSH1 0x20 DUP3 ADD SWAP2 POP DUP2 SWAP1 POP SWAP6 SWAP5 POP POP POP POP POP JUMP JUMPDEST PUSH2 0x744 DUP2 PUSH2 0x451 JUMP JUMPDEST DUP3 MSTORE POP POP JUMP JUMPDEST PUSH1 0x0 PUSH1 0x20 DUP3 ADD SWAP1 POP PUSH2 0x75F PUSH1 0x0 DUP4 ADD DUP5 PUSH2 0x73B JUMP JUMPDEST SWAP3 SWAP2 POP POP JUMP INVALID PUSH2 0x120 PUSH1 0x40 MSTORE CALLVALUE DUP1 ISZERO PUSH2 0x11 JUMPI PUSH1 0x0 DUP1 REVERT JUMPDEST POP PUSH1 0x40 MLOAD PUSH2 0xD1B CODESIZE SUB DUP1 PUSH2 0xD1B DUP4 CODECOPY DUP2 DUP2 ADD PUSH1 0x40 MSTORE DUP2 ADD SWAP1 PUSH2 0x33 SWAP2 SWAP1 PUSH2 0x1A5 JUMP JUMPDEST DUP5 PUSH20 0xFFFFFFFFFFFFFFFFFFFFFFFFFFFFFFFFFFFFFFFF AND PUSH1 0xA0 DUP2 PUSH20 0xFFFFFFFFFFFFFFFFFFFFFFFFFFFFFFFFFFFFFFFF AND DUP2 MSTORE POP POP DUP4 PUSH20 0xFFFFFFFFFFFFFFFFFFFFFFFFFFFFFFFFFFFFFFFF AND PUSH1 0x80 DUP2 PUSH20 0xFFFFFFFFFFFFFFFFFFFFFFFFFFFFFFFFFFFFFFFF AND DUP2 MSTORE POP POP DUP3 PUSH20 0xFFFFFFFFFFFFFFFFFFFFFFFFFFFFFFFFFFFFFFFF AND PUSH1 0xC0 DUP2 PUSH20 0xFFFFFFFFFFFFFFFFFFFFFFFFFFFFFFFFFFFFFFFF AND DUP2 MSTORE POP POP DUP2 PUSH20 0xFFFFFFFFFFFFFFFFFFFFFFFFFFFFFFFFFFFFFFFF AND PUSH1 0xE0 DUP2 PUSH20 0xFFFFFFFFFFFFFFFFFFFFFFFFFFFFFFFFFFFFFFFF AND DUP2 MSTORE POP POP DUP1 PUSH20 0xFFFFFFFFFFFFFFFFFFFFFFFFFFFFFFFFFFFFFFFF AND PUSH2 0x100 DUP2 PUSH20 0xFFFFFFFFFFFFFFFFFFFFFFFFFFFFFFFFFFFFFFFF AND DUP2 MSTORE POP POP POP POP POP POP POP PUSH2 0x220 JUMP JUMPDEST PUSH1 0x0 DUP1 REVERT JUMPDEST PUSH1 0x0 PUSH20 0xFFFFFFFFFFFFFFFFFFFFFFFFFFFFFFFFFFFFFFFF DUP3 AND SWAP1 POP SWAP2 SWAP1 POP JUMP JUMPDEST PUSH1 0x0 PUSH2 0x172 DUP3 PUSH2 0x147 JUMP JUMPDEST SWAP1 POP SWAP2 SWAP1 POP JUMP JUMPDEST PUSH2 0x182 DUP2 PUSH2 0x167 JUMP JUMPDEST DUP2 EQ PUSH2 0x18D JUMPI PUSH1 0x0 DUP1 REVERT JUMPDEST POP JUMP JUMPDEST PUSH1 0x0 DUP2 MLOAD SWAP1 POP PUSH2 0x19F DUP2 PUSH2 0x179 JUMP JUMPDEST SWAP3 SWAP2 POP POP JUMP JUMPDEST PUSH1 0x0 DUP1 PUSH1 0x0 DUP1 PUSH1 0x0 PUSH1 0xA0 DUP7 DUP9 SUB SLT ISZERO PUSH2 0x1C1 JUMPI PUSH2 0x1C0 PUSH2 0x142 JUMP JUMPDEST JUMPDEST PUSH1 0x0 PUSH2 0x1CF DUP9 DUP3 DUP10 ADD PUSH2 0x190 JUMP JUMPDEST SWAP6 POP POP PUSH1 0x20 PUSH2 0x1E0 DUP9 DUP3 DUP10 ADD PUSH2 0x190 JUMP JUMPDEST SWAP5 POP POP PUSH1 0x40 PUSH2 0x1F1 DUP9 DUP3 DUP10 ADD PUSH2 0x190 JUMP JUMPDEST SWAP4 POP POP PUSH1 0x60 PUSH2 0x202 DUP9 DUP3 DUP10 ADD PUSH2 0x190 JUMP JUMPDEST SWAP3 POP POP PUSH1 0x80 PUSH2 0x213 DUP9 DUP3 DUP10 ADD PUSH2 0x190 JUMP JUMPDEST SWAP2 POP POP SWAP3 SWAP6 POP SWAP3 SWAP6 SWAP1 SWAP4 POP JUMP JUMPDEST PUSH1 0x80 MLOAD PUSH1 0xA0 MLOAD PUSH1 0xC0 MLOAD PUSH1 0xE0 MLOAD PUSH2 0x100 MLOAD PUSH2 0xA8D PUSH2 0x28E PUSH1 0x0 CODECOPY PUSH1 0x0 DUP2 DUP2 PUSH2 0x393 ADD MSTORE PUSH2 0x51A ADD MSTORE PUSH1 0x0 DUP2 DUP2 PUSH2 0x153 ADD MSTORE DUP2 DUP2 PUSH2 0x324 ADD MSTORE PUSH2 0x4F6 ADD MSTORE PUSH1 0x0 DUP2 DUP2 PUSH2 0x12D ADD MSTORE DUP2 DUP2 PUSH2 0x253 ADD MSTORE PUSH2 0x402 ADD MSTORE PUSH1 0x0 PUSH2 0x109 ADD MSTORE PUSH1 0x0 DUP2 DUP2 PUSH2 0x442 ADD MSTORE PUSH2 0x4D2 ADD MSTORE PUSH2 0xA8D PUSH1 0x0 RETURN INVALID PUSH1 0x80 PUSH1 0x40 MSTORE CALLVALUE DUP1 ISZERO PUSH2 0x10 JUMPI PUSH1 0x0 DUP1 REVERT JUMPDEST POP PUSH1 0x4 CALLDATASIZE LT PUSH2 0x62 JUMPI PUSH1 0x0 CALLDATALOAD PUSH1 0xE0 SHR DUP1 PUSH4 0x117803E3 EQ PUSH2 0x67 JUMPI DUP1 PUSH4 0x32FE7B26 EQ PUSH2 0x85 JUMPI DUP1 PUSH4 0x35FAA416 EQ PUSH2 0xA3 JUMPI DUP1 PUSH4 0x6744BB26 EQ PUSH2 0xAD JUMPI DUP1 PUSH4 0x89A30271 EQ PUSH2 0xCB JUMPI DUP1 PUSH4 0xEF187921 EQ PUSH2 0xE9 JUMPI JUMPDEST PUSH1 0x0 DUP1 REVERT JUMPDEST PUSH2 0x6F PUSH2 0x107 JUMP JUMPDEST PUSH1 0x40 MLOAD PUSH2 0x7C SWAP2 SWAP1 PUSH2 0x57D JUMP JUMPDEST PUSH1 0x40 MLOAD DUP1 SWAP2 SUB SWAP1 RETURN JUMPDEST PUSH2 0x8D PUSH2 0x12B JUMP JUMPDEST PUSH1 0x40 MLOAD PUSH2 0x9A SWAP2 SWAP1 PUSH2 0x57D JUMP JUMPDEST PUSH1 0x40 MLOAD DUP1 SWAP2 SUB SWAP1 RETURN JUMPDEST PUSH2 0xAB PUSH2 0x14F JUMP JUMPDEST STOP JUMPDEST PUSH2 0xB5 PUSH2 0x4D0 JUMP JUMPDEST PUSH1 0x40 MLOAD PUSH2 0xC2 SWAP2 SWAP1 PUSH2 0x57D JUMP JUMPDEST PUSH1 0x40 MLOAD DUP1 SWAP2 SUB SWAP1 RETURN JUMPDEST PUSH2 0xD3 PUSH2 0x4F4 JUMP JUMPDEST PUSH1 0x40 MLOAD PUSH2 0xE0 SWAP2 SWAP1 PUSH2 0x57D JUMP JUMPDEST PUSH1 0x40 MLOAD DUP1 SWAP2 SUB SWAP1 RETURN JUMPDEST PUSH2 0xF1 PUSH2 0x518 JUMP JUMPDEST PUSH1 0x40 MLOAD PUSH2 0xFE SWAP2 SWAP1 PUSH2 0x57D JUMP JUMPDEST PUSH1 0x40 MLOAD DUP1 SWAP2 SUB SWAP1 RETURN JUMPDEST PUSH32 0x0 DUP2 JUMP JUMPDEST PUSH32 0x0 DUP2 JUMP JUMPDEST PUSH1 0x0 PUSH32 0x0 SWAP1 POP PUSH1 0x0 DUP2 PUSH20 0xFFFFFFFFFFFFFFFFFFFFFFFFFFFFFFFFFFFFFFFF AND PUSH4 0x70A08231 ADDRESS PUSH1 0x40 MLOAD DUP3 PUSH4 0xFFFFFFFF AND PUSH1 0xE0 SHL DUP2 MSTORE PUSH1 0x4 ADD PUSH2 0x1AF SWAP2 SWAP1 PUSH2 0x57D JUMP JUMPDEST PUSH1 0x20 PUSH1 0x40 MLOAD DUP1 DUP4 SUB DUP2 DUP7 GAS STATICCALL ISZERO DUP1 ISZERO PUSH2 0x1CC JUMPI RETURNDATASIZE PUSH1 0x0 DUP1 RETURNDATACOPY RETURNDATASIZE PUSH1 0x0 REVERT JUMPDEST POP POP POP POP PUSH1 0x40 MLOAD RETURNDATASIZE PUSH1 0x1F NOT PUSH1 0x1F DUP3 ADD AND DUP3 ADD DUP1 PUSH1 0x40 MSTORE POP DUP2 ADD SWAP1 PUSH2 0x1F0 SWAP2 SWAP1 PUSH2 0x5E2 JUMP JUMPDEST SWAP1 POP PUSH1 0x0 DUP2 GT PUSH2 0x235 JUMPI PUSH1 0x40 MLOAD PUSH32 0x8C379A000000000000000000000000000000000000000000000000000000000 DUP2 MSTORE PUSH1 0x4 ADD PUSH2 0x22C SWAP1 PUSH2 0x66C JUMP JUMPDEST PUSH1 0x40 MLOAD DUP1 SWAP2 SUB SWAP1 REVERT JUMPDEST DUP2 PUSH20 0xFFFFFFFFFFFFFFFFFFFFFFFFFFFFFFFFFFFFFFFF AND PUSH4 0x95EA7B3 PUSH32 0x0 DUP4 PUSH1 0x40 MLOAD DUP4 PUSH4 0xFFFFFFFF AND PUSH1 0xE0 SHL DUP2 MSTORE PUSH1 0x4 ADD PUSH2 0x290 SWAP3 SWAP2 SWAP1 PUSH2 0x69B JUMP JUMPDEST PUSH1 0x20 PUSH1 0x40 MLOAD DUP1 DUP4 SUB DUP2 PUSH1 0x0 DUP8 GAS CALL ISZERO DUP1 ISZERO PUSH2 0x2AF JUMPI RETURNDATASIZE PUSH1 0x0 DUP1 RETURNDATACOPY RETURNDATASIZE PUSH1 0x0 REVERT JUMPDEST POP POP POP POP PUSH1 0x40 MLOAD RETURNDATASIZE PUSH1 0x1F NOT PUSH1 0x1F DUP3 ADD AND DUP3 ADD DUP1 PUSH1 0x40 MSTORE POP DUP2 ADD SWAP1 PUSH2 0x2D3 SWAP2 SWAP1 PUSH2 0x6FC JUMP JUMPDEST POP PUSH1 0x0 PUSH1 0x2 PUSH8 0xFFFFFFFFFFFFFFFF DUP2 GT ISZERO PUSH2 0x2F1 JUMPI PUSH2 0x2F0 PUSH2 0x729 JUMP JUMPDEST JUMPDEST PUSH1 0x40 MLOAD SWAP1 DUP1 DUP3 MSTORE DUP1 PUSH1 0x20 MUL PUSH1 0x20 ADD DUP3 ADD PUSH1 0x40 MSTORE DUP1 ISZERO PUSH2 0x31F JUMPI DUP2 PUSH1 0x20 ADD PUSH1 0x20 DUP3 MUL DUP1 CALLDATASIZE DUP4 CALLDATACOPY DUP1 DUP3 ADD SWAP2 POP POP SWAP1 POP JUMPDEST POP SWAP1 POP PUSH32 0x0 DUP2 PUSH1 0x0 DUP2 MLOAD DUP2 LT PUSH2 0x357 JUMPI PUSH2 0x356 PUSH2 0x758 JUMP JUMPDEST JUMPDEST PUSH1 0x20 MUL PUSH1 0x20 ADD ADD SWAP1 PUSH20 0xFFFFFFFFFFFFFFFFFFFFFFFFFFFFFFFFFFFFFFFF AND SWAP1 DUP2 PUSH20 0xFFFFFFFFFFFFFFFFFFFFFFFFFFFFFFFFFFFFFFFF AND DUP2 MSTORE POP POP PUSH32 0x0 DUP2 PUSH1 0x1 DUP2 MLOAD DUP2 LT PUSH2 0x3C6 JUMPI PUSH2 0x3C5 PUSH2 0x758 JUMP JUMPDEST JUMPDEST PUSH1 0x20 MUL PUSH1 0x20 ADD ADD SWAP1 PUSH20 0xFFFFFFFFFFFFFFFFFFFFFFFFFFFFFFFFFFFFFFFF AND SWAP1 DUP2 PUSH20 0xFFFFFFFFFFFFFFFFFFFFFFFFFFFFFFFFFFFFFFFF AND DUP2 MSTORE POP POP PUSH32 0x0 PUSH20 0xFFFFFFFFFFFFFFFFFFFFFFFFFFFFFFFFFFFFFFFF AND PUSH4 0x38ED1739 DUP4 PUSH1 0x0 DUP5 PUSH32 0x0 TIMESTAMP PUSH1 0x40 MLOAD DUP7 PUSH4 0xFFFFFFFF AND PUSH1 0xE0 SHL DUP2 MSTORE PUSH1 0x4 ADD PUSH2 0x482 SWAP6 SWAP5 SWAP4 SWAP3 SWAP2 SWAP1 PUSH2 0x88A JUMP JUMPDEST PUSH1 0x0 PUSH1 0x40 MLOAD DUP1 DUP4 SUB DUP2 PUSH1 0x0 DUP8 GAS CALL ISZERO DUP1 ISZERO PUSH2 0x4A1 JUMPI RETURNDATASIZE PUSH1 0x0 DUP1 RETURNDATACOPY RETURNDATASIZE PUSH1 0x0 REVERT JUMPDEST POP POP POP POP PUSH1 0x40 MLOAD RETURNDATASIZE PUSH1 0x0 DUP3 RETURNDATACOPY RETURNDATASIZE PUSH1 0x1F NOT PUSH1 0x1F DUP3 ADD AND DUP3 ADD DUP1 PUSH1 0x40 MSTORE POP DUP2 ADD SWAP1 PUSH2 0x4CA SWAP2 SWAP1 PUSH2 0xA0E JUMP JUMPDEST POP POP POP POP JUMP JUMPDEST PUSH32 0x0 DUP2 JUMP JUMPDEST PUSH32 0x0 DUP2 JUMP JUMPDEST PUSH32 0x0 DUP2 JUMP JUMPDEST PUSH1 0x0 PUSH20 0xFFFFFFFFFFFFFFFFFFFFFFFFFFFFFFFFFFFFFFFF DUP3 AND SWAP1 POP SWAP2 SWAP1 POP JUMP JUMPDEST PUSH1 0x0 PUSH2 0x567 DUP3 PUSH2 0x53C JUMP JUMPDEST SWAP1 POP SWAP2 SWAP1 POP JUMP JUMPDEST PUSH2 0x577 DUP2 PUSH2 0x55C JUMP JUMPDEST DUP3 MSTORE POP POP JUMP JUMPDEST PUSH1 0x0 PUSH1 0x20 DUP3 ADD SWAP1 POP PUSH2 0x592 PUSH1 0x0 DUP4 ADD DUP5 PUSH2 0x56E JUMP JUMPDEST SWAP3 SWAP2 POP POP JUMP JUMPDEST PUSH1 0x0 PUSH1 0x40 MLOAD SWAP1 POP SWAP1 JUMP JUMPDEST PUSH1 0x0 DUP1 REVERT JUMPDEST PUSH1 0x0 DUP1 REVERT JUMPDEST PUSH1 0x0 DUP2 SWAP1 POP SWAP2 SWAP1 POP JUMP JUMPDEST PUSH2 0x5BF DUP2 PUSH2 0x5AC JUMP JUMPDEST DUP2 EQ PUSH2 0x5CA JUMPI PUSH1 0x0 DUP1 REVERT JUMPDEST POP JUMP JUMPDEST PUSH1 0x0 DUP2 MLOAD SWAP1 POP PUSH2 0x5DC DUP2 PUSH2 0x5B6 JUMP JUMPDEST SWAP3 SWAP2 POP POP JUMP JUMPDEST PUSH1 0x0 PUSH1 0x20 DUP3 DUP5 SUB SLT ISZERO PUSH2 0x5F8 JUMPI PUSH2 0x5F7 PUSH2 0x5A2 JUMP JUMPDEST JUMPDEST PUSH1 0x0 PUSH2 0x606 DUP5 DUP3 DUP6 ADD PUSH2 0x5CD JUMP JUMPDEST SWAP2 POP POP SWAP3 SWAP2 POP POP JUMP JUMPDEST PUSH1 0x0 DUP3 DUP3 MSTORE PUSH1 0x20 DUP3 ADD SWAP1 POP SWAP3 SWAP2 POP POP JUMP JUMPDEST PUSH32 0x5A65726F2042616C616E63650000000000000000000000000000000000000000 PUSH1 0x0 DUP3 ADD MSTORE POP JUMP JUMPDEST PUSH1 0x0 PUSH2 0x656 PUSH1 0xC DUP4 PUSH2 0x60F JUMP JUMPDEST SWAP2 POP PUSH2 0x661 DUP3 PUSH2 0x620 JUMP JUMPDEST PUSH1 0x20 DUP3 ADD SWAP1 POP SWAP2 SWAP1 POP JUMP JUMPDEST PUSH1 0x0 PUSH1 0x20 DUP3 ADD SWAP1 POP DUP2 DUP2 SUB PUSH1 0x0 DUP4 ADD MSTORE PUSH2 0x685 DUP2 PUSH2 0x649 JUMP JUMPDEST SWAP1 POP SWAP2 SWAP1 POP JUMP JUMPDEST PUSH2 0x695 DUP2 PUSH2 0x5AC JUMP JUMPDEST DUP3 MSTORE POP POP JUMP JUMPDEST PUSH1 0x0 PUSH1 0x40 DUP3 ADD SWAP1 POP PUSH2 0x6B0 PUSH1 0x0 DUP4 ADD DUP6 PUSH2 0x56E JUMP JUMPDEST PUSH2 0x6BD PUSH1 0x20 DUP4 ADD DUP5 PUSH2 0x68C JUMP JUMPDEST SWAP4 SWAP3 POP POP POP JUMP JUMPDEST PUSH1 0x0 DUP2 ISZERO ISZERO SWAP1 POP SWAP2 SWAP1 POP JUMP JUMPDEST PUSH2 0x6D9 DUP2 PUSH2 0x6C4 JUMP JUMPDEST DUP2 EQ PUSH2 0x6E4 JUMPI PUSH1 0x0 DUP1 REVERT JUMPDEST POP JUMP JUMPDEST PUSH1 0x0 DUP2 MLOAD SWAP1 POP PUSH2 0x6F6 DUP2 PUSH2 0x6D0 JUMP JUMPDEST SWAP3 SWAP2 POP POP JUMP JUMPDEST PUSH1 0x0 PUSH1 0x20 DUP3 DUP5 SUB SLT ISZERO PUSH2 0x712 JUMPI PUSH2 0x711 PUSH2 0x5A2 JUMP JUMPDEST JUMPDEST PUSH1 0x0 PUSH2 0x720 DUP5 DUP3 DUP6 ADD PUSH2 0x6E7 JUMP JUMPDEST SWAP2 POP POP SWAP3 SWAP2 POP POP JUMP JUMPDEST PUSH32 0x4E487B7100000000000000000000000000000000000000000000000000000000 PUSH1 0x0 MSTORE PUSH1 0x41 PUSH1 0x4 MSTORE PUSH1 0x24 PUSH1 0x0 REVERT JUMPDEST PUSH32 0x4E487B7100000000000000000000000000000000000000000000000000000000 PUSH1 0x0 MSTORE PUSH1 0x32 PUSH1 0x4 MSTORE PUSH1 0x24 PUSH1 0x0 REVERT JUMPDEST PUSH1 0x0 DUP2 SWAP1 POP SWAP2 SWAP1 POP JUMP JUMPDEST PUSH1 0x0 DUP2 SWAP1 POP SWAP2 SWAP1 POP JUMP JUMPDEST PUSH1 0x0 PUSH2 0x7B6 PUSH2 0x7B1 PUSH2 0x7AC DUP5 PUSH2 0x787 JUMP JUMPDEST PUSH2 0x791 JUMP JUMPDEST PUSH2 0x5AC JUMP JUMPDEST SWAP1 POP SWAP2 SWAP1 POP JUMP JUMPDEST PUSH2 0x7C6 DUP2 PUSH2 0x79B JUMP JUMPDEST DUP3 MSTORE POP POP JUMP JUMPDEST PUSH1 0x0 DUP2 MLOAD SWAP1 POP SWAP2 SWAP1 POP JUMP JUMPDEST PUSH1 0x0 DUP3 DUP3 MSTORE PUSH1 0x20 DUP3 ADD SWAP1 POP SWAP3 SWAP2 POP POP JUMP JUMPDEST PUSH1 0x0 DUP2 SWAP1 POP PUSH1 0x20 DUP3 ADD SWAP1 POP SWAP2 SWAP1 POP JUMP JUMPDEST PUSH2 0x801 DUP2 PUSH2 0x55C JUMP JUMPDEST DUP3 MSTORE POP POP JUMP JUMPDEST PUSH1 0x0 PUSH2 0x813 DUP4 DUP4 PUSH2 0x7F8 JUMP JUMPDEST PUSH1 0x20 DUP4 ADD SWAP1 POP SWAP3 SWAP2 POP POP JUMP JUMPDEST PUSH1 0x0 PUSH1 0x20 DUP3 ADD SWAP1 POP SWAP2 SWAP1 POP JUMP JUMPDEST PUSH1 0x0 PUSH2 0x837 DUP3 PUSH2 0x7CC JUMP JUMPDEST PUSH2 0x841 DUP2 DUP6 PUSH2 0x7D7 JUMP JUMPDEST SWAP4 POP PUSH2 0x84C DUP4 PUSH2 0x7E8 JUMP JUMPDEST DUP1 PUSH1 0x0 JUMPDEST DUP4 DUP2 LT ISZERO PUSH2 0x87D JUMPI DUP2 MLOAD PUSH2 0x864 DUP9 DUP3 PUSH2 0x807 JUMP JUMPDEST SWAP8 POP PUSH2 0x86F DUP4 PUSH2 0x81F JUMP JUMPDEST SWAP3 POP POP PUSH1 0x1 DUP2 ADD SWAP1 POP PUSH2 0x850 JUMP JUMPDEST POP DUP6 SWAP4 POP POP POP POP SWAP3 SWAP2 POP POP JUMP JUMPDEST PUSH1 0x0 PUSH1 0xA0 DUP3 ADD SWAP1 POP PUSH2 0x89F PUSH1 0x0 DUP4 ADD DUP9 PUSH2 0x68C JUMP JUMPDEST PUSH2 0x8AC PUSH1 0x20 DUP4 ADD DUP8 PUSH2 0x7BD JUMP JUMPDEST DUP2 DUP2 SUB PUSH1 0x40 DUP4 ADD MSTORE PUSH2 0x8BE DUP2 DUP7 PUSH2 0x82C JUMP JUMPDEST SWAP1 POP PUSH2 0x8CD PUSH1 0x60 DUP4 ADD DUP6 PUSH2 0x56E JUMP JUMPDEST PUSH2 0x8DA PUSH1 0x80 DUP4 ADD DUP5 PUSH2 0x68C JUMP JUMPDEST SWAP7 SWAP6 POP POP POP POP POP POP JUMP JUMPDEST PUSH1 0x0 DUP1 REVERT JUMPDEST PUSH1 0x0 PUSH1 0x1F NOT PUSH1 0x1F DUP4 ADD AND SWAP1 POP SWAP2 SWAP1 POP JUMP JUMPDEST PUSH2 0x903 DUP3 PUSH2 0x8E9 JUMP JUMPDEST DUP2 ADD DUP2 DUP2 LT PUSH8 0xFFFFFFFFFFFFFFFF DUP3 GT OR ISZERO PUSH2 0x922 JUMPI PUSH2 0x921 PUSH2 0x729 JUMP JUMPDEST JUMPDEST DUP1 PUSH1 0x40 MSTORE POP POP POP JUMP JUMPDEST PUSH1 0x0 PUSH2 0x935 PUSH2 0x598 JUMP JUMPDEST SWAP1 POP PUSH2 0x941 DUP3 DUP3 PUSH2 0x8FA JUMP JUMPDEST SWAP2 SWAP1 POP JUMP JUMPDEST PUSH1 0x0 PUSH8 0xFFFFFFFFFFFFFFFF DUP3 GT ISZERO PUSH2 0x961 JUMPI PUSH2 0x960 PUSH2 0x729 JUMP JUMPDEST JUMPDEST PUSH1 0x20 DUP3 MUL SWAP1 POP PUSH1 0x20 DUP2 ADD SWAP1 POP SWAP2 SWAP1 POP JUMP JUMPDEST PUSH1 0x0 DUP1 REVERT JUMPDEST PUSH1 0x0 PUSH2 0x98A PUSH2 0x985 DUP5 PUSH2 0x946 JUMP JUMPDEST PUSH2 0x92B JUMP JUMPDEST SWAP1 POP DUP1 DUP4 DUP3 MSTORE PUSH1 0x20 DUP3 ADD SWAP1 POP PUSH1 0x20 DUP5 MUL DUP4 ADD DUP6 DUP2 GT ISZERO PUSH2 0x9AD JUMPI PUSH2 0x9AC PUSH2 0x972 JUMP JUMPDEST JUMPDEST DUP4 JUMPDEST DUP2 DUP2 LT ISZERO PUSH2 0x9D6 JUMPI DUP1 PUSH2 0x9C2 DUP9 DUP3 PUSH2 0x5CD JUMP JUMPDEST DUP5 MSTORE PUSH1 0x20 DUP5 ADD SWAP4 POP POP PUSH1 0x20 DUP2 ADD SWAP1 POP PUSH2 0x9AF JUMP JUMPDEST POP POP POP SWAP4 SWAP3 POP POP POP JUMP JUMPDEST PUSH1 0x0 DUP3 PUSH1 0x1F DUP4 ADD SLT PUSH2 0x9F5 JUMPI PUSH2 0x9F4 PUSH2 0x8E4 JUMP JUMPDEST JUMPDEST DUP2 MLOAD PUSH2 0xA05 DUP5 DUP3 PUSH1 0x20 DUP7 ADD PUSH2 0x977 JUMP JUMPDEST SWAP2 POP POP SWAP3 SWAP2 POP POP JUMP JUMPDEST PUSH1 0x0 PUSH1 0x20 DUP3 DUP5 SUB SLT ISZERO PUSH2 0xA24 JUMPI PUSH2 0xA23 PUSH2 0x5A2 JUMP JUMPDEST JUMPDEST PUSH1 0x0 DUP3 ADD MLOAD PUSH8 0xFFFFFFFFFFFFFFFF DUP2 GT ISZERO PUSH2 0xA42 JUMPI PUSH2 0xA41 PUSH2 0x5A7 JUMP JUMPDEST JUMPDEST PUSH2 0xA4E DUP5 DUP3 DUP6 ADD PUSH2 0x9E0 JUMP JUMPDEST SWAP2 POP POP SWAP3 SWAP2 POP POP JUMP INVALID LOG2 PUSH5 0x6970667358 0x22 SLT KECCAK256 DELEGATECALL EQ 0xB4 PUSH1 0x18 0xA6 0xC PUSH32 0x12048A6CC3AE1F6BA04FB04203BDD23AECE2EC1977681BD964736F6C63430008 BYTE STOP CALLER LOG2 PUSH5 0x6970667358 0x22 SLT KECCAK256 DUP1 0xDD PUSH32 0x9D4A54B10905CBF22C4D19E498039EF335634E769BBD36E7CA6AE1F67264736F PUSH13 0x634300081A0033000000000000 "},"methodIdentifiers":{"coldWallet()":"6be13c92","deployVault(bytes32,address)":"e058beea","getVaultAddress(bytes32,address)":"01ac60e8","idrx()":"e172c609","router()":"f887ea40","usdc()":"3e413bee"}}}}}