{"contracts/LokaVault.sol":{"LokaVault":{"abi":[{"inputs":[{"internalType":"address","name":"_owner","type":"address"},{"internalType":"address","name":"_coldWallet","type":"address"},{"internalType":"address","name":"_router","type":"address"},{"internalType":"address","name":"_usdc","type":"address"},{"internalType":"address","name":"_idrx","type":"address"}],"stateMutability":"nonpayable","type":"constructor"},{"inputs":[],"name":"COLD_WALLET","outputs":[{"internalType":"address","name":"","type":"address"}],"stateMutability":"view","type":"function"},{"inputs":[],"name":"IDRX","outputs":[{"internalType":"address","name":"","type":"address"}],"stateMutability":"view","type":"function"},{"inputs":[],"name":"OWNER","outputs":[{"internalType":"address","name":"","type":"address"}],"stateMutability":"view","type":"function"},{"inputs":[],"name":"ROUTER","outputs":[{"internalType":"address","name":"","type":"address"}],"stateMutability":"view","type":"function"},{"inputs":[],"name":"USDC","outputs":[{"internalType":"address","name":"","type":"address"}],"stateMutability":"view","type":"function"},{"inputs":[],"name":"sweep","outputs":[],"stateMutability":"nonpayable","type":"function"}],"evm":{"bytecode":{"linkReferences":{},"object":"61012060405234801561001157600080fd5b50604051610d1b380380610d1b833981810160405281019061003391906101a5565b8473ffffffffffffffffffffffffffffffffffffffff1660a08173ffffffffffffffffffffffffffffffffffffffff16815250508373ffffffffffffffffffffffffffffffffffffffff1660808173ffffffffffffffffffffffffffffffffffffffff16815250508273ffffffffffffffffffffffffffffffffffffffff1660c08173ffffffffffffffffffffffffffffffffffffffff16815250508173ffffffffffffffffffffffffffffffffffffffff1660e08173ffffffffffffffffffffffffffffffffffffffff16815250508073ffffffffffffffffffffffffffffffffffffffff166101008173ffffffffffffffffffffffffffffffffffffffff16815250505050505050610220565b600080fd5b600073ffffffffffffffffffffffffffffffffffffffff82169050919050565b600061017282610147565b9050919050565b61018281610167565b811461018d57600080fd5b50565b60008151905061019f81610179565b92915050565b600080600080600060a086880312156101c1576101c0610142565b5b60006101cf88828901610190565b95505060206101e088828901610190565b94505060406101f188828901610190565b935050606061020288828901610190565b925050608061021388828901610190565b9150509295509295909350565b60805160a05160c05160e05161010051610a8d61028e60003960008181610393015261051a0152600081816101530152818161032401526104f601526000818161012d0152818161025301526104020152600061010901526000818161044201526104d20152610a8d6000f3fe608060405234801561001057600080fd5b50600436106100625760003560e01c8063117803e31461006757806332fe7b261461008557806335faa416146100a35780636744bb26146100ad57806389a30271146100cb578063ef187921146100e9575b600080fd5b61006f610107565b60405161007c919061057d565b60405180910390f35b61008d61012b565b60405161009a919061057d565b60405180910390f35b6100ab61014f565b005b6100b56104d0565b6040516100c2919061057d565b60405180910390f35b6100d36104f4565b6040516100e0919061057d565b60405180910390f35b6100f1610518565b6040516100fe919061057d565b60405180910390f35b7f000000000000000000000000000000000000000000000000000000000000000081565b7f000000000000000000000000000000000000000000000000000000000000000081565b60007f0000000000000000000000000000000000000000000000000000000000000000905060008173ffffffffffffffffffffffffffffffffffffffff166370a08231306040518263ffffffff1660e01b81526004016101af919061057d565b602060405180830381865afa1580156101cc573d6000803e3d6000fd5b505050506040513d601f19601f820116820180604052508101906101f091906105e2565b905060008111610235576040517f08c379a000000000000000000000000000000000000000000000000000000000815260040161022c9061066c565b60405180910390fd5b8173ffffffffffffffffffffffffffffffffffffffff1663095ea7b37f0000000000000000000000000000000000000000000000000000000000000000836040518363ffffffff1660e01b815260040161029092919061069b565b6020604051808303816000875af11580156102af573d6000803e3d6000fd5b505050506040513d601f19601f820116820180604052508101906102d391906106fc565b506000600267ffffffffffffffff8111156102f1576102f0610729565b5b60405190808252806020026020018201604052801561031f5781602001602082028036833780820191505090505b5090507f00000000000000000000000000000000000000000000000000000000000000008160008151811061035757610356610758565b5b602002602001019073ffffffffffffffffffffffffffffffffffffffff16908173ffffffffffffffffffffffffffffffffffffffff16815250507f0000000000000000000000000000000000000000000000000000000000000000816001815181106103c6576103c5610758565b5b602002602001019073ffffffffffffffffffffffffffffffffffffffff16908173ffffffffffffffffffffffffffffffffffffffff16815250507f000000000000000000000000000000000000000000000000000000000000000073ffffffffffffffffffffffffffffffffffffffff166338ed1739836000847f0000000000000000000000000000000000000000000000000000000000000000426040518663ffffffff1660e01b815260040161048295949392919061088a565b6000604051808303816000875af11580156104a1573d6000803e3d6000fd5b505050506040513d6000823e3d601f19601f820116820180604052508101906104ca9190610a0e565b50505050565b7f000000000000000000000000000000000000000000000000000000000000000081565b7f000000000000000000000000000000000000000000000000000000000000000081565b7f000000000000000000000000000000000000000000000000000000000000000081565b600073ffffffffffffffffffffffffffffffffffffffff82169050919050565b60006105678261053c565b9050919050565b6105778161055c565b82525050565b6000602082019050610592600083018461056e565b92915050565b6000604051905090565b600080fd5b600080fd5b6000819050919050565b6105bf816105ac565b81146105ca57600080fd5b50565b6000815190506105dc816105b6565b92915050565b6000602082840312156105f8576105f76105a2565b5b6000610606848285016105cd565b91505092915050565b600082825260208201905092915050565b7f5a65726f2042616c616e63650000000000000000000000000000000000000000600082015250565b6000610656600c8361060f565b915061066182610620565b602082019050919050565b6000602082019050818103600083015261068581610649565b9050919050565b610695816105ac565b82525050565b60006040820190506106b0600083018561056e565b6106bd602083018461068c565b9392505050565b60008115159050919050565b6106d9816106c4565b81146106e457600080fd5b50565b6000815190506106f6816106d0565b92915050565b600060208284031215610712576107116105a2565b5b6000610720848285016106e7565b91505092915050565b7f4e487b7100000000000000000000000000000000000000000000000000000000600052604160045260246000fd5b7f4e487b7100000000000000000000000000000000000000000000000000000000600052603260045260246000fd5b6000819050919050565b6000819050919050565b60006107b66107b16107ac84610787565b610791565b6105ac565b9050919050565b6107c68161079b565b82525050565b600081519050919050565b600082825260208201905092915050565b6000819050602082019050919050565b6108018161055c565b82525050565b600061081383836107f8565b60208301905092915050565b6000602082019050919050565b6000610837826107cc565b61084181856107d7565b935061084c836107e8565b8060005b8381101561087d5781516108648882610807565b975061086f8361081f565b925050600181019050610850565b5085935050505092915050565b600060a08201905061089f600083018861068c565b6108ac60208301876107bd565b81810360408301526108be818661082c565b90506108cd606083018561056e565b6108da608083018461068c565b9695505050505050565b600080fd5b6000601f19601f8301169050919050565b610903826108e9565b810181811067ffffffffffffffff8211171561092257610921610729565b5b80604052505050565b6000610935610598565b905061094182826108fa565b919050565b600067ffffffffffffffff82111561096157610960610729565b5b602082029050602081019050919050565b600080fd5b600061098a61098584610946565b61092b565b905080838252602082019050602084028301858111156109ad576109ac610972565b5b835b818110156109d657806109c288826105cd565b8452602084019350506020810190506109af565b5050509392505050565b600082601f8301126109f5576109f46108e4565b5b8151610a05848260208601610977565b91505092915050565b600060208284031215610a2457610a236105a2565b5b600082015167ffffffffffffffff811115610a4257610a416105a7565b5b610a4e848285016109e0565b9150509291505056fea2646970667358221220f414b46018a60c7f12048a6cc3ae1f6ba04fb04203bdd23aece2ec1977681bd964736f6c634300081a0033","opcodes":"PUSH2 0x120 PUSH1 0x40 MSTORE CALLVALUE DUP1 ISZERO PUSH2 0x11 JUMPI PUSH1 0x0 DUP1 REVERT JUMPDEST POP PUSH1 0x40 MLOAD PUSH2 0xD1B CODESIZE SUB DUP1 PUSH2 0xD1B DUP4 CODECOPY DUP2 DUP2 ADD PUSH1 0x40 MSTORE DUP2 ADD SWAP1 PUSH2 0x33 SWAP2 SWAP1 PUSH2 0x1A5 JUMP JUMPDEST DUP5 PUSH20 0xFFFFFFFFFFFFFFFFFFFFFFFFFFFFFFFFFFFFFFFF AND PUSH1 0xA0 DUP2 PUSH20 0xFFFFFFFFFFFFFFFFFFFFFFFFFFFFFFFFFFFFFFFF AND DUP2 MSTORE POP POP DUP4 PUSH20 0xFFFFFFFFFFFFFFFFFFFFFFFFFFFFFFFFFFFFFFFF AND PUSH1 0x80 DUP2 PUSH20 0xFFFFFFFFFFFFFFFFFFFFFFFFFFFFFFFFFFFFFFFF AND DUP2 MSTORE POP POP DUP3 PUSH20 0xFFFFFFFFFFFFFFFFFFFFFFFFFFFFFFFFFFFFFFFF AND PUSH1 0xC0 DUP2 PUSH20 0xFFFFFFFFFFFFFFFFFFFFFFFFFFFFFFFFFFFFFFFF AND DUP2 MSTORE POP POP DUP2 PUSH20 0xFFFFFFFFFFFFFFFFFFFFFFFFFFFFFFFFFFFFFFFF AND PUSH1 0xE0 DUP2 PUSH20 0xFFFFFFFFFFFFFFFFFFFFFFFFFFFFFFFFFFFFFFFF AND DUP2 MSTORE POP POP DUP1 PUSH20 0xFFFFFFFFFFFFFFFFFFFFFFFFFFFFFFFFFFFFFFFF AND PUSH2 0x100 DUP2 PUSH20 0xFFFFFFFFFFFFFFFFFFFFFFFFFFFFFFFFFFFFFFFF AND DUP2 MSTORE POP POP POP POP POP POP POP PUSH2 0x220 JUMP JUMPDEST PUSH1 0x0 DUP1 REVERT JUMPDEST PUSH1 0x0 PUSH20 0xFFFFFFFFFFFFFFFFFFFFFFFFFFFFFFFFFFFFFFFF DUP3 AND SWAP1 POP SWAP2 SWAP1 POP JUMP JUMPDEST PUSH1 0x0 PUSH2 0x172 DUP3 PUSH2 0x147 JUMP JUMPDEST SWAP1 POP SWAP2 SWAP1 POP JUMP JUMPDEST PUSH2 0x182 DUP2 PUSH2 0x167 JUMP JUMPDEST DUP2 EQ PUSH2 0x18D JUMPI PUSH1 0x0 DUP1 REVERT JUMPDEST POP JUMP JUMPDEST PUSH1 0x0 DUP2 MLOAD SWAP1 POP PUSH2 0x19F DUP2 PUSH2 0x179 JUMP JUMPDEST SWAP3 SWAP2 POP POP JUMP JUMPDEST PUSH1 0x0 DUP1 PUSH1 0x0 DUP1 PUSH1 0x0 PUSH1 0xA0 DUP7 DUP9 SUB SLT ISZERO PUSH2 0x1C1 JUMPI PUSH2 0x1C0 PUSH2 0x142 JUMP JUMPDEST JUMPDEST PUSH1 0x0 PUSH2 0x1CF DUP9 DUP3 DUP10 ADD PUSH2 0x190 JUMP JUMPDEST SWAP6 POP POP PUSH1 0x20 PUSH2 0x1E0 DUP9 DUP3 DUP10 ADD PUSH2 0x190 JUMP JUMPDEST SWAP5 POP POP PUSH1 0x40 PUSH2 0x1F1 DUP9 DUP3 DUP10 ADD PUSH2 0x190 JUMP JUMPDEST SWAP4 POP POP PUSH1 0x60 PUSH2 0x202 DUP9 DUP3 DUP10 ADD PUSH2 0x190 JUMP JUMPDEST SWAP3 POP POP PUSH1 0x80 PUSH2 0x213 DUP9 DUP3 DUP10 ADD PUSH2 0x190 JUMP JUMPDEST SWAP2 POP POP SWAP3 SWAP6 POP SWAP3 SWAP6 SWAP1 SWAP4 POP JUMP JUMPDEST PUSH1 0x80 MLOAD PUSH1 0xA0 MLOAD PUSH1 0xC0 MLOAD PUSH1 0xE0 MLOAD PUSH2 0x100 MLOAD PUSH2 0xA8D PUSH2 0x28E PUSH1 0x0 CODECOPY PUSH1 0x0 DUP2 DUP2 PUSH2 0x393 ADD MSTORE PUSH2 0x51A ADD MSTORE PUSH1 0x0 DUP2 DUP2 PUSH2 0x153 ADD MSTORE DUP2 DUP2 PUSH2 0x324 ADD MSTORE PUSH2 0x4F6 ADD MSTORE PUSH1 0x0 DUP2 DUP2 PUSH2 0x12D ADD MSTORE DUP2 DUP2 PUSH2 0x253 ADD MSTORE PUSH2 0x402 ADD MSTORE PUSH1 0x0 PUSH2 0x109 ADD MSTORE PUSH1 0x0 DUP2 DUP2 PUSH2 0x442 ADD MSTORE PUSH2 0x4D2 ADD MSTORE PUSH2 0xA8D PUSH1 0x0 RETURN INVALID PUSH1 0x80 PUSH1 0x40 MSTORE CALLVALUE DUP1 ISZERO PUSH2 0x10 JUMPI PUSH1 0x0 DUP1 REVERT JUMPDEST POP PUSH1 0x4 CALLDATASIZE LT PUSH2 0x62 JUMPI PUSH1 0x0 CALLDATALOAD PUSH1 0xE0 SHR DUP1 PUSH4 0x117803E3 EQ PUSH2 0x67 JUMPI DUP1 PUSH4 0x32FE7B26 EQ PUSH2 0x85 JUMPI DUP1 PUSH4 0x35FAA416 EQ PUSH2 0xA3 JUMPI DUP1 PUSH4 0x6744BB26 EQ PUSH2 0xAD JUMPI DUP1 PUSH4 0x89A30271 EQ PUSH2 0xCB JUMPI DUP1 PUSH4 0xEF187921 EQ PUSH2 0xE9 JUMPI JUMPDEST PUSH1 0x0 DUP1 REVERT JUMPDEST PUSH2 0x6F PUSH2 0x107 JUMP JUMPDEST PUSH1 0x40 MLOAD PUSH2 0x7C SWAP2 SWAP1 PUSH2 0x57D JUMP JUMPDEST PUSH1 0x40 MLOAD DUP1 SWAP2 SUB SWAP1 RETURN JUMPDEST PUSH2 0x8D PUSH2 0x12B JUMP JUMPDEST PUSH1 0x40 MLOAD PUSH2 0x9A SWAP2 SWAP1 PUSH2 0x57D JUMP JUMPDEST PUSH1 0x40 MLOAD DUP1 SWAP2 SUB SWAP1 RETURN JUMPDEST PUSH2 0xAB PUSH2 0x14F JUMP JUMPDEST STOP JUMPDEST PUSH2 0xB5 PUSH2 0x4D0 JUMP JUMPDEST PUSH1 0x40 MLOAD PUSH2 0xC2 SWAP2 SWAP1 PUSH2 0x57D JUMP JUMPDEST PUSH1 0x40 MLOAD DUP1 SWAP2 SUB SWAP1 RETURN JUMPDEST PUSH2 0xD3 PUSH2 0x4F4 JUMP JUMPDEST PUSH1 0x40 MLOAD PUSH2 0xE0 SWAP2 SWAP1 PUSH2 0x57D JUMP JUMPDEST PUSH1 0x40 MLOAD DUP1 SWAP2 SUB SWAP1 RETURN JUMPDEST PUSH2 0xF1 PUSH2 0x518 JUMP JUMPDEST PUSH1 0x40 MLOAD PUSH2 0xFE SWAP2 SWAP1 PUSH2 0x57D JUMP JUMPDEST PUSH1 0x40 MLOAD DUP1 SWAP2 SUB SWAP1 RETURN JUMPDEST PUSH32 0x0 DUP2 JUMP JUMPDEST PUSH32 0x0 DUP2 JUMP JUMPDEST PUSH1 0x0 PUSH32 0x0 SWAP1 POP PUSH1 0x0 DUP2 PUSH20 0xFFFFFFFFFFFFFFFFFFFFFFFFFFFFFFFFFFFFFFFF AND PUSH4 0x70A08231 ADDRESS PUSH1 0x40 MLOAD DUP3 PUSH4 0xFFFFFFFF AND PUSH1 0xE0 SHL DUP2 MSTORE PUSH1 0x4 ADD PUSH2 0x1AF SWAP2 SWAP1 PUSH2 0x57D JUMP JUMPDEST PUSH1 0x20 PUSH1 0x40 MLOAD DUP1 DUP4 SUB DUP2 DUP7 GAS STATICCALL ISZERO DUP1 ISZERO PUSH2 0x1CC JUMPI RETURNDATASIZE PUSH1 0x0 DUP1 RETURNDATACOPY RETURNDATASIZE PUSH1 0x0 REVERT JUMPDEST POP POP POP POP PUSH1 0x40 MLOAD RETURNDATASIZE PUSH1 0x1F NOT PUSH1 0x1F DUP3 ADD AND DUP3 ADD DUP1 PUSH1 0x40 MSTORE POP DUP2 ADD SWAP1 PUSH2 0x1F0 SWAP2 SWAP1 PUSH2 0x5E2 JUMP JUMPDEST SWAP1 POP PUSH1 0x0 DUP2 GT PUSH2 0x235 JUMPI PUSH1 0x40 MLOAD PUSH32 0x8C379A000000000000000000000000000000000000000000000000000000000 DUP2 MSTORE PUSH1 0x4 ADD PUSH2 0x22C SWAP1 PUSH2 0x66C JUMP JUMPDEST PUSH1 0x40 MLOAD DUP1 SWAP2 SUB SWAP1 REVERT JUMPDEST DUP2 PUSH20 0xFFFFFFFFFFFFFFFFFFFFFFFFFFFFFFFFFFFFFFFF AND PUSH4 0x95EA7B3 PUSH32 0x0 DUP4 PUSH1 0x40 MLOAD DUP4 PUSH4 0xFFFFFFFF AND PUSH1 0xE0 SHL DUP2 MSTORE PUSH1 0x4 ADD PUSH2 0x290 SWAP3 SWAP2 SWAP1 PUSH2 0x69B JUMP JUMPDEST PUSH1 0x20 PUSH1 0x40 MLOAD DUP1 DUP4 SUB DUP2 PUSH1 0x0 DUP8 GAS CALL ISZERO DUP1 ISZERO PUSH2 0x2AF JUMPI RETURNDATASIZE PUSH1 0x0 DUP1 RETURNDATACOPY RETURNDATASIZE PUSH1 0x0 REVERT JUMPDEST POP POP POP POP PUSH1 0x40 MLOAD RETURNDATASIZE PUSH1 0x1F NOT PUSH1 0x1F DUP3 ADD AND DUP3 ADD DUP1 PUSH1 0x40 MSTORE POP DUP2 ADD SWAP1 PUSH2 0x2D3 SWAP2 SWAP1 PUSH2 0x6FC JUMP JUMPDEST POP PUSH1 0x0 PUSH1 0x2 PUSH8 0xFFFFFFFFFFFFFFFF DUP2 GT ISZERO PUSH2 0x2F1 JUMPI PUSH2 0x2F0 PUSH2 0x729 JUMP JUMPDEST JUMPDEST PUSH1 0x40 MLOAD SWAP1 DUP1 DUP3 MSTORE DUP1 PUSH1 0x20 MUL PUSH1 0x20 ADD DUP3 ADD PUSH1 0x40 MSTORE DUP1 ISZERO PUSH2 0x31F JUMPI DUP2 PUSH1 0x20 ADD PUSH1 0x20 DUP3 MUL DUP1 CALLDATASIZE DUP4 CALLDATACOPY DUP1 DUP3 ADD SWAP2 POP POP SWAP1 POP JUMPDEST POP SWAP1 POP PUSH32 0x0 DUP2 PUSH1 0x0 DUP2 MLOAD DUP2 LT PUSH2 0x357 JUMPI PUSH2 0x356 PUSH2 0x758 JUMP JUMPDEST JUMPDEST PUSH1 0x20 MUL PUSH1 0x20 ADD ADD SWAP1 PUSH20 0xFFFFFFFFFFFFFFFFFFFFFFFFFFFFFFFFFFFFFFFF AND SWAP1 DUP2 PUSH20 0xFFFFFFFFFFFFFFFFFFFFFFFFFFFFFFFFFFFFFFFF AND DUP2 MSTORE POP POP PUSH32 0x0 DUP2 PUSH1 0x1 DUP2 MLOAD DUP2 LT PUSH2 0x3C6 JUMPI PUSH2 0x3C5 PUSH2 0x758 JUMP JUMPDEST JUMPDEST PUSH1 0x20 MUL PUSH1 0x20 ADD ADD SWAP1 PUSH20 0xFFFFFFFFFFFFFFFFFFFFFFFFFFFFFFFFFFFFFFFF AND SWAP1 DUP2 PUSH20 0xFFFFFFFFFFFFFFFFFFFFFFFFFFFFFFFFFFFFFFFF AND DUP2 MSTORE POP POP PUSH32 0x0 PUSH20 0xFFFFFFFFFFFFFFFFFFFFFFFFFFFFFFFFFFFFFFFF AND PUSH4 0x38ED1739 DUP4 PUSH1 0x0 DUP5 PUSH32 0x0 TIMESTAMP PUSH1 0x40 MLOAD DUP7 PUSH4 0xFFFFFFFF AND PUSH1 0xE0 SHL DUP2 MSTORE PUSH1 0x4 ADD PUSH2 0x482 SWAP6 SWAP5 SWAP4 SWAP3 SWAP2 SWAP1 PUSH2 0x88A JUMP JUMPDEST PUSH1 0x0 PUSH1 0x40 MLOAD DUP1 DUP4 SUB DUP2 PUSH1 0x0 DUP8 GAS CALL ISZERO DUP1 ISZERO PUSH2 0x4A1 JUMPI RETURNDATASIZE PUSH1 0x0 DUP1 RETURNDATACOPY RETURNDATASIZE PUSH1 0x0 REVERT JUMPDEST POP POP POP POP PUSH1 0x40 MLOAD RETURNDATASIZE PUSH1 0x0 DUP3 RETURNDATACOPY RETURNDATASIZE PUSH1 0x1F NOT PUSH1 0x1F DUP3 ADD AND DUP3 ADD DUP1 PUSH1 0x40 MSTORE POP DUP2 ADD SWAP1 PUSH2 0x4CA SWAP2 SWAP1 PUSH2 0xA0E JUMP JUMPDEST POP POP POP POP JUMP JUMPDEST PUSH32 0x0 DUP2 JUMP JUMPDEST PUSH32 0x0 DUP2 JUMP JUMPDEST PUSH32 0x0 DUP2 JUMP JUMPDEST PUSH1 0x0 PUSH20 0xFFFFFFFFFFFFFFFFFFFFFFFFFFFFFFFFFFFFFFFF DUP3 AND SWAP1 POP SWAP2 SWAP1 POP JUMP JUMPDEST PUSH1 0x0 PUSH2 0x567 DUP3 PUSH2 0x53C JUMP JUMPDEST SWAP1 POP SWAP2 SWAP1 POP JUMP JUMPDEST PUSH2 0x577 DUP2 PUSH2 0x55C JUMP JUMPDEST DUP3 MSTORE POP POP JUMP JUMPDEST PUSH1 0x0 PUSH1 0x20 DUP3 ADD SWAP1 POP PUSH2 0x592 PUSH1 0x0 DUP4 ADD DUP5 PUSH2 0x56E JUMP JUMPDEST SWAP3 SWAP2 POP POP JUMP JUMPDEST PUSH1 0x0 PUSH1 0x40 MLOAD SWAP1 POP SWAP1 JUMP JUMPDEST PUSH1 0x0 DUP1 REVERT JUMPDEST PUSH1 0x0 DUP1 REVERT JUMPDEST PUSH1 0x0 DUP2 SWAP1 POP SWAP2 SWAP1 POP JUMP JUMPDEST PUSH2 0x5BF DUP2 PUSH2 0x5AC JUMP JUMPDEST DUP2 EQ PUSH2 0x5CA JUMPI PUSH1 0x0 DUP1 REVERT JUMPDEST POP JUMP JUMPDEST PUSH1 0x0 DUP2 MLOAD SWAP1 POP PUSH2 0x5DC DUP2 PUSH2 0x5B6 JUMP JUMPDEST SWAP3 SWAP2 POP POP JUMP JUMPDEST PUSH1 0x0 PUSH1 0x20 DUP3 DUP5 SUB SLT ISZERO PUSH2 0x5F8 JUMPI PUSH2 0x5F7 PUSH2 0x5A2 JUMP JUMPDEST JUMPDEST PUSH1 0x0 PUSH2 0x606 DUP5 DUP3 DUP6 ADD PUSH2 0x5CD JUMP JUMPDEST SWAP2 POP POP SWAP3 SWAP2 POP POP JUMP JUMPDEST PUSH1 0x0 DUP3 DUP3 MSTORE PUSH1 0x20 DUP3 ADD SWAP1 POP SWAP3 SWAP2 POP POP JUMP JUMPDEST PUSH32 0x5A65726F2042616C616E63650000000000000000000000000000000000000000 PUSH1 0x0 DUP3 ADD MSTORE POP JUMP JUMPDEST PUSH1 0x0 PUSH2 0x656 PUSH1 0xC DUP4 PUSH2 0x60F JUMP JUMPDEST SWAP2 POP PUSH2 0x661 DUP3 PUSH2 0x620 JUMP JUMPDEST PUSH1 0x20 DUP3 ADD SWAP1 POP SWAP2 SWAP1 POP JUMP JUMPDEST PUSH1 0x0 PUSH1 0x20 DUP3 ADD SWAP1 POP DUP2 DUP2 SUB PUSH1 0x0 DUP4 ADD MSTORE PUSH2 0x685 DUP2 PUSH2 0x649 JUMP JUMPDEST SWAP1 POP SWAP2 SWAP1 POP JUMP JUMPDEST PUSH2 0x695 DUP2 PUSH2 0x5AC JUMP JUMPDEST DUP3 MSTORE POP POP JUMP JUMPDEST PUSH1 0x0 PUSH1 0x40 DUP3 ADD SWAP1 POP PUSH2 0x6B0 PUSH1 0x0 DUP4 ADD DUP6 PUSH2 0x56E JUMP JUMPDEST PUSH2 0x6BD PUSH1 0x20 DUP4 ADD DUP5 PUSH2 0x68C JUMP JUMPDEST SWAP4 SWAP3 POP POP POP JUMP JUMPDEST PUSH1 0x0 DUP2 ISZERO ISZERO SWAP1 POP SWAP2 SWAP1 POP JUMP JUMPDEST PUSH2 0x6D9 DUP2 PUSH2 0x6C4 JUMP JUMPDEST DUP2 EQ PUSH2 0x6E4 JUMPI PUSH1 0x0 DUP1 REVERT JUMPDEST POP JUMP JUMPDEST PUSH1 0x0 DUP2 MLOAD SWAP1 POP PUSH2 0x6F6 DUP2 PUSH2 0x6D0 JUMP JUMPDEST SWAP3 SWAP2 POP POP JUMP JUMPDEST PUSH1 0x0 PUSH1 0x20 DUP3 DUP5 SUB SLT ISZERO PUSH2 0x712 JUMPI PUSH2 0x711 PUSH2 0x5A2 JUMP JUMPDEST JUMPDEST PUSH1 0x0 PUSH2 0x720 DUP5 DUP3 DUP6 ADD PUSH2 0x6E7 JUMP JUMPDEST SWAP2 POP POP SWAP3 SWAP2 POP POP JUMP JUMPDEST PUSH32 0x4E487B7100000000000000000000000000000000000000000000000000000000 PUSH1 0x0 MSTORE PUSH1 0x41 PUSH1 0x4 MSTORE PUSH1 0x24 PUSH1 0x0 REVERT JUMPDEST PUSH32 0x4E487B7100000000000000000000000000000000000000000000000000000000 PUSH1 0x0 MSTORE PUSH1 0x32 PUSH1 0x4 MSTORE PUSH1 0x24 PUSH1 0x0 REVERT JUMPDEST PUSH1 0x0 DUP2 SWAP1 POP SWAP2 SWAP1 POP JUMP JUMPDEST PUSH1 0x0 DUP2 SWAP1 POP SWAP2 SWAP1 POP JUMP JUMPDEST PUSH1 0x0 PUSH2 0x7B6 PUSH2 0x7B1 PUSH2 0x7AC DUP5 PUSH2 0x787 JUMP JUMPDEST PUSH2 0x791 JUMP JUMPDEST PUSH2 0x5AC JUMP JUMPDEST SWAP1 POP SWAP2 SWAP1 POP JUMP JUMPDEST PUSH2 0x7C6 DUP2 PUSH2 0x79B JUMP JUMPDEST DUP3 MSTORE POP POP JUMP JUMPDEST PUSH1 0x0 DUP2 MLOAD SWAP1 POP SWAP2 SWAP1 POP JUMP JUMPDEST PUSH1 0x0 DUP3 DUP3 MSTORE PUSH1 0x20 DUP3 ADD SWAP1 POP SWAP3 SWAP2 POP POP JUMP JUMPDEST PUSH1 0x0 DUP2 SWAP1 POP PUSH1 0x20 DUP3 ADD SWAP1 POP SWAP2 SWAP1 POP JUMP JUMPDEST PUSH2 0x801 DUP2 PUSH2 0x55C JUMP JUMPDEST DUP3 MSTORE POP POP JUMP JUMPDEST PUSH1 0x0 PUSH2 0x813 DUP4 DUP4 PUSH2 0x7F8 JUMP JUMPDEST PUSH1 0x20 DUP4 ADD SWAP1 POP SWAP3 SWAP2 POP POP JUMP JUMPDEST PUSH1 0x0 PUSH1 0x20 DUP3 ADD SWAP1 POP SWAP2 SWAP1 POP JUMP JUMPDEST PUSH1 0x0 PUSH2 0x837 DUP3 PUSH2 0x7CC JUMP JUMPDEST PUSH2 0x841 DUP2 DUP6 PUSH2 0x7D7 JUMP JUMPDEST SWAP4 POP PUSH2 0x84C DUP4 PUSH2 0x7E8 JUMP JUMPDEST DUP1 PUSH1 0x0 JUMPDEST DUP4 DUP2 LT ISZERO PUSH2 0x87D JUMPI DUP2 MLOAD PUSH2 0x864 DUP9 DUP3 PUSH2 0x807 JUMP JUMPDEST SWAP8 POP PUSH2 0x86F DUP4 PUSH2 0x81F JUMP JUMPDEST SWAP3 POP POP PUSH1 0x1 DUP2 ADD SWAP1 POP PUSH2 0x850 JUMP JUMPDEST POP DUP6 SWAP4 POP POP POP POP SWAP3 SWAP2 POP POP JUMP JUMPDEST PUSH1 0x0 PUSH1 0xA0 DUP3 ADD SWAP1 POP PUSH2 0x89F PUSH1 0x0 DUP4 ADD DUP9 PUSH2 0x68C JUMP JUMPDEST PUSH2 0x8AC PUSH1 0x20 DUP4 ADD DUP8 PUSH2 0x7BD JUMP JUMPDEST DUP2 DUP2 SUB PUSH1 0x40 DUP4 ADD MSTORE PUSH2 0x8BE DUP2 DUP7 PUSH2 0x82C JUMP JUMPDEST SWAP1 POP PUSH2 0x8CD PUSH1 0x60 DUP4 ADD DUP6 PUSH2 0x56E JUMP JUMPDEST PUSH2 0x8DA PUSH1 0x80 DUP4 ADD DUP5 PUSH2 0x68C JUMP JUMPDEST SWAP7 SWAP6 POP POP POP POP POP POP JUMP JUMPDEST PUSH1 0x0 DUP1 REVERT JUMPDEST PUSH1 0x0 PUSH1 0x1F NOT PUSH1 0x1F DUP4 ADD AND SWAP1 POP SWAP2 SWAP1 POP JUMP JUMPDEST PUSH2 0x903 DUP3 PUSH2 0x8E9 JUMP JUMPDEST DUP2 ADD DUP2 DUP2 LT PUSH8 0xFFFFFFFFFFFFFFFF DUP3 GT OR ISZERO PUSH2 0x922 JUMPI PUSH2 0x921 PUSH2 0x729 JUMP JUMPDEST JUMPDEST DUP1 PUSH1 0x40 MSTORE POP POP POP JUMP JUMPDEST PUSH1 0x0 PUSH2 0x935 PUSH2 0x598 JUMP JUMPDEST SWAP1 POP PUSH2 0x941 DUP3 DUP3 PUSH2 0x8FA JUMP JUMPDEST SWAP2 SWAP1 POP JUMP JUMPDEST PUSH1 0x0 PUSH8 0xFFFFFFFFFFFFFFFF DUP3 GT ISZERO PUSH2 0x961 JUMPI PUSH2 0x960 PUSH2 0x729 JUMP JUMPDEST JUMPDEST PUSH1 0x20 DUP3 MUL SWAP1 POP PUSH1 0x20 DUP2 ADD SWAP1 POP SWAP2 SWAP1 POP JUMP JUMPDEST PUSH1 0x0 DUP1 REVERT JUMPDEST PUSH1 0x0 PUSH2 0x98A PUSH2 0x985 DUP5 PUSH2 0x946 JUMP JUMPDEST PUSH2 0x92B JUMP JUMPDEST SWAP1 POP DUP1 DUP4 DUP3 MSTORE PUSH1 0x20 DUP3 ADD SWAP1 POP PUSH1 0x20 DUP5 MUL DUP4 ADD DUP6 DUP2 GT ISZERO PUSH2 0x9AD JUMPI PUSH2 0x9AC PUSH2 0x972 JUMP JUMPDEST JUMPDEST DUP4 JUMPDEST DUP2 DUP2 LT ISZERO PUSH2 0x9D6 JUMPI DUP1 PUSH2 0x9C2 DUP9 DUP3 PUSH2 0x5CD JUMP JUMPDEST DUP5 MSTORE PUSH1 0x20 DUP5 ADD SWAP4 POP POP PUSH1 0x20 DUP2 ADD SWAP1 POP PUSH2 0x9AF JUMP JUMPDEST POP POP POP SWAP4 SWAP3 POP POP POP JUMP JUMPDEST PUSH1 0x0 DUP3 PUSH1 0x1F DUP4 ADD SLT PUSH2 0x9F5 JUMPI PUSH2 0x9F4 PUSH2 0x8E4 JUMP JUMPDEST JUMPDEST DUP2 MLOAD PUSH2 0xA05 DUP5 DUP3 PUSH1 0x20 DUP7 ADD PUSH2 0x977 JUMP JUMPDEST SWAP2 POP POP SWAP3 SWAP2 POP POP JUMP JUMPDEST PUSH1 0x0 PUSH1 0x20 DUP3 DUP5 SUB SLT ISZERO PUSH2 0xA24 JUMPI PUSH2 0xA23 PUSH2 0x5A2 JUMP JUMPDEST JUMPDEST PUSH1 0x0 DUP3 ADD MLOAD PUSH8 0xFFFFFFFFFFFFFFFF DUP2 GT ISZERO PUSH2 0xA42 JUMPI PUSH2 0xA41 PUSH2 0x5A7 JUMP JUMPDEST JUMPDEST PUSH2 0xA4E DUP5 DUP3 DUP6 ADD PUSH2 0x9E0 JUMP JUMPDEST SWAP2 POP POP SWAP3 SWAP2 POP POP JUMP INVALID LOG2 PUSH5 0x6970667358 0x22 SLT KECCAK256 DELEGATECALL EQ 0xB4 PUSH1 0x18 0xA6 0xC PUSH32 0x12048A6CC3AE1F6BA04FB04203BDD23AECE2EC1977681BD964736F6C63430008 BYTE STOP CALLER "},"methodIdentifiers":{"COLD_WALLET()":"6744bb26","IDRX()":"ef187921","OWNER()":"117803e3","ROUTER()":"32fe7b26","USDC()":"89a30271","sweep()":"35faa416"}}}}}