{
  "_format": "hh-sol-artifact-1",
  "contractName": "LokaFactory",
  "sourceName": "contracts/LokaFactory.sol",
  "abi": [
    {
      "inputs": [
        {
          "internalType": "address",
          "name": "_coldWallet",
          "type": "address"
        },
        {
          "internalType": "address",
          "name": "_gelatoForwarder",
          "type": "address"
        }
      ],
      "stateMutability": "nonpayable",
      "type": "constructor"
    },
    {
      "anonymous": false,
      "inputs": [
        {
          "indexed": true,
          "internalType": "address",
          "name": "vaultAddress",
          "type": "address"
        },
        {
          "indexed": false,
          "internalType": "bytes32",
          "name": "salt",
          "type": "bytes32"
        }
      ],
      "name": "VaultDeployed",
      "type": "event"
    },
    {
      "inputs": [],
      "name": "coldWallet",
      "outputs": [
        {
          "internalType": "address",
          "name": "",
          "type": "address"
        }
      ],
      "stateMutability": "view",
      "type": "function"
    },
    {
      "inputs": [
        {
          "internalType": "bytes32",
          "name": "_salt",
          "type": "bytes32"
        },
        {
          "internalType": "address",
          "name": "_owner",
          "type": "address"
        }
      ],
      "name": "deployVault",
      "outputs": [
        {
          "internalType": "address",
          "name": "",
          "type": "address"
        }
      ],
      "stateMutability": "nonpayable",
      "type": "function"
    },
    {
      "inputs": [],
      "name": "gelatoForwarder",
      "outputs": [
        {
          "internalType": "address",
          "name": "",
          "type": "address"
        }
      ],
      "stateMutability": "view",
      "type": "function"
    },
    {
      "inputs": [
        {
          "internalType": "bytes32",
          "name": "_salt",
          "type": "bytes32"
        },
        {
          "internalType": "address",
          "name": "_owner",
          "type": "address"
        }
      ],
      "name": "getVaultAddress",
      "outputs": [
        {
          "internalType": "address",
          "name": "",
          "type": "address"
        }
      ],
      "stateMutability": "view",
      "type": "function"
    }
  ],
  "bytecode": "0x60c060405234801561001057600080fd5b506040516110a43803806110a483398181016040528101906100329190610104565b8173ffffffffffffffffffffffffffffffffffffffff1660808173ffffffffffffffffffffffffffffffffffffffff16815250508073ffffffffffffffffffffffffffffffffffffffff1660a08173ffffffffffffffffffffffffffffffffffffffff16815250505050610144565b600080fd5b600073ffffffffffffffffffffffffffffffffffffffff82169050919050565b60006100d1826100a6565b9050919050565b6100e1816100c6565b81146100ec57600080fd5b50565b6000815190506100fe816100d8565b92915050565b6000806040838503121561011b5761011a6100a1565b5b6000610129858286016100ef565b925050602061013a858286016100ef565b9150509250929050565b60805160a051610f1f61018560003960008181610138015281816101e601526102540152600081816101170152818161020a01526102330152610f1f6000f3fe608060405234801561001057600080fd5b506004361061004c5760003560e01c806301ac60e8146100515780633699fbdf146100815780636be13c921461009f578063e058beea146100bd575b600080fd5b61006b600480360381019061006691906103ac565b6100ed565b60405161007891906103fb565b60405180910390f35b6100896101e4565b60405161009691906103fb565b60405180910390f35b6100a7610208565b6040516100b491906103fb565b60405180910390f35b6100d760048036038101906100d291906103ac565b61022c565b6040516100e491906103fb565b60405180910390f35b6000806040518060200161010090610306565b6020820181038252601f19601f82011660405250837f00000000000000000000000000000000000000000000000000000000000000007f000000000000000000000000000000000000000000000000000000000000000060405160200161016993929190610416565b6040516020818303038152906040526040516020016101899291906104be565b6040516020818303038152906040529050600060ff60f81b308684805190602001206040516020016101be9493929190610598565b6040516020818303038152906040528051906020012090508060001c9250505092915050565b7f000000000000000000000000000000000000000000000000000000000000000081565b7f000000000000000000000000000000000000000000000000000000000000000081565b60008083837f00000000000000000000000000000000000000000000000000000000000000007f000000000000000000000000000000000000000000000000000000000000000060405161027f90610306565b61028b93929190610416565b8190604051809103906000f59050801580156102ab573d6000803e3d6000fd5b5090508073ffffffffffffffffffffffffffffffffffffffff167f3002bba91865865165d175c19d622d4b3dc25efce6f18428a08ad57c5c1c49d4856040516102f491906105f5565b60405180910390a28091505092915050565b6108d98061061183390190565b600080fd5b6000819050919050565b61032b81610318565b811461033657600080fd5b50565b60008135905061034881610322565b92915050565b600073ffffffffffffffffffffffffffffffffffffffff82169050919050565b60006103798261034e565b9050919050565b6103898161036e565b811461039457600080fd5b50565b6000813590506103a681610380565b92915050565b600080604083850312156103c3576103c2610313565b5b60006103d185828601610339565b92505060206103e285828601610397565b9150509250929050565b6103f58161036e565b82525050565b600060208201905061041060008301846103ec565b92915050565b600060608201905061042b60008301866103ec565b61043860208301856103ec565b61044560408301846103ec565b949350505050565b600081519050919050565b600081905092915050565b60005b83811015610481578082015181840152602081019050610466565b60008484015250505050565b60006104988261044d565b6104a28185610458565b93506104b2818560208601610463565b80840191505092915050565b60006104ca828561048d565b91506104d6828461048d565b91508190509392505050565b60007fff0000000000000000000000000000000000000000000000000000000000000082169050919050565b6000819050919050565b610529610524826104e2565b61050e565b82525050565b60008160601b9050919050565b60006105478261052f565b9050919050565b60006105598261053c565b9050919050565b61057161056c8261036e565b61054e565b82525050565b6000819050919050565b61059261058d82610318565b610577565b82525050565b60006105a48287610518565b6001820191506105b48286610560565b6014820191506105c48285610581565b6020820191506105d48284610581565b60208201915081905095945050505050565b6105ef81610318565b82525050565b600060208201905061060a60008301846105e6565b9291505056fe60e060405234801561001057600080fd5b506040516108d93803806108d98339818101604052810190610032919061013b565b808073ffffffffffffffffffffffffffffffffffffffff1660808173ffffffffffffffffffffffffffffffffffffffff1681525050508273ffffffffffffffffffffffffffffffffffffffff1660c08173ffffffffffffffffffffffffffffffffffffffff16815250508173ffffffffffffffffffffffffffffffffffffffff1660a08173ffffffffffffffffffffffffffffffffffffffff168152505050505061018e565b600080fd5b600073ffffffffffffffffffffffffffffffffffffffff82169050919050565b6000610108826100dd565b9050919050565b610118816100fd565b811461012357600080fd5b50565b6000815190506101358161010f565b92915050565b600080600060608486031215610154576101536100d8565b5b600061016286828701610126565b935050602061017386828701610126565b925050604061018486828701610126565b9150509250925092565b60805160a05160c05161070f6101ca6000396000818160db015261032801526000818161025201526103a40152600061034e015261070f6000f3fe608060405234801561001057600080fd5b506004361061004c5760003560e01c806301681a6214610051578063117803e31461006d578063572b6c051461008b5780636744bb26146100bb575b600080fd5b61006b60048036038101906100669190610454565b6100d9565b005b610075610326565b6040516100829190610490565b60405180910390f35b6100a560048036038101906100a09190610454565b61034a565b6040516100b291906104c6565b60405180910390f35b6100c36103a2565b6040516100d09190610490565b60405180910390f35b7f000000000000000000000000000000000000000000000000000000000000000073ffffffffffffffffffffffffffffffffffffffff166101186103c6565b73ffffffffffffffffffffffffffffffffffffffff161461016e576040517f08c379a00000000000000000000000000000000000000000000000000000000081526004016101659061053e565b60405180910390fd5b600081905060008173ffffffffffffffffffffffffffffffffffffffff166370a08231306040518263ffffffff1660e01b81526004016101ae9190610490565b602060405180830381865afa1580156101cb573d6000803e3d6000fd5b505050506040513d601f19601f820116820180604052508101906101ef9190610594565b905060008111610234576040517f08c379a000000000000000000000000000000000000000000000000000000000815260040161022b9061060d565b60405180910390fd5b8173ffffffffffffffffffffffffffffffffffffffff1663a9059cbb7f0000000000000000000000000000000000000000000000000000000000000000836040518363ffffffff1660e01b815260040161028f92919061063c565b6020604051808303816000875af11580156102ae573d6000803e3d6000fd5b505050506040513d601f19601f820116820180604052508101906102d29190610691565b508273ffffffffffffffffffffffffffffffffffffffff167fc36b5179cb9c303b200074996eab2b3473eac370fdd7eba3bec636fe351096968260405161031991906106be565b60405180910390a2505050565b7f000000000000000000000000000000000000000000000000000000000000000081565b60007f000000000000000000000000000000000000000000000000000000000000000073ffffffffffffffffffffffffffffffffffffffff168273ffffffffffffffffffffffffffffffffffffffff16149050919050565b7f000000000000000000000000000000000000000000000000000000000000000081565b60006103d13361034a565b156103e557601436033560601c90506103ed565b3390506103ee565b5b90565b600080fd5b600073ffffffffffffffffffffffffffffffffffffffff82169050919050565b6000610421826103f6565b9050919050565b61043181610416565b811461043c57600080fd5b50565b60008135905061044e81610428565b92915050565b60006020828403121561046a576104696103f1565b5b60006104788482850161043f565b91505092915050565b61048a81610416565b82525050565b60006020820190506104a56000830184610481565b92915050565b60008115159050919050565b6104c0816104ab565b82525050565b60006020820190506104db60008301846104b7565b92915050565b600082825260208201905092915050565b7f4e6f74204f776e65720000000000000000000000000000000000000000000000600082015250565b60006105286009836104e1565b9150610533826104f2565b602082019050919050565b600060208201905081810360008301526105578161051b565b9050919050565b6000819050919050565b6105718161055e565b811461057c57600080fd5b50565b60008151905061058e81610568565b92915050565b6000602082840312156105aa576105a96103f1565b5b60006105b88482850161057f565b91505092915050565b7f5a65726f2042616c616e63650000000000000000000000000000000000000000600082015250565b60006105f7600c836104e1565b9150610602826105c1565b602082019050919050565b60006020820190508181036000830152610626816105ea565b9050919050565b6106368161055e565b82525050565b60006040820190506106516000830185610481565b61065e602083018461062d565b9392505050565b61066e816104ab565b811461067957600080fd5b50565b60008151905061068b81610665565b92915050565b6000602082840312156106a7576106a66103f1565b5b60006106b58482850161067c565b91505092915050565b60006020820190506106d3600083018461062d565b9291505056fea26469706673582212208ad04912184d074dada4882213b5fe0a6d1e4b3454ab5049c84fb506ac6c6f0464736f6c634300081a0033a26469706673582212209a307c18b371644eb6ee1358f79aecd1ccc0ceba70dac085721e054159897bbf64736f6c634300081a0033",
  "linkReferences": {},
  "deployedLinkReferences": {}
}