{
  "_format": "hh-sol-artifact-1",
  "contractName": "LokaFactory",
  "sourceName": "contracts/LokaFactory.sol",
  "abi": [
    {
      "inputs": [
        {
          "internalType": "address",
          "name": "_coldWallet",
          "type": "address"
        },
        {
          "internalType": "address",
          "name": "_router",
          "type": "address"
        },
        {
          "internalType": "address",
          "name": "_usdc",
          "type": "address"
        },
        {
          "internalType": "address",
          "name": "_idrx",
          "type": "address"
        }
      ],
      "stateMutability": "nonpayable",
      "type": "constructor"
    },
    {
      "anonymous": false,
      "inputs": [
        {
          "indexed": true,
          "internalType": "address",
          "name": "vaultAddress",
          "type": "address"
        },
        {
          "indexed": true,
          "internalType": "address",
          "name": "owner",
          "type": "address"
        },
        {
          "indexed": false,
          "internalType": "bytes32",
          "name": "salt",
          "type": "bytes32"
        }
      ],
      "name": "VaultDeployed",
      "type": "event"
    },
    {
      "inputs": [],
      "name": "coldWallet",
      "outputs": [
        {
          "internalType": "address",
          "name": "",
          "type": "address"
        }
      ],
      "stateMutability": "view",
      "type": "function"
    },
    {
      "inputs": [
        {
          "internalType": "bytes32",
          "name": "_salt",
          "type": "bytes32"
        },
        {
          "internalType": "address",
          "name": "_owner",
          "type": "address"
        }
      ],
      "name": "deployVault",
      "outputs": [
        {
          "internalType": "address",
          "name": "",
          "type": "address"
        }
      ],
      "stateMutability": "nonpayable",
      "type": "function"
    },
    {
      "inputs": [
        {
          "internalType": "bytes32",
          "name": "_salt",
          "type": "bytes32"
        },
        {
          "internalType": "address",
          "name": "_owner",
          "type": "address"
        }
      ],
      "name": "getVaultAddress",
      "outputs": [
        {
          "internalType": "address",
          "name": "",
          "type": "address"
        }
      ],
      "stateMutability": "view",
      "type": "function"
    },
    {
      "inputs": [],
      "name": "idrx",
      "outputs": [
        {
          "internalType": "address",
          "name": "",
          "type": "address"
        }
      ],
      "stateMutability": "view",
      "type": "function"
    },
    {
      "inputs": [],
      "name": "router",
      "outputs": [
        {
          "internalType": "address",
          "name": "",
          "type": "address"
        }
      ],
      "stateMutability": "view",
      "type": "function"
    },
    {
      "inputs": [],
      "name": "usdc",
      "outputs": [
        {
          "internalType": "address",
          "name": "",
          "type": "address"
        }
      ],
      "stateMutability": "view",
      "type": "function"
    }
  ],
  "bytecode": "0x61010060405234801561001157600080fd5b50604051611b12380380611b128339818101604052810190610033919061032b565b600073ffffffffffffffffffffffffffffffffffffffff168473ffffffffffffffffffffffffffffffffffffffff16036100a2576040517f08c379a000000000000000000000000000000000000000000000000000000000815260040161009990610415565b60405180910390fd5b600073ffffffffffffffffffffffffffffffffffffffff168373ffffffffffffffffffffffffffffffffffffffff1603610111576040517f08c379a0000000000000000000000000000000000000000000000000000000008152600401610108906104a7565b60405180910390fd5b600073ffffffffffffffffffffffffffffffffffffffff168273ffffffffffffffffffffffffffffffffffffffff1603610180576040517f08c379a000000000000000000000000000000000000000000000000000000000815260040161017790610539565b60405180910390fd5b600073ffffffffffffffffffffffffffffffffffffffff168173ffffffffffffffffffffffffffffffffffffffff16036101ef576040517f08c379a00000000000000000000000000000000000000000000000000000000081526004016101e6906105cb565b60405180910390fd5b8373ffffffffffffffffffffffffffffffffffffffff1660808173ffffffffffffffffffffffffffffffffffffffff16815250508273ffffffffffffffffffffffffffffffffffffffff1660a08173ffffffffffffffffffffffffffffffffffffffff16815250508173ffffffffffffffffffffffffffffffffffffffff1660c08173ffffffffffffffffffffffffffffffffffffffff16815250508073ffffffffffffffffffffffffffffffffffffffff1660e08173ffffffffffffffffffffffffffffffffffffffff1681525050505050506105eb565b600080fd5b600073ffffffffffffffffffffffffffffffffffffffff82169050919050565b60006102f8826102cd565b9050919050565b610308816102ed565b811461031357600080fd5b50565b600081519050610325816102ff565b92915050565b60008060008060808587031215610345576103446102c8565b5b600061035387828801610316565b945050602061036487828801610316565b935050604061037587828801610316565b925050606061038687828801610316565b91505092959194509250565b600082825260208201905092915050565b7f4c6f6b61466163746f72793a20636f6c6457616c6c65742063616e6e6f74206260008201527f65207a65726f2061646472657373000000000000000000000000000000000000602082015250565b60006103ff602e83610392565b915061040a826103a3565b604082019050919050565b6000602082019050818103600083015261042e816103f2565b9050919050565b7f4c6f6b61466163746f72793a20726f757465722063616e6e6f74206265207a6560008201527f726f206164647265737300000000000000000000000000000000000000000000602082015250565b6000610491602a83610392565b915061049c82610435565b604082019050919050565b600060208201905081810360008301526104c081610484565b9050919050565b7f4c6f6b61466163746f72793a20757364632063616e6e6f74206265207a65726f60008201527f2061646472657373000000000000000000000000000000000000000000000000602082015250565b6000610523602883610392565b915061052e826104c7565b604082019050919050565b6000602082019050818103600083015261055281610516565b9050919050565b7f4c6f6b61466163746f72793a20696472782063616e6e6f74206265207a65726f60008201527f2061646472657373000000000000000000000000000000000000000000000000602082015250565b60006105b5602883610392565b91506105c082610559565b604082019050919050565b600060208201905081810360008301526105e4816105a8565b9050919050565b60805160a05160c05160e0516114b661065c600039600081816101cc0152818161032c01526103f90152600081816101ab0152818161027c015261030b01526000818161018a015281816102ea015261041d015260008181610169015281816102a001526102c901526114b66000f3fe608060405234801561001057600080fd5b50600436106100625760003560e01c806301ac60e8146100675780633e413bee146100975780636be13c92146100b5578063e058beea146100d3578063e172c60914610103578063f887ea4014610121575b600080fd5b610081600480360381019061007c91906104e5565b61013f565b60405161008e9190610534565b60405180910390f35b61009f61027a565b6040516100ac9190610534565b60405180910390f35b6100bd61029e565b6040516100ca9190610534565b60405180910390f35b6100ed60048036038101906100e891906104e5565b6102c2565b6040516100fa9190610534565b60405180910390f35b61010b6103f7565b6040516101189190610534565b60405180910390f35b61012961041b565b6040516101369190610534565b60405180910390f35b600080604051806020016101529061043f565b6020820181038252601f19601f82011660405250837f00000000000000000000000000000000000000000000000000000000000000007f00000000000000000000000000000000000000000000000000000000000000007f00000000000000000000000000000000000000000000000000000000000000007f00000000000000000000000000000000000000000000000000000000000000006040516020016101ff95949392919061054f565b60405160208183030381529060405260405160200161021f929190610613565b6040516020818303038152906040529050600060ff60f81b3086848051906020012060405160200161025494939291906106ed565b6040516020818303038152906040528051906020012090508060001c9250505092915050565b7f000000000000000000000000000000000000000000000000000000000000000081565b7f000000000000000000000000000000000000000000000000000000000000000081565b60008083837f00000000000000000000000000000000000000000000000000000000000000007f00000000000000000000000000000000000000000000000000000000000000007f00000000000000000000000000000000000000000000000000000000000000007f00000000000000000000000000000000000000000000000000000000000000006040516103579061043f565b61036595949392919061054f565b8190604051809103906000f5905080158015610385573d6000803e3d6000fd5b5090508273ffffffffffffffffffffffffffffffffffffffff168173ffffffffffffffffffffffffffffffffffffffff167f974c8040a9cc92c8ee6c077423071c05007f5382617d4b92868938f33d3d197e866040516103e5919061074a565b60405180910390a38091505092915050565b7f000000000000000000000000000000000000000000000000000000000000000081565b7f000000000000000000000000000000000000000000000000000000000000000081565b610d1b8061076683390190565b600080fd5b6000819050919050565b61046481610451565b811461046f57600080fd5b50565b6000813590506104818161045b565b92915050565b600073ffffffffffffffffffffffffffffffffffffffff82169050919050565b60006104b282610487565b9050919050565b6104c2816104a7565b81146104cd57600080fd5b50565b6000813590506104df816104b9565b92915050565b600080604083850312156104fc576104fb61044c565b5b600061050a85828601610472565b925050602061051b858286016104d0565b9150509250929050565b61052e816104a7565b82525050565b60006020820190506105496000830184610525565b92915050565b600060a0820190506105646000830188610525565b6105716020830187610525565b61057e6040830186610525565b61058b6060830185610525565b6105986080830184610525565b9695505050505050565b600081519050919050565b600081905092915050565b60005b838110156105d65780820151818401526020810190506105bb565b60008484015250505050565b60006105ed826105a2565b6105f781856105ad565b93506106078185602086016105b8565b80840191505092915050565b600061061f82856105e2565b915061062b82846105e2565b91508190509392505050565b60007fff0000000000000000000000000000000000000000000000000000000000000082169050919050565b6000819050919050565b61067e61067982610637565b610663565b82525050565b60008160601b9050919050565b600061069c82610684565b9050919050565b60006106ae82610691565b9050919050565b6106c66106c1826104a7565b6106a3565b82525050565b6000819050919050565b6106e76106e282610451565b6106cc565b82525050565b60006106f9828761066d565b60018201915061070982866106b5565b60148201915061071982856106d6565b60208201915061072982846106d6565b60208201915081905095945050505050565b61074481610451565b82525050565b600060208201905061075f600083018461073b565b9291505056fe61012060405234801561001157600080fd5b50604051610d1b380380610d1b833981810160405281019061003391906101a5565b8473ffffffffffffffffffffffffffffffffffffffff1660a08173ffffffffffffffffffffffffffffffffffffffff16815250508373ffffffffffffffffffffffffffffffffffffffff1660808173ffffffffffffffffffffffffffffffffffffffff16815250508273ffffffffffffffffffffffffffffffffffffffff1660c08173ffffffffffffffffffffffffffffffffffffffff16815250508173ffffffffffffffffffffffffffffffffffffffff1660e08173ffffffffffffffffffffffffffffffffffffffff16815250508073ffffffffffffffffffffffffffffffffffffffff166101008173ffffffffffffffffffffffffffffffffffffffff16815250505050505050610220565b600080fd5b600073ffffffffffffffffffffffffffffffffffffffff82169050919050565b600061017282610147565b9050919050565b61018281610167565b811461018d57600080fd5b50565b60008151905061019f81610179565b92915050565b600080600080600060a086880312156101c1576101c0610142565b5b60006101cf88828901610190565b95505060206101e088828901610190565b94505060406101f188828901610190565b935050606061020288828901610190565b925050608061021388828901610190565b9150509295509295909350565b60805160a05160c05160e05161010051610a8d61028e60003960008181610393015261051a0152600081816101530152818161032401526104f601526000818161012d0152818161025301526104020152600061010901526000818161044201526104d20152610a8d6000f3fe608060405234801561001057600080fd5b50600436106100625760003560e01c8063117803e31461006757806332fe7b261461008557806335faa416146100a35780636744bb26146100ad57806389a30271146100cb578063ef187921146100e9575b600080fd5b61006f610107565b60405161007c919061057d565b60405180910390f35b61008d61012b565b60405161009a919061057d565b60405180910390f35b6100ab61014f565b005b6100b56104d0565b6040516100c2919061057d565b60405180910390f35b6100d36104f4565b6040516100e0919061057d565b60405180910390f35b6100f1610518565b6040516100fe919061057d565b60405180910390f35b7f000000000000000000000000000000000000000000000000000000000000000081565b7f000000000000000000000000000000000000000000000000000000000000000081565b60007f0000000000000000000000000000000000000000000000000000000000000000905060008173ffffffffffffffffffffffffffffffffffffffff166370a08231306040518263ffffffff1660e01b81526004016101af919061057d565b602060405180830381865afa1580156101cc573d6000803e3d6000fd5b505050506040513d601f19601f820116820180604052508101906101f091906105e2565b905060008111610235576040517f08c379a000000000000000000000000000000000000000000000000000000000815260040161022c9061066c565b60405180910390fd5b8173ffffffffffffffffffffffffffffffffffffffff1663095ea7b37f0000000000000000000000000000000000000000000000000000000000000000836040518363ffffffff1660e01b815260040161029092919061069b565b6020604051808303816000875af11580156102af573d6000803e3d6000fd5b505050506040513d601f19601f820116820180604052508101906102d391906106fc565b506000600267ffffffffffffffff8111156102f1576102f0610729565b5b60405190808252806020026020018201604052801561031f5781602001602082028036833780820191505090505b5090507f00000000000000000000000000000000000000000000000000000000000000008160008151811061035757610356610758565b5b602002602001019073ffffffffffffffffffffffffffffffffffffffff16908173ffffffffffffffffffffffffffffffffffffffff16815250507f0000000000000000000000000000000000000000000000000000000000000000816001815181106103c6576103c5610758565b5b602002602001019073ffffffffffffffffffffffffffffffffffffffff16908173ffffffffffffffffffffffffffffffffffffffff16815250507f000000000000000000000000000000000000000000000000000000000000000073ffffffffffffffffffffffffffffffffffffffff166338ed1739836000847f0000000000000000000000000000000000000000000000000000000000000000426040518663ffffffff1660e01b815260040161048295949392919061088a565b6000604051808303816000875af11580156104a1573d6000803e3d6000fd5b505050506040513d6000823e3d601f19601f820116820180604052508101906104ca9190610a0e565b50505050565b7f000000000000000000000000000000000000000000000000000000000000000081565b7f000000000000000000000000000000000000000000000000000000000000000081565b7f000000000000000000000000000000000000000000000000000000000000000081565b600073ffffffffffffffffffffffffffffffffffffffff82169050919050565b60006105678261053c565b9050919050565b6105778161055c565b82525050565b6000602082019050610592600083018461056e565b92915050565b6000604051905090565b600080fd5b600080fd5b6000819050919050565b6105bf816105ac565b81146105ca57600080fd5b50565b6000815190506105dc816105b6565b92915050565b6000602082840312156105f8576105f76105a2565b5b6000610606848285016105cd565b91505092915050565b600082825260208201905092915050565b7f5a65726f2042616c616e63650000000000000000000000000000000000000000600082015250565b6000610656600c8361060f565b915061066182610620565b602082019050919050565b6000602082019050818103600083015261068581610649565b9050919050565b610695816105ac565b82525050565b60006040820190506106b0600083018561056e565b6106bd602083018461068c565b9392505050565b60008115159050919050565b6106d9816106c4565b81146106e457600080fd5b50565b6000815190506106f6816106d0565b92915050565b600060208284031215610712576107116105a2565b5b6000610720848285016106e7565b91505092915050565b7f4e487b7100000000000000000000000000000000000000000000000000000000600052604160045260246000fd5b7f4e487b7100000000000000000000000000000000000000000000000000000000600052603260045260246000fd5b6000819050919050565b6000819050919050565b60006107b66107b16107ac84610787565b610791565b6105ac565b9050919050565b6107c68161079b565b82525050565b600081519050919050565b600082825260208201905092915050565b6000819050602082019050919050565b6108018161055c565b82525050565b600061081383836107f8565b60208301905092915050565b6000602082019050919050565b6000610837826107cc565b61084181856107d7565b935061084c836107e8565b8060005b8381101561087d5781516108648882610807565b975061086f8361081f565b925050600181019050610850565b5085935050505092915050565b600060a08201905061089f600083018861068c565b6108ac60208301876107bd565b81810360408301526108be818661082c565b90506108cd606083018561056e565b6108da608083018461068c565b9695505050505050565b600080fd5b6000601f19601f8301169050919050565b610903826108e9565b810181811067ffffffffffffffff8211171561092257610921610729565b5b80604052505050565b6000610935610598565b905061094182826108fa565b919050565b600067ffffffffffffffff82111561096157610960610729565b5b602082029050602081019050919050565b600080fd5b600061098a61098584610946565b61092b565b905080838252602082019050602084028301858111156109ad576109ac610972565b5b835b818110156109d657806109c288826105cd565b8452602084019350506020810190506109af565b5050509392505050565b600082601f8301126109f5576109f46108e4565b5b8151610a05848260208601610977565b91505092915050565b600060208284031215610a2457610a236105a2565b5b600082015167ffffffffffffffff811115610a4257610a416105a7565b5b610a4e848285016109e0565b9150509291505056fea2646970667358221220f414b46018a60c7f12048a6cc3ae1f6ba04fb04203bdd23aece2ec1977681bd964736f6c634300081a0033a264697066735822122080dd7f9d4a54b10905cbf22c4d19e498039ef335634e769bbd36e7ca6ae1f67264736f6c634300081a0033",
  "linkReferences": {},
  "deployedLinkReferences": {}
}