{
  "_format": "hh-sol-artifact-1",
  "contractName": "LokaFactory",
  "sourceName": "contracts/LokaFactory.sol",
  "abi": [
    {
      "inputs": [
        {
          "internalType": "address",
          "name": "_coldWallet",
          "type": "address"
        }
      ],
      "stateMutability": "nonpayable",
      "type": "constructor"
    },
    {
      "anonymous": false,
      "inputs": [
        {
          "indexed": true,
          "internalType": "address",
          "name": "vaultAddress",
          "type": "address"
        },
        {
          "indexed": true,
          "internalType": "address",
          "name": "owner",
          "type": "address"
        },
        {
          "indexed": false,
          "internalType": "bytes32",
          "name": "salt",
          "type": "bytes32"
        }
      ],
      "name": "VaultDeployed",
      "type": "event"
    },
    {
      "inputs": [],
      "name": "coldWallet",
      "outputs": [
        {
          "internalType": "address",
          "name": "",
          "type": "address"
        }
      ],
      "stateMutability": "view",
      "type": "function"
    },
    {
      "inputs": [
        {
          "internalType": "bytes32",
          "name": "_salt",
          "type": "bytes32"
        },
        {
          "internalType": "address",
          "name": "_owner",
          "type": "address"
        }
      ],
      "name": "deployVault",
      "outputs": [
        {
          "internalType": "address",
          "name": "",
          "type": "address"
        }
      ],
      "stateMutability": "nonpayable",
      "type": "function"
    },
    {
      "inputs": [
        {
          "internalType": "bytes32",
          "name": "_salt",
          "type": "bytes32"
        },
        {
          "internalType": "address",
          "name": "_owner",
          "type": "address"
        }
      ],
      "name": "getVaultAddress",
      "outputs": [
        {
          "internalType": "address",
          "name": "",
          "type": "address"
        }
      ],
      "stateMutability": "view",
      "type": "function"
    }
  ],
  "bytecode": "0x60a060405234801561001057600080fd5b5060405161100e38038061100e8339818101604052810190610032919061013e565b600073ffffffffffffffffffffffffffffffffffffffff168173ffffffffffffffffffffffffffffffffffffffff16036100a1576040517f08c379a0000000000000000000000000000000000000000000000000000000008152600401610098906101c8565b60405180910390fd5b8073ffffffffffffffffffffffffffffffffffffffff1660808173ffffffffffffffffffffffffffffffffffffffff1681525050506101e8565b600080fd5b600073ffffffffffffffffffffffffffffffffffffffff82169050919050565b600061010b826100e0565b9050919050565b61011b81610100565b811461012657600080fd5b50565b60008151905061013881610112565b92915050565b600060208284031215610154576101536100db565b5b600061016284828501610129565b91505092915050565b600082825260208201905092915050565b7f5a65726f2061646472657373206e6f7420616c6c6f7765640000000000000000600082015250565b60006101b260188361016b565b91506101bd8261017c565b602082019050919050565b600060208201905081810360008301526101e1816101a5565b9050919050565b608051610dfe6102106000396000818160ee0152818161019b01526101c40152610dfe6000f3fe608060405234801561001057600080fd5b50600436106100415760003560e01c806301ac60e8146100465780636be13c9214610076578063e058beea14610094575b600080fd5b610060600480360381019061005b9190610332565b6100c4565b60405161006d9190610381565b60405180910390f35b61007e610199565b60405161008b9190610381565b60405180910390f35b6100ae60048036038101906100a99190610332565b6101bd565b6040516100bb9190610381565b60405180910390f35b600080604051806020016100d79061028c565b6020820181038252601f19601f82011660405250837f000000000000000000000000000000000000000000000000000000000000000060405160200161011e92919061039c565b60405160208183030381529060405260405160200161013e929190610436565b6040516020818303038152906040529050600060ff60f81b308684805190602001206040516020016101739493929190610510565b6040516020818303038152906040528051906020012090508060001c9250505092915050565b7f000000000000000000000000000000000000000000000000000000000000000081565b60008083837f00000000000000000000000000000000000000000000000000000000000000006040516101ef9061028c565b6101fa92919061039c565b8190604051809103906000f590508015801561021a573d6000803e3d6000fd5b5090508273ffffffffffffffffffffffffffffffffffffffff168173ffffffffffffffffffffffffffffffffffffffff167f974c8040a9cc92c8ee6c077423071c05007f5382617d4b92868938f33d3d197e8660405161027a919061056d565b60405180910390a38091505092915050565b6108408061058983390190565b600080fd5b6000819050919050565b6102b18161029e565b81146102bc57600080fd5b50565b6000813590506102ce816102a8565b92915050565b600073ffffffffffffffffffffffffffffffffffffffff82169050919050565b60006102ff826102d4565b9050919050565b61030f816102f4565b811461031a57600080fd5b50565b60008135905061032c81610306565b92915050565b6000806040838503121561034957610348610299565b5b6000610357858286016102bf565b92505060206103688582860161031d565b9150509250929050565b61037b816102f4565b82525050565b60006020820190506103966000830184610372565b92915050565b60006040820190506103b16000830185610372565b6103be6020830184610372565b9392505050565b600081519050919050565b600081905092915050565b60005b838110156103f95780820151818401526020810190506103de565b60008484015250505050565b6000610410826103c5565b61041a81856103d0565b935061042a8185602086016103db565b80840191505092915050565b60006104428285610405565b915061044e8284610405565b91508190509392505050565b60007fff0000000000000000000000000000000000000000000000000000000000000082169050919050565b6000819050919050565b6104a161049c8261045a565b610486565b82525050565b60008160601b9050919050565b60006104bf826104a7565b9050919050565b60006104d1826104b4565b9050919050565b6104e96104e4826102f4565b6104c6565b82525050565b6000819050919050565b61050a6105058261029e565b6104ef565b82525050565b600061051c8287610490565b60018201915061052c82866104d8565b60148201915061053c82856104f9565b60208201915061054c82846104f9565b60208201915081905095945050505050565b6105678161029e565b82525050565b6000602082019050610582600083018461055e565b9291505056fe60c060405234801561001057600080fd5b5060405161084038038061084083398181016040528101906100329190610104565b8173ffffffffffffffffffffffffffffffffffffffff1660a08173ffffffffffffffffffffffffffffffffffffffff16815250508073ffffffffffffffffffffffffffffffffffffffff1660808173ffffffffffffffffffffffffffffffffffffffff16815250505050610144565b600080fd5b600073ffffffffffffffffffffffffffffffffffffffff82169050919050565b60006100d1826100a6565b9050919050565b6100e1816100c6565b81146100ec57600080fd5b50565b6000815190506100fe816100d8565b92915050565b6000806040838503121561011b5761011a6100a1565b5b6000610129858286016100ef565b925050602061013a858286016100ef565b9150509250929050565b60805160a0516106ca6101766000396000818160a00152610324015260008181610210015261034801526106ca6000f3fe608060405234801561001057600080fd5b50600436106100415760003560e01c806301681a6214610046578063117803e3146100625780636744bb2614610080575b600080fd5b610060600480360381019061005b91906103cd565b61009e565b005b61006a610322565b6040516100779190610409565b60405180910390f35b610088610346565b6040516100959190610409565b60405180910390f35b7f000000000000000000000000000000000000000000000000000000000000000073ffffffffffffffffffffffffffffffffffffffff163373ffffffffffffffffffffffffffffffffffffffff161461012c576040517f08c379a000000000000000000000000000000000000000000000000000000000815260040161012390610481565b60405180910390fd5b600081905060008173ffffffffffffffffffffffffffffffffffffffff166370a08231306040518263ffffffff1660e01b815260040161016c9190610409565b602060405180830381865afa158015610189573d6000803e3d6000fd5b505050506040513d601f19601f820116820180604052508101906101ad91906104d7565b9050600081116101f2576040517f08c379a00000000000000000000000000000000000000000000000000000000081526004016101e990610550565b60405180910390fd5b8173ffffffffffffffffffffffffffffffffffffffff1663a9059cbb7f0000000000000000000000000000000000000000000000000000000000000000836040518363ffffffff1660e01b815260040161024d92919061057f565b6020604051808303816000875af115801561026c573d6000803e3d6000fd5b505050506040513d601f19601f8201168201806040525081019061029091906105e0565b6102cf576040517f08c379a00000000000000000000000000000000000000000000000000000000081526004016102c690610659565b60405180910390fd5b8273ffffffffffffffffffffffffffffffffffffffff167fc36b5179cb9c303b200074996eab2b3473eac370fdd7eba3bec636fe35109696826040516103159190610679565b60405180910390a2505050565b7f000000000000000000000000000000000000000000000000000000000000000081565b7f000000000000000000000000000000000000000000000000000000000000000081565b600080fd5b600073ffffffffffffffffffffffffffffffffffffffff82169050919050565b600061039a8261036f565b9050919050565b6103aa8161038f565b81146103b557600080fd5b50565b6000813590506103c7816103a1565b92915050565b6000602082840312156103e3576103e261036a565b5b60006103f1848285016103b8565b91505092915050565b6104038161038f565b82525050565b600060208201905061041e60008301846103fa565b92915050565b600082825260208201905092915050565b7f4c6f6b615061793a204e6f74204f776e65720000000000000000000000000000600082015250565b600061046b601283610424565b915061047682610435565b602082019050919050565b6000602082019050818103600083015261049a8161045e565b9050919050565b6000819050919050565b6104b4816104a1565b81146104bf57600080fd5b50565b6000815190506104d1816104ab565b92915050565b6000602082840312156104ed576104ec61036a565b5b60006104fb848285016104c2565b91505092915050565b7f4c6f6b615061793a205a65726f2042616c616e63650000000000000000000000600082015250565b600061053a601583610424565b915061054582610504565b602082019050919050565b600060208201905081810360008301526105698161052d565b9050919050565b610579816104a1565b82525050565b600060408201905061059460008301856103fa565b6105a16020830184610570565b9392505050565b60008115159050919050565b6105bd816105a8565b81146105c857600080fd5b50565b6000815190506105da816105b4565b92915050565b6000602082840312156105f6576105f561036a565b5b6000610604848285016105cb565b91505092915050565b7f4c6f6b615061793a205472616e73666572204661696c65640000000000000000600082015250565b6000610643601883610424565b915061064e8261060d565b602082019050919050565b6000602082019050818103600083015261067281610636565b9050919050565b600060208201905061068e6000830184610570565b9291505056fea264697066735822122009c633f0e5fa5133e6c63d0322e545da3cdce9ca2591462be43718a1694fdf6c64736f6c634300081a0033a26469706673582212204ebd17e1699ac9ab7512b82aeffd2a9fea2f279a5008a2b73e41fdf5062f0fe264736f6c634300081a0033",
  "linkReferences": {},
  "deployedLinkReferences": {}
}